:020000040000FA
:1000000010050020C1000000EB050000E90500001C
:10001000FFFFFFFFFFFFFFFFFFFFFFFFFFFFFFFFF0
:10002000FFFFFFFFFFFFFFFFFFFFFFFFEF050000E8
:10003000FFFFFFFFFFFFFFFFED050000510600007F
:1000400003010000030100000301000003010000A0
:10005000090400001104000019040000030100005D
:1000600079020000FFFFFFFF030100000301000011
:10007000F90400000301000003010000FFFFFFFF7F
:10008000FFFFFFFF03010000030100000301000068
:100090000301000003010000030100000301000050
:1000A0003D09000089080000030100000301000071
:1000B0000301000003010000030100000301000030
:1000C0001048804710488047104800471048016991
:1000D000002910D1416900290DD1816900290AD177
:1000E000C169002907D1BFF34F8F0A490A48C86088
:1000F000BFF34F8FFEE77047FEE7FEE7FEE7FEE740
:10010000FEE7FEE7CD000000710600001D010000C3
:100110000003084000ED00E00400FA0505488546AC
:1001200000F094F800F046F800480047B1140000D1
:1001300000F06AF81005002030B50B46014600209B
:100140002022012409E00D46D5409D4205D31D46DD
:100150009540491B2546954040191546521E002DD5
:10016000F1DC30BD10B5431A934209D283188818C8
:1001700003E0401E01785B1E1970521EF9D210BDBB
:1001800003460B439B0703D009E008C9121F08C0B0
:10019000042AFAD203E00B780370401C491C521E5B
:1001A000F9D210BD421C0178401C0029FBD1801AF5
:1001B0007047000070B5054C054D03E0206800193C
:1001C0008047241DAC42F9D170BD0000C01F000063
:1001D000C81F0000F8B5074615460E46102001F06E
:1001E000E9F8040009D06760A660E56000F008F84F
:1001F0000168216004600020F8BD0120F8BD000006
:100200000048704784000020F8B50646FFF7F8FF65
:100210000090054615E0002E02D0E068B0420FD1F4
:10022000206828600098A1680768606888472046B1
:1002300001F08EF800980068B84202D00098E8E714
:1002400025462C68002CE6D1F8BD0000064C01259F
:10025000064E05E0E36807CC2B430C3C984710346E
:10026000B442F7D3FFF75EFFA01F0000C01F0000DD
:1002700070478030C160704710B5084C012120469E
:10028000FFF7F7FF206B064900050978000D054AC6
:100290004900505204490120087010BD000001407F
:1002A0000A000020900100200B000020F0B59646C7
:1002B0000A461349C000461800230025FF20984035
:1002C0002C46104216D00020012199408C46114640
:1002D000C1406746394206D087000F21B9400D431F
:1002E0007146B9400C43401C0828F0D33068A8433D
:1002F000204330600833361D082BDEDDF0BD0000E2
:100300002020024070B5184D0446686B4607760FF2
:1003100000F02EF815492060330001F00BF80814A6
:1003200005070714140E1114606000E06160296A6B
:100330006068052909D3400908E00120C003F3E7FC
:100340007D200002F0E70020EEE7C840A060A96A27
:100350004903490F072902D0C840E06070BD03215E
:10036000FFF7EAFEF9E700000080084000127A007B
:100370000C490868C869C20F4868400AC007C00F26
:100380000ED00948002A0BD18869C00D0007000F64
:1003900000D110208969044A4902890F5043C8409E
:1003A000704700000080084000127A001FB5410924
:1003B0000A4A89008A1800212E2800D10221C0068D
:1003C000C00E1268032383401A40C2405418684686
:1003D000FFF798FF029804B0E04010BD3880084055
:1003E000F0B5084F7C6AFD6A3E6B84438D439643AB
:1003F000002B02D004430D4316437C62FD623E6332
:10040000F0BD00000080084010B500F009F810BDF4
:1004100010B500F005F810BD10B500F001F810BDE2
:1004200070B500240B4D0C4E10E06000285A00F00F
:100430001FF8002808D00949A0000858804760002C
:10044000285A00F00DF870BD641CE4B23078844284
:10045000EBD370BDA00100200C000020B0010020F3
:100460000121814001484160816070474040024065
:100470000449496801228240114201D0012070479D
:100480000020704740400240002A026801D00A4321
:1004900000E08A4302607047002A426801D00A43A4
:1004A00000E08A4342607047002A026901D00A4393
:1004B00000E08A4302617047002A08D0012A09D06F
:1004C00082688A438260C2688A43C26070478268D9
:1004D0000A43F7E7C2680A43C26082688A438260BF
:1004E0007047C069084000D001207047002A01D041
:1004F0004162704781627047F8B501212F4800F0D2
:1005000039F9002859D02E4F3878401C3870002413
:100510002C4E2D4D3EE02D48005D39788842305DEF
:1005200018D8002806D0102808D020280AD0302853
:100530002ED10BE06000295A002217E06000295AF2
:10054000002218E06000295A002219E06000295AB0
:1005500000221AE0002806D0102809D020280CD04C
:10056000302815D10EE06000295A012218480DE00C
:100570006000295A0122174808E06000295A012228
:10058000154803E06000295A01221448FFF7AEFF26
:10059000641CE4B2124800788442BCD3074C0121A9
:1005A000204600F0D5F8204600F0E1F80D49098812
:1005B000401881B2204600F043F9F8BD00E0064043
:1005C00006000020280000208001002020000020DC
:1005D00000000B4000200B4000400B4000600B402F
:1005E000080000201C000020FEE77047704770479D
:1005F000042204490428086902D090430861704726
:100600001043FBE700E000E00749002806D001287E
:10061000086906D0400840000861704700208861E2
:10062000704701221043F7E700E000E0044902228E
:100630000028086901D0104300E09043086170472A
:1006400000E000E0014948617047000000E000E080
:1006500005480168002902D00168491E016003486D
:100660000168491C01607047100000201400002040
:10067000F0B532481027C760314901200860314881
:10068000016B4024214301632F498A68272AFCD14A
:10069000416A032292029143416241680122D202DF
:1006A000114341608168C908C907FBD04168C90886
:1006B000C900C91C4160416B4907490F0329FAD1A0
:1006C000224B1968C908C900491C19600025056238
:1006D000426859158A43426006684A10164306600C
:1006E000066BA643066304681443046003221206E3
:1006F000826142680A43426081684908C907FBD0A9
:100700001968C908C900891C196005624168C908CF
:10071000C900491C4160416B4907490F0129FAD1C1
:1007200019683943196019680122120311431960CD
:100730004168921091434160F0BD00000081084083
:10074000008308400080084000A1064000020840E5
:10075000C943C167BFF34F8F70470029016902D0B9
:100760000122114301E049084900016170478030CE
:1007700000697047C26F406F0A400840002A03D0EA
:10078000002801D00120704700207047002A426FE6
:1007900001D00A4300E08A4342677047F0B50C7805
:1007A000A200121815461346A032903594466206F0
:1007B0004033AE46120E03249440204DE443A84239
:1007C00002D001249440E4431C4E056D254005658C
:1007D000456D2540B0428E7902D1CF797F003E43EE
:1007E00096402E434665154FB84208D1C66E4D7AE5
:1007F00026400C7A6D002C4394403443C4661C6838
:10080000FF250835AC431C601C684D882C431C60D8
:100810004C8973461C608C8963461C60B84206D1C3
:100820000B79497949000B439340016D02E0036D58
:10083000097991400B430365F0BD000000C0024000
:10084000803001617047000010B502460B8880328D
:1008500093604B885360036803242404A34303601C
:10086000036801242406A343036003688C682343C0
:100870000360044B984201D10B79D3608989816769
:1008800010BD000000C0024070B5254C202120465C
:1008900000F0B4F8002819D0204600F0FFF8C3B2E9
:1008A000204802681188204D491C2D6889062D8832
:1008B000890E8D4205D015881C4A12685355006870
:1008C00001802021204600F095F870BD802120464F
:1008D00000F094F80028F8D0154E306800881549CB
:1008E00009680D5C0221204600F084F82946204664
:1008F00000F0D7F831680888401C8006800E088018
:100900000D48026812880B889A42DED100220A80C4
:10091000006802800221204600F0B8F870BD000097
:1009200000100040480000204C000020580000202B
:10093000540000205C0000205000002070B5264EBE
:100940002021304600F05AF800281AD0234D28689C
:100950000088401C8406A40E304600F09FF8C1B207
:100960001F4800680088A04206D0286800881D4AF9
:1009700012681154286804802021304600F03AF8AB
:1009800070BD80213446304600F038F80028F7D09A
:10099000154E30680088154909680D5C0221204613
:1009A00000F028F82946204600F07BF831680888D6
:1009B000401C8006800E08800D48026812880B8853
:1009C0009A42DDD100220A8000680280022120467E
:1009D00000F05CF870BD00000000044060000020E2
:1009E00064000020700000206C00002074000020D3
:1009F0006800002002690A400261704700690840EF
:100A000000D001207047000070B504460D46C8882C
:100A10008988626808432989184B1A4011430843A2
:100A200069890843606001208007844206D118204C
:100A3000FFF7BCFC2968FFF77FFB60621048844227
:100A400006D11A20FFF7B2FC2968FFF775FB606238
:100A50000C48844206D11C20FFF7A8FC2968FFF748
:100A60006BFB60620848844206D11E20FFF79EFCA3
:100A70002968FFF761FB606270BD0000FCE0FFFFCA
:100A8000000004400010004000100440002AC2682A
:100A900001D00A4300E08A43C2607047006880B218
:100AA00070470160704710238B404168002A01D0D5
:100AB000194300E0994341607047000001090207B3
:100AC0000901120F012010B59040002906D010290D
:100AD00007D0202908D030290FD108E081B208487A
:100AE00007E081B2074804E081B2074801E081B223
:100AF0000648FFF7F6FC012800D0002010BD0000DA
:100B000000000B4000200B4000400B4000600B40F9
:100B100070B5064600070122000F82401A481B4BA1
:100B20001B4C1C4D01290CD03109090121D0102981
:100B300022D0202924D0302917D191B20022284672
:100B400011E03109090108D0102909D020290DD060
:100B500030290AD191B20122F1E791B2012202E0DB
:100B600091B201220AE0FFF7C1FC70BD91B20122EF
:100B700008E091B20022F6E791B200221846F2E7AF
:100B800091B200222046EEE700000B4000200B400F
:100B900000400B4000600B40C106C90E0120884098
:100BA000014908607047000000E100E0F0B5002452
:100BB0000F2589B02D04254E601FFFF719FD244F26
:100BC0007D2189013868FFF7B7FAFFF73BFD012067
:100BD000FFF72CFD63210123324649022846FFF727
:100BE000FFFB1C4D2C706C702C71601E69460294CA
:100BF0000880194848803014184E88813046FFF725
:100C000023FE1748694628614988491C41433868D2
:100C1000FFF792FA0322694668614A8201220A7547
:100C20008C750C74488304A93046FFF7B7FD012288
:100C300011463046FFF7AAFD0C20FFF7ADFF01215A
:100C40003046FFF78AFD09B0F0BD00004001000109
:100C50007800002008000020CF07000000E00640D8
:100C60001027000010B504460020FFF7CDFC01203E
:100C7000FFF7CAFC05498C6088680028FCD1801EFB
:100C8000FFF7C2FC0020FFF7BFFC10BD08000020EA
:100C900070B50C460207120F012191408EB2010976
:100CA000090106D0102909D020291FD030290BD1E5
:100CB00021E001222D4D3146002003E001222C4D80
:100CC00031461046FFF7F2FA042C44D018DC002C11
:100CD00029D0012C2ED0022C32D0032C22D100227C
:100CE00031462846FFF7D0FB01222FE00122214D9B
:100CF00031460220E6E701221F4D31460320E1E79D
:100D0000052C28D0092C0DD0112C01D0122C09D182
:100D1000002231462846FFF7B7FB0122314628461C
:100D2000FFF7BAFB70BD002231462846FFF7ACFB47
:100D300002220BE0012231462846FFF7A5FB70BDD9
:100D4000002231462846FFF79FFB00223146284605
:100D5000FFF7B2FBE1E7012231462846FFF794FB9B
:100D6000012231462846FFF79FFBD6E700000B40E3
:100D700000200B4000400B4000600B40C18A028BFA
:100D8000914202D10020C0437047028B01461E31C0
:100D9000515C028B521C9206920E028308467047E9
:100DA00010B50023062200F001F810BDFFB504467F
:100DB00083B0002020752046163022690290801CE6
:100DC000871C061D01903E49801D25465E3500901A
:100DD0008A4234D13B480299016001998760C6601C
:100DE0004160009945610161062210210220FFF750
:100DF0005DFA062220210220FFF758FA30480499B4
:100E00000160FF21013181800021C1800181418188
:100E100001462D48FFF7F8FD012211462A48FFF749
:100E200035FE012200212848FFF73DFE0122114630
:100E30002548FFF738FE012124484906016024486F
:100E40002169814234D11F48029981610199076269
:100E50004662C1610099C5628162062210210020AC
:100E6000FFF724FA062220210020FFF71FFA184876
:100E700004990160FF21013181800021C18001813D
:100E80004181144D01462846FFF7BEFD012211465F
:100E90002846FFF7FBFD012200212846FFF703FE4D
:100EA000012211462846FFF7FEFD0848A90101600E
:100EB0000020A08360832083E08207B0F0BD0000A3
:100EC00068010020480000200010004000E100E020
:100ED000740100200000044010B504460120207574
:100EE000608B638B401C8006800E22465E329954D4
:100EF000618BA28B6083914211D10A49206988429B
:100F000004D1012202210848FFF7C0FD07492069EA
:100F1000884204D1012202210548FFF7B7FD0120D4
:100F200010BD000068010020001000407401002086
:100F300000000440C18A008B081A8006800E7047AA
:100F4000002242607D22D2008260024A026001617A
:100F500070470000601F00001CB5044610A0006828
:100F6000019010A000680090072900D90721802A6D
:100F700000D980220720411AB02001436B46197125
:100F8000212018705A707F209870012201A92046F4
:100F900000F00AF803226946204600F005F81CBD5F
:100FA000B000000021007F0070B50D4606461446D3
:100FB00000212F20FFF7ACFD06E02978304600F035
:100FC00053F9641EE4B26D1C002CF6D170BDF8B567
:100FD000002706463D460097002229463046FFF787
:100FE000BBFF002401226946304600F0C3F8641CB0
:100FF000E4B2802CF6D36D1CEDB2082DECD3B7749F
:10100000F7743775F8BD000010B586B0417404461A
:1010100001211620FFF73CFE01212F20FFF738FEAB
:1010200001211820FFF734FE01211720FFF730FEC1
:1010300001212E20FFF72CFE00212E20FFF768FD56
:1010400000212F20FFF764FD00211620FFF760FD2F
:101050001420FFF707FE01211620FFF759FD142089
:10106000FFF700FE182207A16846FFF77BF817225A
:1010700069462046FFF798FF2046FFF7A8FF06B015
:1010800010BD0000AE00104081CFA1A6A83FD30044
:10109000D580D9F1DA12DB408D14AF00F8B50F46D8
:1010A0000446417C0126007D0025002910D000283F
:1010B00000D02575202F42D3E27C782A35D8A17C38
:1010C0003B46204600F06AF8E07C0830E0744CE0D3
:1010D000002800D02575202F0AD3E27C782A0AD870
:1010E000A17C3B46204600F099F8E07C801DE0742E
:1010F0000A2F12D039E0A07C401CC0B2A07408288E
:1011000000D3A5742A46E574EAE7A17C2023204693
:1011100000F084F8E07C801DE074E27C782AF4D949
:10112000A07C401C1BE0A5741DE0A07C801CC0B20C
:10113000A074082800D3A5742A46E574BFE70A2FD7
:1011400008D012E0A17C2023204600F027F8E07CA4
:101150000830E074E27C782AF4D9A07C801CC0B20C
:10116000A0740828DFD2E57426750120F8BD8174CB
:10117000C274704770B50D460646144601212F20F3
:10118000FFF7C6FC06E02978304600F06DF8641ED3
:10119000E4B26D1C002CF6D170BD0000FFB581B02B
:1011A0000F46072900D907270398802801D98020F6
:1011B000039018462038622800D32E231C01FF3CE0
:1011C000FF3C3946023C039A0198FFF7C5FE012116
:1011D0002F20FFF79DFC104E0025315D641C019807
:1011E00000F042F86D1CEDB2082DF6D37F1CF9B269
:1011F000039A0198FFF7B0FE01212F20FFF788FC2A
:101200000025315D641C019800F02EF86D1CEDB2D4
:10121000082DF6D305B0F0BD68190000F8B50746F3
:10122000072900D90721802A00D9802218462038B2
:10123000622800D32E230620203B43431C46384619
:10124000FFF78AFE01212F20FFF762FC054E0025E3
:10125000315D3846641C00F007F86D1CEDB2062DB8
:10126000F6D3F8BD1C17000070B50D460824002108
:101270001820FFF74DFC11E0280601D5012100E000
:1012800000211720FFF744FC01211820FFF740FC44
:1012900000211820FFF73CFC6806050E2046641E5E
:1012A000E4B20028E8D170BD002242607D22D20065
:1012B0008260024A0260017470470000841F0000CF
:1012C000704710B500F001F810BD70B505460C0070
:1012D00009D00846FEF766FF0246286821464368A3
:1012E0002846984770BD002070BDF8B515460C46DD
:1012F0000746002608E03868217802683846641CF2
:101300009047002802D0761C6D1EF4D23046F8BDFE
:1013100070B50546FFF7D5FF0446284600F002F8F1
:10132000001970BD10B502A1FFF7CFFF10BD00007E
:101330000D0A000030B47446641E2578641CAB426C
:1013400000D21D46635D5B00E31830BC1847000007
:1013500030B5002805D0164C021F20680023014636
:1013600005E0084630BD904203D803464068002897
:10137000F9D1002B00D05968002B0AD01C68D51A6F
:10138000A54204D11268A4181A461C6002E05A60F3
:1013900000E02260002807D01468851AA54203D116
:1013A00005686419146040685060184630BD00003C
:1013B0007C000020F1B50E4C0F480C4E001B0D4F69
:1013C000C508ED0000221146009800F049F80028F9
:1013D00003D13068002801D00020F8BD3C60002017
:1013E0002560606001203060ECE700008000002094
:1013F000140300207C0000201003002002E008C835
:10140000121F08C1002AFAD170477047002001E07E
:1014100001C1121F002AFBD17047000010B5054919
:101420000548FFF78DFD04480449A030FFF788FD0B
:1014300010BD000068010020D001002074010020D0
:1014400010B500210348FFF72FFF034A0349FEF7B9
:10145000C1FE10BD8800002000000000C112000085
:10146000F8B50B30C608F600104D19E02068B04200
:1014700015D3B0420BD96368871B201D0093FEF77C
:1014800071FEA019009B07604360286004E060685B
:101490002860201DFEF766FE201D2660F8BD251D74
:1014A0002C68002CE2D10020F8BD00007C00002058
:1014B000FFF77CFB01218548FFF7A6FD8348FFF776
:1014C00086FD83A18148FFF723FF02212020FFF73B
:1014D000DFFB02212A20FFF7DBFB01211F20FFF7A2
:1014E000D7FB01212B20FFF7D3FB00212B20FFF797
:1014F0000FFB00211F20FFF70BFB4B24E4012146CB
:101500007648FFF74DFC21467548FFF749FC00255A
:10151000744C6E4EA570E5701836257137466571AE
:1015200064370A20FFF79EFB2020FFF7C7FA002848
:1015300009D0012020702A20FFF7C0FA002838D0F7
:101540000120607076E020780128F4D12570002217
:1015500002215E48FFF70BFE63A15C48FFF7D8FE4F
:1015600000212B20FFF7D4FA01211F20FFF7D0FA2A
:1015700060A15A48FFF7A9FE5FA15848FFF7A5FEF2
:101580005EA15648FFF7A1FE5DA15448FFF799FE02
:1015900058A15348FFF799FE57A15148FFF795FE10
:1015A00056A14F48FFF791FE56A14D48FFF789FE1F
:1015B000C1E7607801283DD16570002202214348CF
:1015C000FFF7D5FD50A14148FFF7A2FE00211F20E3
:1015D000FFF79EFA01212B20FFF79AFA45A13F4819
:1015E000FFF773FE44A13D48FFF76FFE43A13B4860
:1015F000FFF76BFE47A13948FFF763FE3DA138486E
:10160000FFF763FE3CA13648FFF75FFE3BA134487D
:10161000FFF75BFE40A13248FFF753FE0AE00121CD
:101620002B20FFF775FA2D48FFF7A8FBA17870541F
:10163000491CA1702948FFF77DFC0028EFDCA07849
:10164000002822D0E178814201D0E0701DE0002224
:1016500004211E48FFF78BFDA0781C493554183132
:101660001A48FFF755FEA570E57000212B20FFF703
:101670004FFA0AE001212B20FFF74AFA1848FFF73A
:101680007DFB21797854491C21711548FFF752FCE4
:101690000028EFDC2079002800D142E761798142FF
:1016A00001D060713DE7002206210848FFF75FFD89
:1016B000207906493D547C310448FFF729FE257105
:1016C000657100212B20FFF723FA2AE7880000200C
:1016D00053657269616C205465737400D0010020F9
:1016E000700200200000002054583A4142432F4429
:1016F0004546000061000000620000006300000039
:10170000414243004445460054583A3132332F3465
:101710003536000031323300343536000000000029
:1017200000000000FA00000000E000E0000028FED9
:1017300028FE28002454FE544800C4C81026460041
:101740006C926A040A000010E0C000000038448275
:1017500000000082443800005438FE385400101055
:101760007C10100000021C18000010101010100057
:101770000000060600000408102040007C8A92A2A7
:101780007C000042FE02000042868A92620084824F
:1017900092B2CC00182848FE0800E4A2A2A29C0045
:1017A0003C5292920C0082848890E0006C9292925B
:1017B0006C00609292947800000028000000000005
:1017C000022C000000102844820028282828280025
:1017D00000824428100040808A9060007C82BA9A7F
:1017E00072003E4888483E00FE9292926C007C82D5
:1017F00082824400FE8282827C00FE92929282006B
:10180000FE90909080007C8292925E00FE101010FC
:10181000FE000082FE820000040282FC8000FE10B6
:1018200028448200FE0202020200FE403840FE0010
:10183000FE201008FE007C8282827C00FE90909048
:1018400060007C828A847A00FE90989462006492A0
:1018500092924C008080FE808000FC020202FC001C
:10186000F8040204F800FC021C02FC00C628102840
:10187000C600C0201E20C000868A92A2C20000FEC0
:101880008282820040201008040000828282FE00D2
:1018900020408040200001010101010000C0E01053
:1018A0000000042A2A2A1E00FE1422221C001C22E8
:1018B000222214001C222214FE001C2A2A2A1800AC
:1018C00000107E904000182525253E00FE102020A7
:1018D0001E000022BE02000000040202BC0000FE46
:1018E000081422000082FE0200003E201E201E007E
:1018F0003E1020201E001C2222221C003F182424FF
:101900001800182424183F003E1020201000122A2E
:101910002A2A24002020FC2224003C0202043E004B
:101920003804020438003C020C023C002214081463
:101930002200320909093E0022262A322200001024
:101940006C8200000000EE00000000826C100000BD
:101950004080402040000060909060000000FE82C7
:101960008282828282FE00000000000000000000EF
:10197000000000000000000000000E1F1F0E00000D
:10198000000000B0B0000000001C1C00001C1C0087
:10199000000000000000000000041F1F041F1F04BF
:1019A0000040F0F040F0F040000C1E737118080089
:1019B0000020301C9CF06000183C243D1B060C00ED
:1019C0000060C0B078487830000D1F121E0C000077
:1019D00000E0F01090E0F0900000001C1C000000FF
:1019E00000000000000000000000030F1C100000B9
:1019F0000000E0F81C0400000000101C0F030000B1
:101A00000000041CF8E000000001050703070501C1
:101A1000000040C080C04000000101070701010034
:101A2000000000C0C0000000000000000000000036
:101A3000000000343C3800000001010101010100F8
:101A40000000000000000000000000000000000096
:101A5000000000303030000000000001071E1800B8
:101A6000001878E08000000000000F1F10161F0F04
:101A70000000E0F0D010F0E00004040C1F1F000094
:101A800000000000F0F00000000C1C10111F0E0000
:101A9000003070D090101000000C1C11111F0E00AF
:101AA0000060701010F0E00000001F1F000707002A
:101AB00000C0C04040F0F040001F1F111111100085
:101AC0000010101030E0C0000003071E1A130100C0
:101AD00000E0F01010F0E00000101011171E1800C8
:101AE000000070F080000000000E1F13111F0E0098
:101AF00000E0F01090F0E000000F1F10101F0F002A
:101B0000000090B0F0C08000000000060606000053
:101B10000000003030300000000000060606000023
:101B2000000000343C380000000103060C181000CF
:101B3000000080C0603010000002020202020200B9
:101B400000808080808080000010180C0603010057
:101B500000103060C0800000000C1C11131E0C002F
:101B6000000000B0B00000000F1F101113121F0F73
:101B7000E0F01090D050D0D000070F18180F0700D9
:101B800000F0F08080F0F000001F1F11111F0E0008
:101B900000F0F01010F0E000000F1F10101C0C00FF
:101BA00000E0F01010706000001F1F10180F0700F9
:101BB00000F0F01030E0C000001F1F1111111000E4
:101BC00000F0F01010101000001F1F111111100074
:101BD00000F0F00000000000000F1F10101C0C00AF
:101BE00000E0F01090F0F000001F1F01011F1F0027
:101BF00000F0F00000F0F0000000101F1F100000C7
:101C0000000010F0F010000000000000001F1F0096
:101C10000060701010F0E000001F1F01071E180088
:101C200000F0F000C0F03000001F1F0000000000B6
:101C300000F0F01010101000001F1F0403041F1FFD
:101C400000F0F0008000F0F0001F1F0603011F1FCE
:101C500000F0F0000080F0F0000F1F10101F0F00C8
:101C600000E0F01010F0E000001F1F11111F0E0027
:101C700000F0F00000000000000F1F10101F0F0008
:101C800000E0F01018FCE400001F1F11111F0E00EF
:101C900000F0F00080F07000000C1E131118080016
:101CA0000020301090F060000010101F1F10100076
:101CB000000000F0F0000000001F1F00001F1F00C8
:101CC00000E0F01010F0E000001F1F00001F1F00D8
:101CD00000C0E03030E0C000001F1F0003001F1FE5
:101CE0000080F0708070F08000181C07031C180042
:101CF0000070F00080F07000001E1F01011F1E0028
:101D0000000000F0F000000000101011131E1C0075
:101D10000070F0901010100000001F1F1010000045
:101D20000000FEFE0202000000181E070100000075
:101D300000000080E0781800000010101F1F000055
:101D400000000202FEFE0000001030606030100053
:101D50000000000000000000000000000000000083
:101D60000202020202020202000040607010000043
:101D7000000000000000000000000404040703004D
:101D80000060F09090F0F000001F1F0404070300B3
:101D900000F0F01010F0E000000307040406020059
:101DA00000E0F0101030200000030704041F1F00A3
:101DB00000E0F01010F0F000000307040407030037
:101DC00000E0F0909090800000010F1F11111100B1
:101DD0000000F0F000000000000307040407070003
:101DE00000E2F21212FEFC00001F1F0404070300B1
:101DF00000F0F00000F0F0000004043737000000AD
:101E0000001010F0F010100000000404373700003C
:101E100000020202FEFC0000001F1F000107060076
:101E200000F0F080C07030000010101F1F00000094
:101E3000001010F0F010100000070704070407035B
:101E400000F0F000E000F0F00007070404070300D2
:101E500000F0F00000F0F0000003070404070300A6
:101E600000E0F01010F0E000000707040407030092
:101E700000FEFE1010F0E000000307040407070056
:101E800000E0F01010FEFE00000707010206060049
:101E900000F0F00000000000000307040404040048
:101EA0000010909090F0600000041F1F04040400D4
:101EB0000000E0F010101000000707000007070006
:101EC00000E0F01010F0F000000707000007070026
:101ED00000C0E03030E0C000000707000300070743
:101EE00000C0F030C030F0C0000607010107060056
:101EF000003070C0C0703000000707000007070006
:101F000002E2F2161CF8E0000004040405070600D3
:101F1000003070D0901010000000010F1E10000063
:101F20000080C0783C0400000000001F1F0000007B
:101F3000000000FEFE0000000000101E0F01000067
:101F40000000043C78C080000C1810180C040C1819
:101F50000000000000000000000000000000000081
:101F6000D90E0000EB12000000000000000000008D
:101F7000350F00007D0D0000000000000000000093
:101F8000000000009D100000EB12000000000000A7
:101F90000000000000000000000000000000000041
:101FA000C81F00000000002088000000FC13000093
:101FB0005020000088000020880400000C1400005D
:101FC00081F4FFFF59F4FFFF000000000000000053
:101FD0000000000000000000000000000000000001
:101FE00000000000000000000000000000000000F1
:101FF00000000000000000000000000000000000E1
:1020000000000000000000000000000000000000D0
:1020100000000000000000000000000000000000C0
:1020200000000000000000000000000000000000B0
:1020300000000000000000000000000000000000A0
:10204000006CDC0200000000000000000000000046
:04000005000000C136
:00000001FF
