:020000040000FA
:1000000078040020C10000009B0D0000990D000045
:10001000FFFFFFFFFFFFFFFFFFFFFFFFFFFFFFFFF0
:10002000FFFFFFFFFFFFFFFFFFFFFFFF9F0D000030
:10003000FFFFFFFFFFFFFFFF9D0D0000010E00000F
:1000400003010000030100000301000003010000A0
:100050007D0B0000850B00008D0B000003010000EC
:100060003D090000FFFFFFFF030100000301000046
:10007000A90C00000301000003010000FFFFFFFFC7
:10008000FFFFFFFF03010000030100000301000068
:10009000030100000301000003010000391000000B
:1000A000DD10000003010000030100000301000057
:1000B0000301000003010000030100000301000030
:1000C0001048804710488047104800471048016991
:1000D000002910D1416900290DD1816900290AD177
:1000E000C169002907D1BFF34F8F0A490A48C86088
:1000F000BFF34F8FFEE77047FEE7FEE7FEE7FEE740
:10010000FEE7FEE7CD000000210E00001D0100000B
:100110000003084000ED00E00400FA0505488546AC
:1001200000F0ECFB00F046F800480047F92500001D
:1001300000F022FB7804002030B50B460146002079
:100140002022012409E00D46D5409D4205D31D46DD
:100150009540491B2546954040191546521E002DD5
:10016000F1DC30BD10B5431A934209D283188818C8
:1001700003E0401E01785B1E1970521EF9D210BDBB
:1001800003460B439B0703D009E008C9121F08C0B0
:10019000042AFAD203E00B780370401C491C521E5B
:1001A000F9D210BD421C0178401C0029FBD1801AF5
:1001B0007047000070B5054C054D03E0206800193C
:1001C0008047241DAC42F9D170BD0000A030000072
:1001D000A8300000F8B5074615460E46102002F07C
:1001E00085F9040009D06760A660E56000F0C0FAF8
:1001F0000168216004600020F8BD0120F8BD0246BE
:1002000070B54A40D30FDB0740002DD04A002AD0FA
:10021000010E140E000212020919400A520A841833
:10022000E50104465443000A120A2E045043A4195F
:100230004219200CC543AA18120C0125AD03521C0B
:10024000521912047F39240400D0521C104301D4E7
:100250004000491EC2B20C06C0092018401C4008CC
:10026000802A02D003E0002070BD40084000002931
:1002700000DA0020184370BDF0B507460846584024
:1002800087B0C00F049048000E4659004008490846
:10029000BC1A884105D2384631461E4617460B46E1
:1002A00002465800400810434CD0300D03904005E2
:1002B0005900400D490D0590401A0290402872DA0D
:1002C00018030121000B09050843019004980092CE
:1002D000002805D0019952420020884100920190E7
:1002E000029840210A1A0199009800F00DFA05467B
:1002F0000C466B4607CB00F028FAC0197141039AEF
:100300000E0D0023D71756401A467A40164344D0A4
:10031000049A002A2DD0029A012A039A15DC1205AC
:10032000C01A914101263605001C7141D20F059E6D
:10033000D2070093019202962A46234600F08BFAD8
:1003400007B0F0BD38463146FAE71605224A0F4697
:10035000B218C01AB74101210905001C4F4100180D
:100360007F41114618187941E20F10436D1964411D
:1003700013E0E2076D0815436408C2071443039AAB
:1003800001261205C01A91413605001C7141CE07A5
:10039000400830434908C01851412A46234600F01E
:1003A0004DFACDE7FFE7049801224000C117121A69
:1003B00000238B4104983146C417381AA141EEE757
:1003C00030B40124E407634030BC55E730B4012465
:1003D000E407614030BC4FE70000E0FFF0B51FB418
:1003E00088B00B990998002448400999C00F49002A
:1003F00049080991C0070B990090490049080B91E1
:1004000009990898A64608431CD00B990A980843F6
:1004100018D0099801244000420D4800410D099868
:1004200024050003000B204309900B980003000BE8
:1004300020430B9050181C4940180022019014468C
:10044000104605E0002001460DB0F0BD032801DA9A
:10045000034600E003239C46C11A0AAE0AE05F008F
:1004600008ADED5B4F00F75B7D430027AA187C4188
:10047000491C5B1E6145F2DD410004AB5A52210468
:10048000120C0A43240C401C0828DFDB0198029060
:100490000099704601910090059B049A079906986F
:1004A00000F0D9F9D0E700000DFCFFFFF0B50C46D5
:1004B0005C4085B0E40FE40703944C000026640818
:1004C00059009446490802460296224321D06246CA
:1004D0000A431ED06200570D4A000E032303550D38
:1004E000012402462C492405781B1B0B360B4018AF
:1004F00023432643614600901C46501AB44103D35F
:100500000098401C009002E0921800985B4100287F
:1005100003DA0020014605B0F0BD002001210905E5
:100520000746864611E064461D46141BB54106D3B6
:100530006546521BB341744607430C43A646CD079C
:1005400040084908284392185B4105460D43EAD10B
:100550001046184313D06046194650407140084376
:1005600006D06046101AB34106D20122002306E0ED
:1005700000220123DB0702E00122D243531000983E
:1005800074460105381C6141029C039D00196941B4
:1005900000F054F9BFE70000FD03000070B54B0008
:1005A0005B0803430BD04B005C0D002633466542CD
:1005B000B341D417AD1AA34102DB0020014670BD40
:1005C00012053018514170BD10B500229623114616
:1005D00000F0FBF810BD00000EB5C217C10F50406F
:1005E000CA0740180021054B0293019200910A4668
:1005F0000B4600F030F903B000BD000033040000EA
:100600000EB505490291002100910A460B46019161
:1006100000F021F903B000BD330400004A000903D3
:100620000123090B1B051943094B10B5520D9A42C2
:1006300001DA002010BD064B34339A4203DC9A1ACB
:1006400000F072F810BD03495118884010BD000039
:10065000FF030000CDFBFFFFC20FD20740004008A0
:100660000BD0C10D0723DB01C91840020905400A60
:100670001143C208400711437047002001467047EC
:1006800010B5002904DB0124E40740428C412146D7
:10069000002B04DB1C460123DB075242A3418B42A3
:1006A00000D1824210BD000010B5002904DB0124F6
:1006B000E40740428C412146002B04DB1C46012309
:1006C000DB075242A341994200D1904210BD000085
:1006D000CB0FDB07490010B5490802460A4307D093
:1006E0000A0D07240903E401090B121B002A01DC8F
:1006F000002010BDC900440F0C43C100E018D20512
:10070000801800F05AF810BD10B5202A04DB01460D
:10071000203A9140002010BD914020239C1A0346AE
:10072000E3401943904010BD10B5202A04DB084671
:10073000203AD040002110BD0B46D340D0402024A9
:10074000A21A91400843194610BD10B5202A06DBB5
:10075000CB170846203A1041C1170B4306E00B4661
:100760001341D0402024A21A91400843194610BDDD
:1007700000487047B0000020F8B50646FFF7F8FFC4
:100780000090054615E0002E02D0E068B0420FD17F
:10079000206828600098A16807686068884720463C
:1007A00001F072FE00980068B84202D00098E8E7B5
:1007B00025462C68002CE6D1F8BD002904DA401C3F
:1007C000490001D140084000704770B40024050C76
:1007D00005D11024000402D1002921D01124050ED6
:1007E00001D100020834050F01D10001241D850F3D
:1007F00001D18000A41C002801DB4000641C0029FA
:1008000008D020252E1B0D46F540A14000D0012127
:100810002943084301061B1B000ADB1D02D50020EB
:1008200070BC7047DB05181880180029F8DA401CE6
:100830004900F5D170BC40084000704710B5002B4E
:1008400008DA0024401C614192185B411A4301D12F
:100850004008400010BDF0B51FB482B005460C0042
:1008600003D0084601F0ECFD02E001F0E9FD203084
:100870000246009021462846FFF746FF049B059A52
:1008800004460F4618431143084314D0184610433A
:100890001BD0009840210A1A18460599FFF744FF1B
:1008A00005460E46009A05990498FFF72DFF084368
:1008B00005D0012004E02046394607B0F0BD0020F5
:1008C000C11705430E432C43374300990E98630527
:1008D000401A7905E40A00220C43FD0A0A3002D5C9
:1008E00000200146E9E70105101969410C9C0D9DA6
:1008F00000196941FFF7A2FFDFE70000064C012560
:10090000064E05E0E36807CC2B430C3C98471034B7
:10091000B442F7D3FFF706FC80300000A03000009F
:1009200070478030C160704780220029016801D083
:10093000114300E0914301607047000010B5084C7E
:1009400001212046FFF7EDFF206B064900050978DD
:10095000000D054A4900505204490120087010BD9D
:10096000000001402E000020F40000202F00002095
:100970008030002A026801D00A4300E08A43026006
:100980007047930810B59B00181843689207D20E61
:100990001F249440A34391400B43436010BD5B1E52
:1009A00012021B04FF3A013A13430B4301688022F1
:1009B00011400B43036070470A06120F026741673C
:1009C0007047016270470029416F02D00122114334
:1009D00001E04908490041677047000010B5002256
:1009E000072802D901220838C0B29300054A9A1894
:1009F000136880000F248440A34381401943116091
:100A000010BD000000200240F0B596460A4613498A
:100A1000C000461800230025FF2098402C461042B5
:100A200016D00020012199408C461146C1406746EE
:100A3000394206D087000F21B9400D437146B940B5
:100A40000C43401C0828F0D33068A8432043306092
:100A50000833361D082BDEDDF0BD000020200240EB
:100A600070B5184D0446686B4607760F00F02EF8F7
:100A700015492060330001F0FAFC0814050707143B
:100A8000140E1114606000E06160296A6068052935
:100A900009D3400908E00120C003F3E77D200002EC
:100AA000F0E70020EEE7C840A060A96A4903490FBB
:100AB000072902D0C840E06070BD0321FFF73CFB6E
:100AC000F9E700000080084000127A000C4908682D
:100AD000C869C20F4868400AC007C00F0ED0094855
:100AE000002A0BD18869C00D0007000F00D110202B
:100AF0008969044A4902890F5043C8407047000081
:100B00000080084000127A001FB541090A4A890096
:100B10008A1800212E2800D10221C006C00E1268BA
:100B2000032383401A40C24054186846FFF798FFD9
:100B3000029804B0E04010BD38800840F0B5084F7E
:100B40007C6AFD6A3E6B84438D439643002B02D042
:100B500004430D4316437C62FD623E63F0BD00001A
:100B60000080084004498A6A07231B049A43000452
:100B700002438A62704700000080084010B500F010
:100B800009F810BD10B500F005F810BD10B500F063
:100B900001F810BD70B500240B4D0C4E10E0600044
:100BA000285A00F01FF8002808D00949A00008586A
:100BB00080476000285A00F00DF870BD641CE4B254
:100BC00030788442EBD370BD040100203000002057
:100BD000140100200121814001484160816070477B
:100BE000404002400449496801228240114201D03C
:100BF0000120704700207047404002400179027A8E
:100C0000C90712071143C28800681143024A8000D5
:100C10008018016070470000004002400122054B2F
:100C200082401868012902D0904318607047104331
:100C3000FBE7000040400240002A026801D00A435E
:100C400000E08A4302607047002A426801D00A43EC
:100C500000E08A4342607047002A026901D00A43DB
:100C600000E08A4302617047002A08D0012A09D0B7
:100C700082688A438260C2688A43C2607047826821
:100C80000A43F7E7C2680A43C26082688A43826007
:100C90007047C069084000D001207047002A01D089
:100CA0004162704781627047F8B501212F4800F01A
:100CB00039F9002859D02E4F3878401C387000245C
:100CC0002C4E2D4D3EE02D48005D39788842305D38
:100CD00018D8002806D0102808D020280AD030289C
:100CE0002ED10BE06000295A002217E06000295A3B
:100CF000002218E06000295A002219E06000295AF9
:100D000000221AE0002806D0102809D020280CD094
:100D1000302815D10EE06000295A012218480DE054
:100D20006000295A0122174808E06000295A012270
:100D3000154803E06000295A01221448FFF7AEFF6E
:100D4000641CE4B2124800788442BCD3074C0121F1
:100D5000204600F0D5F8204600F0E1F80D4909885A
:100D6000401881B2204600F043F9F8BD00E006408B
:100D7000280000204C000020E40000204400002057
:100D800000000B4000200B4000400B4000600B4077
:100D90002C00002040000020FEE77047704770479D
:100DA000042204490428086902D09043086170476E
:100DB0001043FBE700E000E00749002806D00128C7
:100DC000086906D04008400008617047002088612B
:100DD000704701221043F7E700E000E004490222D7
:100DE0000028086901D0104300E090430861704773
:100DF00000E000E0014948617047000000E000E0C9
:100E000005480168002902D00168491E01600348B5
:100E10000168491C01607047340000203800002040
:100E2000F0B532481027C7603149012008603148C9
:100E3000016B4024214301632F498A68272AFCD192
:100E4000416A032292029143416241680122D20227
:100E5000114341608168C908C907FBD04168C908CE
:100E6000C900C91C4160416B4907490F0329FAD1E8
:100E7000224B1968C908C900491C19600025056280
:100E8000426859158A43426006684A101643066054
:100E9000066BA6430663046814430460032212062B
:100EA000826142680A43426081684908C907FBD0F1
:100EB0001968C908C900891C196005624168C90818
:100EC000C900491C4160416B4907490F0129FAD10A
:100ED0001968394319601968012212031143196016
:100EE0004168921091434160F0BD000000810840CC
:100EF000008308400080084000A10640000208402E
:100F0000C943C167BFF34F8F70470029016902D001
:100F10000122114301E04908490001617047803016
:100F200000697047C26F406F0A400840002A03D032
:100F3000002801D00120704700207047002A426F2E
:100F400001D00A4300E08A4342677047F0B50C784D
:100F5000A200121815461346A03290359446620638
:100F60004033AE46120E03249440204DE443A84281
:100F700002D001249440E4431C4E056D25400565D4
:100F8000456D2540B0428E7902D1CF797F003E4336
:100F900096402E434665154FB84208D1C66E4D7A2D
:100FA00026400C7A6D002C4394403443C4661C6880
:100FB000FF250835AC431C601C684D882C431C6021
:100FC0004C8973461C608C8963461C60B84206D10C
:100FD0000B79497949000B439340016D02E0036DA1
:100FE000097991400B430365F0BD000000C0024049
:100FF000803001617047000010B502460B888032D6
:1010000093604B885360036803242404A343036064
:10101000036801242406A343036003688C68234308
:101020000360044B984201D10B79D36089898167B1
:1010300010BD000000C0024070B520214C062046C3
:1010400000F0A6F8002819D0204600F0F1F8C3B24D
:101050001C48026811881C4D491C2D6889062D8882
:10106000890E8D4205D01588184A126853550068BC
:1010700001802021204600F087F870BD80212046A5
:1010800000F086F80028F8D0114D28680088114932
:101090000968095C204600F0CEF829680888401CE1
:1010A0008006800E08800C48026812880B889A42DD
:1010B000E3D100220A80006802800221204600F06D
:1010C000AFF870BD7400002078000020840000207C
:1010D00080000020880000207C00002070B5234E96
:1010E0002021304600F054F800281AD0204D2868FE
:1010F0000088401C8406A40E304600F099F8C1B266
:101100001C4800680088A04206D0286800881A4A57
:1011100012681154286804802021304600F034F809
:1011200070BD80213446304600F032F80028F7D0F8
:10113000124D2868008812490968095C204600F0B1
:101140007AF829680888401C8006800E08800D48BF
:10115000026812880B889A42E2D100220A80006855
:1011600002800221204600F05BF870BD00000440C0
:101170008C000020900000209C000020980000209F
:10118000A00000209400002002690A40026170471C
:101190000069084000D001207047000070B5044687
:1011A0000D46C8888988626808432989184B1A4007
:1011B0001143084369890843606001208007844225
:1011C00006D11820FFF7A0FC2968FEF7B5FF606282
:1011D0001048844206D11A20FFF796FC2968FEF7D2
:1011E000ABFF60620C48844206D11C20FFF78CFCE8
:1011F0002968FEF7A1FF60620848844206D11E20DC
:10120000FFF782FC2968FEF797FF606270BD00005F
:10121000FCE0FFFF0000044000100040001004400C
:10122000002AC26801D00A4300E08A43C2607047C6
:10123000006880B270470160704710238B4041689E
:10124000002A01D0194300E099434160704710B56E
:1012500000F072F8801010BD010902070901120F99
:10126000012010B59040002906D0102907D0202970
:1012700008D030290FD108E081B2084807E081B2D8
:10128000074804E081B2074801E081B20648FFF751
:1012900000FD012800D0002010BD000000000B4020
:1012A00000200B4000400B4000600B4070B50D4625
:1012B00006461446AA211F4800F04CFDC7211D48D0
:1012C00000F048FDBB211B4800F044FD1E2000F04B
:1012D000DDFAAA21174800F03DFDC721154800F0AE
:1012E00039FD5A21134800F035FD3146114800F010
:1012F00005FD290A0F4800F02DFDE9B20D4800F068
:1013000029FD210A0B4800F025FDE1B2094800F053
:1013100021FDBB21074800F01DFD322000F0B6FA88
:1013200002E0044800F044FC024800F017FD0028E9
:10133000F7DC70BD34010020F8B58B4900250F465D
:101340000446283F2E46787837E04A5DA24232D1E3
:10135000BD70FE70052C25D006DC230001F087F857
:1013600005090C191C1F1100062C1ED0072C08D1D2
:101370001EE00022114601E0002201217B48FFF718
:1013800000FB01217948FFF71EFBF8780028FCD00C
:10139000D3E000220221F1E700220321EEE7002240
:1013A0000421EBE700220521E8E700220621E5E71A
:1013B00000220721E2E76D1CEDB28542C5D3082863
:1013C00019D2002C19D0012C17D0022C15D0032CC7
:1013D00013D0042C11D0052C0FD0062C0DD0072CC7
:1013E0000BD0102C09D0112C07D0602C05D0612C0B
:1013F00003D0622C01D00020F8BD0C54602C07D023
:10140000612C05D0622C03D00921204600F076FA29
:10141000052C33D006DC230001F029F8050D141B40
:1014200022294800062C30D0072C35D0602C3AD029
:10143000612C3BD139E0022201210020FFF7E4FAC0
:10144000002533E0022211460020FFF7DDFA0125D6
:101450002CE0022204210020FFF7D6FA022525E025
:10146000022208210020FFF7CFFA03251EE0022206
:1014700010210020FFF7C8FA042517E002222021DE
:101480000020FFF7C1FA052510E0022240210020CC
:10149000FFF7BAFA062509E0022280210020FFF7B3
:1014A000B3FA072502E0102500E011252E497878CF
:1014B00008310D5400281DD10720FFF753FB2B4D99
:1014C0000023012219462846FFF769FA1021284611
:1014D000FFF772FA24212846FFF773FA012211461A
:1014E0002846FFF745FA01212846FFF71DFA082094
:1014F00000F084F87878B870401C7870FE70052C85
:1015000029D006DC230000F0B2FF05090C1D2023C2
:101510001100062C22D0072C08D122E0002211460F
:1015200001E0002201211148FFF72BFA01210F48A9
:10153000FFF749FAF8780028FCD0B87841000C4849
:10154000405AF8BD00220221EDE700220321EAE71C
:1015500000220421E7E700220521E4E7002206211A
:10156000E1E700220721DEE75400002000000140EF
:10157000F400002070B5064600070122000F8240EB
:101580001A481B4B1B4C1C4D01290CD03109090179
:1015900021D0102922D0202924D0302917D191B26E
:1015A0000022284611E03109090108D0102909D08C
:1015B00020290DD030290AD191B20122F1E791B250
:1015C000012202E091B201220AE0FFF767FB70BD41
:1015D00091B2012208E091B20022F6E791B2002216
:1015E0001846F2E791B200222046EEE700000B40D9
:1015F00000200B4000400B4000600B40C106C90EAC
:1016000001208840014908607047000000E100E0C7
:10161000F7B5040705460027240F012084B0A04039
:1016200086B22809009701970297000106D010287A
:101630000CD0202824D0302811D129E000212046C8
:10164000FFF7CCF901223146002006E001212046B7
:10165000FFF7C4F9012231461046FFF7D5F9684675
:1016600000940771C78006980226113803270300EB
:1016700000F0FDFE0916191C2C2E3032373C1F00DD
:1016800002212046FFF7AAF9012231460220E4E7B1
:1016900003212046FFF7A2F9012231460320DCE7AF
:1016A0006846077205E06846067202E00420694653
:1016B00008726846FFF7A2FA01212046FFF7AEFA4A
:1016C000264E00203746383F39791FE0022104E0DA
:1016D000022107E002210AE00321284600F00EF96A
:1016E000DEE70321284600F009F9DCE7032128465C
:1016F00000F004F9DAE7325CAA4205D1820018480A
:101700000599815007B0F0BD401CC0B28842F2D3A9
:101710000829F7D2012C05D80421084600F022F848
:1017200004200CE0042C05D30421062000F01AF854
:10173000062004E00421052000F014F80520FFF73E
:101740005DFF3879064A35544100103A54528300FF
:1017500010320599D150401C3871D3E76400002045
:10176000140100208307FF22DB0E9A408907090E2F
:10177000994000280BDA0007000F08388308084852
:101780009B001818C36993430B43C36170478308D8
:1017900004489B001818036893430B430360704789
:1017A00000ED00E000E400E0002206E00021491C1A
:1017B00089B20929FBD3521C92B28242F6D37047F8
:1017C000F0B500240F2589B02D04254E601FFFF7CA
:1017D000E7FA244F7D2189013868FEF7ADFCFFF759
:1017E00009FB0120FFF7FAFAC3210123324609025F
:1017F0002846FFF7A3F91C4D2C706C702C71601EED
:10180000694602940880194848803014184E88812F
:101810003046FFF7F1FB1748694628614988491CA3
:1018200041433868FEF788FC0322694668614A82B2
:1018300001220A758C750C74488304A93046FFF7A1
:1018400085FB012211463046FFF778FB0C20FFF79D
:10185000D5FE01213046FFF758FB09B0F0BD00006E
:1018600040010001A40000202C000020CF07000050
:1018700000E006401027000003488169491C81618F
:101880004168491C416070470000002010B50446C3
:101890000020FFF791FA0120FFF78EFA05498C60CE
:1018A00088680028FCD1801EFFF786FA0020FFF729
:1018B00083FA10BD2C00002070B500257D262C4633
:1018C000F6000020FFF7C3FCA84200DD054601201A
:1018D000641CFFF7DBFFB442F3D32846FEF77CFE1F
:1018E0000022054BFEF77AFD0922D243FEF756FE91
:1018F000FEF7EEFE70BD00000000144070B50C460F
:101900000207120F012191408EB20109090106D090
:10191000102909D020291FD030290BD121E0012224
:101920002D4D3146002003E001222C4D314610465A
:10193000FFF76AF8042C44D018DC002C29D0012CC5
:101940002ED0022C32D0032C22D100223146284640
:10195000FFF772F901222FE00122214D31460220CA
:10196000E6E701221F4D31460320E1E7052C28D090
:10197000092C0DD0112C01D0122C09D10022314696
:101980002846FFF759F9012231462846FFF75CF94E
:1019900070BD002231462846FFF74EF902220BE0C7
:1019A000012231462846FFF747F970BD0022314633
:1019B0002846FFF741F9002231462846FFF754F93F
:1019C000E1E7012231462846FFF736F90122314688
:1019D0002846FFF741F9D6E700000B4000200B40F6
:1019E00000400B4000600B4070B50E4604461546A3
:1019F00000790121FFF7BEFD0520FFF7D5FE6079D4
:101A00000121FFF7B7FD0520FFF7CEFE2A4631463C
:101A1000204600F084F870BD10B501710446427193
:101A200008460521FFF76AFF20790121FFF7A2FD93
:101A300060790121FFF762FF60790121FFF79AFDCC
:101A40000449002048708870C8700871204600F072
:101A50004EF810BD6C000020F3B5044681B000259F
:101A600000790221FFF74AFF002601276079012152
:101A7000FFF780FD0520FFF797FE6806050E207929
:101A8000FFF7EAFB002800D03D4360790021FFF713
:101A900071FD0520FFF788FE761CF6B2082EE5D30F
:101AA00020790521FFF72AFF02980028207901D02C
:101AB000012100E00021FFF75DFD0520FFF774FE26
:101AC00060790121FFF756FD0520FFF76DFE607973
:101AD0000021FFF74FFD0520FFF766FE207900216A
:101AE000FFF748FD0520FFF75FFE2846FEBD10B555
:101AF000044600790021FFF73DFD0520FFF754FE65
:101B000060790121FFF736FD0520FFF74DFE2079B2
:101B10000121FFF72FFD0520FFF746FE10BD70B530
:101B20000E460446154600790021FFF723FD0520E7
:101B3000FFF73AFE60790021FFF71CFD0520FFF753
:101B400033FE70002843C1B2204600F001F870BD9A
:101B500070B50E46044600253006207901D50121D6
:101B600000E00021FFF706FD7006060E60790121F6
:101B7000FFF700FD0520FFF717FE60790021FFF752
:101B8000F9FC0520FFF710FE6D1CEDB2082DE3D324
:101B900060790121FFF7EEFC0520FFF705FE607973
:101BA0000021FFF7E7FC0520FFF7FEFD002070BDD8
:101BB000C18A028B914202D10020C0437047028B40
:101BC00001461E31515C028B521C9206920E02831A
:101BD00008467047FFB5044683B0002020752046B4
:101BE000163022690290801C871C061D01903E4918
:101BF000801D25465E3500908A4235D13B480299CA
:101C0000016001998760C66041600099456101618A
:101C1000062204210020FEF7F7FE062208210020FC
:101C2000FEF7F2FE304804990160FF210131818006
:101C30000021C18001814181014601208007FFF719
:101C4000ADFA012211469007FFF7EAFA01220021BE
:101C50009007FFF7F2FA012211469007FFF7EDFA1D
:101C600001212348C905016022482169814234D1FC
:101C70001E4802998161019907624662C16100991B
:101C8000C5628162062210210020FEF7BDFE0622F9
:101C900020210020FEF7B8FE164804990160FF21BC
:101CA000013181800021C18001814181124D0146B5
:101CB0002846FFF773FA012211462846FFF7B0FACB
:101CC000012200212846FFF7B8FA012211462846D2
:101CD000FFF7B3FA0648A90101600020A0836083E2
:101CE0002083E08207B0F0BDCC000020740000200B
:101CF00000E100E0D80000200000044010B50446D8
:101D000001202075608B638B401C8006800E22466C
:101D10005E329954618BA28B6083914211D10A4942
:101D20002069884204D1022101224807FFF778FA8E
:101D300006492069884204D1012202210448FFF7A4
:101D40006FFA012010BD0000CC000020D800002058
:101D5000000004400268C9B212681047C18A008BB3
:101D6000081A8006800E7047002242607D22D20051
:101D70008260024A0260016170470000403000004A
:101D80001CB5044610A00068019010A000680090E7
:101D9000072900D90721802A00D980220720411A6B
:101DA000B02001436B461971212018705A707F20B2
:101DB0009870012201A9204600F00AF80322694622
:101DC000204600F005F81CBDB000000021007F0097
:101DD00070B50D460646144600212F20FFF7CAFBBA
:101DE00006E02978304600F053F9641EE4B26D1C19
:101DF000002CF6D170BDF8B5002706463D46009789
:101E0000002229463046FFF7BBFF00240122694625
:101E1000304600F0C3F8641CE4B2802CF6D36D1C8D
:101E2000EDB2082DECD3B774F7743775F8BD000028
:101E300010B586B04174044601211620FFF75EFDFF
:101E400001212F20FFF75AFD01211820FFF756FD31
:101E500001211720FFF752FD01212E20FFF74EFD33
:101E600000212E20FFF786FB00212F20FFF782FBA9
:101E700000211620FFF77EFB1420FFF707FD01214C
:101E80001620FFF777FB1420FFF700FD182207A1AB
:101E90006846FEF767F9172269462046FFF798FF64
:101EA0002046FFF7A8FF06B010BD0000AE001040AE
:101EB00081CFA1A6A83FD300D580D9F1DA12DB40AB
:101EC0008D14AF00F8B50F460446417C0126007D15
:101ED0000025002910D0002800D02575202F42D3DE
:101EE000E27C782A35D8A17C3B46204600F06AF88F
:101EF000E07C0830E0744CE0002800D02575202FED
:101F00000AD3E27C782A0AD8A17C3B46204600F01E
:101F100099F8E07C801DE0740A2F12D039E0A07C93
:101F2000401CC0B2A074082800D3A5742A46E574EA
:101F3000EAE7A17C2023204600F084F8E07C801DA5
:101F4000E074E27C782AF4D9A07C401C1BE0A574E4
:101F50001DE0A07C801CC0B2A074082800D3A5742A
:101F60002A46E574BFE70A2F08D012E0A17C20239F
:101F7000204600F027F8E07C0830E074E27C782A04
:101F8000F4D9A07C801CC0B2A0740828DFD2E5740C
:101F900026750120F8BD8174C274704770B50D4676
:101FA0000646144601212F20FFF7E4FA06E02978BF
:101FB000304600F06DF8641EE4B26D1C002CF6D1C2
:101FC00070BD0000FFB581B00F46072900D9072773
:101FD0000398802801D98020039018462038622871
:101FE00000D32E231C01FF3CFF3C3946023C039AE0
:101FF0000198FFF7C5FE01212F20FFF7BBFA104E15
:102000000025315D641C019800F042F86D1CEDB2B2
:10201000082DF6D37F1CF9B2039A0198FFF7B0FEA2
:1020200001212F20FFF7A6FA0025315D641C0198DD
:1020300000F02EF86D1CEDB2082DF6D305B0F0BD02
:102040002C2A0000F8B50746072900D90721802A65
:1020500000D9802218462038622800D32E2306207B
:10206000203B43431C463846FFF78AFE01212F20C0
:10207000FFF780FA054E0025315D3846641C00F0FC
:1020800007F86D1CEDB2062DF6D3F8BDE027000071
:1020900070B50D46082400211820FFF76BFA11E0F7
:1020A000280601D5012100E000211720FFF762FA80
:1020B00001211820FFF75EFA00211820FFF75AFAD5
:1020C0006806050E2046641EE4B20028E8D170BD03
:1020D000002242607D22D2008260024A02600174C6
:1020E000704700006430000070470000F0B51FB476
:1020F00082B000200C9C16461D460090002A01D09C
:10210000012000E0002019460143480040494008F2
:10211000081AC00F01D03FA117E00121680049054E
:10212000C84201D1002E15D007277F073A463A4B07
:1021300030462946FEF7B8FA06D33A46374B3046C2
:102140002946FEF79DFA07D235A1029800F091F8D2
:1021500007B0F0BD33A1F8E7002213463046294608
:10216000FEF78EFA07D22D21029800F086F8009033
:102170000120C007454000202B49074605E000220A
:102180002A4BFEF793F97F1CFFB2A742F7D33246E2
:102190002B46FEF771F806460F46FEF73FFA054656
:1021A000FEF72EFA32463B46FEF710F906460F467A
:1021B0000A222946029800F096F800994518002C4A
:1021C0001FD02E21029800F058F8451919E000227E
:1021D000164B30463946FEF701F906460F46FEF724
:1021E0001DFA014600900A22029800F058F845199D
:1021F0000098FEF705FA32463B46FEF7E7F806463A
:102200000F462046641EE4B20028E0D128469FE72E
:102210000000F07F6E616E00FFFFEF41FFFFEFC136
:102220006F766600696E66000000E03F00002440A3
:1022300070B515468AB006460A46002008A90870FF
:1022400008AC022D00D20A2529461046FDF774FF7E
:10225000C9B202460A2901D2303100E03731641E8A
:102260002170002AF0D12146304600F048F80AB02B
:1022700070BD10B500F043F810BD02681268104739
:1022800008B50299C9B20091FFF730FF08BD10B53B
:1022900000F029F810BD10B500F005F810BD10B51C
:1022A00000F021F810BD70B50C460546002A03D099
:1022B0000A2A07D0D2B213E02868C9B202682846B9
:1022C000904770BD002C0ADA2D21FFF7D6FF064695
:1022D00061420A222846FFF7ABFF801970BD0A222F
:1022E000FFF7A6FF70BD10B5002A03D0D2B2FFF7EA
:1022F0009FFF10BD0268C9B21268904710BD70B54B
:1023000005460C0009D00846FDF74CFF0246286838
:10231000214643682846984770BD002070BDF8B537
:1023200015460C460746002608E038682178026802
:102330003846641C9047002802D0761C6D1EF4D2EB
:102340003046F8BD70B50546FFF793FF04462846B2
:1023500000F024F8001970BD38B5054604980090C7
:102360002846FFF78DFF0446284600F017F80019AD
:1023700038BD70B50546FFF78AFF0446284600F0D1
:102380000DF8001970BD70B50546FFF784FF0446CF
:10239000284600F003F8001970BD000010B502A136
:1023A000FFF7ADFF10BD00000D0A000010B50721BA
:1023B00000F028F8FEF750F910BD10B5FFF72CFB20
:1023C00010BD70B50C46054600225A21FFF7A7FB49
:1023D00021462846FFF7BCFB01225A212846FFF779
:1023E00003FB00212846FFF737FB0446012128465E
:1023F000FFF732FB0002001984B22846FFF777FB93
:10240000204670BD10B5FFF7DCFFFEF7DDF8FEF7E4
:1024100023F9074A074BFDF7E1FFFEF759F9FEF7ED
:102420001BF9054A054BFDF7CBFFFEF751F910BD2F
:102430007B14AE47E17A943F666666666612714029
:102440002021020C01D010211046020A01D01046B2
:102450000839020901D01046091F820801D0104630
:10246000891E420801D0881E7047081A704730B490
:102470007446641E2578641CAB4200D21D46635D21
:102480005B00E31830BC184730B5002805D0164C67
:10249000021F20680023014605E0084630BD904237
:1024A00003D8034640680028F9D1002B00D05968B2
:1024B000002B0AD01C68D51AA54204D11268A418B2
:1024C0001A461C6002E05A6000E02260002807D033
:1024D0001468851AA54203D1056864191460406820
:1024E0005060184630BD0000A8000020F1B50E4C29
:1024F0000F480C4E001B0D4FC508ED000022114681
:10250000009800F051F8002803D13068002801D06D
:102510000020F8BD3C600020256060600120306034
:10252000ECE70000AC0000207C020020A8000020A6
:102530007802002002E008C8121F08C1002AFAD160
:1025400070477047002001E001C1121F002AFBD133
:102550007047000010B505490548FFF705FC044821
:102560000449A030FFF700FC10BD0000CC000020A3
:1025700034010020D800002010B500210548FFF7E5
:10258000A7FD054A0549FDF725FE054805490160F7
:1025900010BD0000B400002000000000E920000091
:1025A0002000002024300000F8B50B30C608F600EB
:1025B000104D19E02068B04215D3B0420BD96368C2
:1025C000871B201D0093FDF7CDFDA019009B076020
:1025D0004360286004E060682860201DFDF7C2FDAC
:1025E000201D2660F8BD251D2C68002CE2D100209E
:1025F000F8BD0000A800002008B50125FFF7E0F8AD
:1026000001215D48FFF714FC5B48FFF7F4FB5BA179
:102610005948FFF797FE262227215B48FFF7CDFE9A
:1026200000210846FFF76AF900210846FFF766F91E
:1026300002212920FFF762F9162254492920FEF7CA
:10264000E7FF02212020FFF759F902212A20FFF796
:1026500055F901211F20FFF751F901212B20FFF728
:102660004DF900212B20FEF785FF00211F20FEF7EA
:1026700081FF4B214648C90100230622FFF7AAFA31
:10268000444A1A205110FEF711FE7D26F600012063
:10269000FFF7FCF86D1CB542F9D10125FFF70CF9E5
:1026A000394C203CA060FDF7D7FF00223A4BFDF7E4
:1026B000FDFE0022394BFDF791FEFEF709F8E060C0
:1026C000FDF7CAFF364A374BFDF788FEFEF700F8E4
:1026D00035492061FDF793FD60612B48FFF766FEE9
:1026E000FDF7F6FF0022E06111462348FFF753FC97
:1026F0002EA12148FFF7BDFDE069FDF7ADFF0227E0
:1027000002460B461C480097FFF726FE29A11A48EF
:10271000FFF7AFFD6069FDF79FFF02460B461648C5
:102720000097FFF719FE29A11348FFF7A2FD0A221F
:1027300061881148FFF727FE1CA11548FFF799FD96
:10274000E069FDF789FF02460B4611480097FFF745
:1027500003FE20A10E48FFF78CFD0A2221780C48C9
:10276000FFF707FE1DA10A48FFF783FD0A226188D3
:102770000748FFF708FE8AE7B40000205365726936
:10278000616C2054657374002000002079180000EB
:1027900034010020022000000000694000408F400A
:1027A00039B4C876BE9FE63F00007A444D54313AB2
:1027B0000000000043757272656E74205468726F79
:1027C0007567682057697265203A00004D43313AB9
:1027D000000000004D53313A000000004D4331002D
:1027E0000000000000000000FA00000000E000E02F
:1027F000000028FE28FE28002454FE544800C4C8C7
:10280000102646006C926A040A000010E0C0000026
:102810000038448200000082443800005438FE38FA
:10282000540010107C10100000021C180000101042
:1028300010101000000006060000040810204000E0
:102840007C8A92A27C000042FE02000042868A92AC
:102850006200848292B2CC00182848FE0800E4A2EC
:10286000A2A29C003C5292920C0082848890E000CC
:102870006C9292926C006092929478000000280012
:1028800000000000022C00000010284482002828CC
:102890002828280000824428100040808A90600088
:1028A0007C82BA9A72003E4888483E00FE9292921C
:1028B0006C007C8282824400FE8282827C00FE92D6
:1028C00092928200FE90909080007C8292925E00B4
:1028D000FE101010FE000082FE820000040282FC46
:1028E0008000FE1028448200FE0202020200FE4028
:1028F0003840FE00FE201008FE007C8282827C00B0
:10290000FE90909060007C828A847A00FE90989479
:102910006200649292924C008080FE808000FC02F3
:102920000202FC00F8040204F800FC021C02FC0095
:10293000C6281028C600C0201E20C000868A92A289
:10294000C20000FE82828200402010080400008243
:102950008282FE0020408040200001010101010030
:1029600000C0E0100000042A2A2A1E00FE142222C1
:102970001C001C22222214001C222214FE001C2AED
:102980002A2A180000107E904000182525253E00B8
:10299000FE1020201E000022BE02000000040202E1
:1029A000BC0000FE081422000082FE0200003E204F
:1029B0001E201E003E1020201E001C2222221C0071
:1029C0003F1824241800182424183F003E1020200B
:1029D0001000122A2A2A24002020FC2224003C0273
:1029E00002043E003804020438003C020C023C00A1
:1029F000221408142200320909093E0022262A3234
:102A0000220000106C8200000000EE000000008236
:102A10006C100000408040204000006090906000FA
:102A20000000FE828282828282FE0000000000009E
:102A300000000000000000000000000000000E1F69
:102A40001F0E0000000000B0B0000000001C1C00C1
:102A5000001C1C00000000000000000000041F1FFC
:102A6000041F1F040040F0F040F0F040000C1E7303
:102A7000711808000020301C9CF06000183C243DB8
:102A80001B060C000060C0B078487830000D1F12A3
:102A90001E0C000000E0F01090E0F0900000001C20
:102AA0001C00000000000000000000000000030FF8
:102AB0001C1000000000E0F81C0400000000101CC6
:102AC0000F0300000000041CF8E0000000010507EF
:102AD00003070501000040C080C04000000101075D
:102AE00007010100000000C0C0000000000000005D
:102AF00000000000000000343C380000000101012B
:102B000001010100000000000000000000000000C2
:102B10000000000000000030303000000000000124
:102B2000071E1800001878E08000000000000F1F4A
:102B300010161F0F0000E0F0D010F0E00004040CAD
:102B40001F1F000000000000F0F00000000C1C102F
:102B5000111F0E00003070D090101000000C1C11DE
:102B6000111F0E000060701010F0E00000001F1F29
:102B70000007070000C0C04040F0F040001F1F11D8
:102B8000111110000010101030E0C0000003071EEB
:102B90001A13010000E0F01010F0E0000010101116
:102BA000171E1800000070F080000000000E1F13B8
:102BB000111F0E0000E0F01090F0E000000F1F1059
:102BC000101F0F00000090B0F0C080000000000651
:102BD0000606000000000030303000000000000653
:102BE00006060000000000343C3800000001030627
:102BF0000C181000000080C06030100000020202BB
:102C00000202020000808080808080000010180C8A
:102C10000603010000103060C0800000000C1C1191
:102C2000131E0C00000000B0B00000000F1F1011B8
:102C300013121F0FE0F01090D050D0D000070F18E3
:102C4000180F070000F0F08080F0F000001F1F1147
:102C5000111F0E0000F0F01010F0E000000F1F1028
:102C6000101C0C0000E0F01010706000001F1F101E
:102C7000180F070000F0F01030E0C000001F1F1117
:102C80001111100000F0F01010101000001F1F11A3
:102C90001111100000F0F00000000000000F1F10E4
:102CA000101C0C0000E0F01090F0F000001F1F015D
:102CB000011F1F0000F0F00000F0F0000000101FE6
:102CC0001F100000000010F0F010000000000000D5
:102CD000001F1F000060701010F0E000001F1F01B7
:102CE000071E180000F0F000C0F03000001F1F00A9
:102CF0000000000000F0F01010101000001F1F0472
:102D000003041F1F00F0F0008000F0F0001F1F06FA
:102D100003011F1F00F0F0000080F0F0000F1F10F3
:102D2000101F0F0000E0F01010F0E000001F1F1156
:102D3000111F0E0000F0F00000000000000F1F1037
:102D4000101F0F0000E0F01018FCE400001F1F111E
:102D5000111F0E0000F0F00080F07000000C1E1338
:102D6000111808000020301090F060000010101FB3
:102D70001F101000000000F0F0000000001F1F00F6
:102D8000001F1F0000E0F01010F0E000001F1F0007
:102D9000001F1F0000C0E03030E0C000001F1F0017
:102DA00003001F1F0080F0708070F08000181C0767
:102DB000031C18000070F00080F07000001E1F015E
:102DC000011F1E00000000F0F000000000101011B4
:102DD000131E1C000070F0901010100000001F1F48
:102DE000101000000000FEFE0202000000181E0786
:102DF0000100000000000080E078180000001010C2
:102E00001F1F000000000202FEFE000000103060E4
:102E10006030100000000000000000000000000012
:102E200000000000020202020202020200004060F2
:102E3000701000000000000000000000000004040A
:102E4000040703000060F09090F0F000001F1F04E2
:102E50000407030000F0F01010F0E0000003070486
:102E60000406020000E0F010103020000003070408
:102E7000041F1F0000E0F01010F0F0000003070432
:102E80000407030000E0F0909090800000010F1F05
:102E9000111111000000F0F0000000000003070411
:102EA0000407070000E2F21212FEFC00001F1F04DC
:102EB0000407030000F0F00000F0F0000004043705
:102EC00037000000001010F0F010100000000404A3
:102ED0003737000000020202FEFC0000001F1F0046
:102EE0000107060000F0F080C07030000010101FD5
:102EF0001F000000001010F0F01010000007070481
:102F00000704070300F0F000E000F0F000070704FA
:102F10000407030000F0F00000F0F00000030704D5
:102F20000407030000E0F01010F0E00000070704C1
:102F30000407030000FEFE1010F0E0000003070489
:102F40000407070000E0F01010FEFE000007070174
:102F50000206060000F0F000000000000003070475
:102F6000040404000010909090F0600000041F1F03
:102F7000040404000000E0F0101010000007070037
:102F80000007070000E0F01010F0F0000007070055
:102F90000007070000C0E03030E0C0000007070075
:102FA0000300070700C0F030C030F0C00006070182
:102FB00001070600003070C0C07030000007070035
:102FC0000007070002E2F2161CF8E0000004040407
:102FD00005070600003070D0901010000000010FAF
:102FE0001E1000000080C0783C0400000000001F9C
:102FF0001F000000000000FEFE0000000000101E88
:103000000F0100000000043C78C080000C1810186C
:103010000C040C180000000000000000000000007C
:1030200000000000000000000000000000000000A0
:103030000000000000000000000000000000000090
:10304000FD1C00001F230000000000000000000025
:103050005D1D0000B11B000000000000000000002A
:1030600000000000C51E00001F230000000000003B
:103070000000000000000000000000000000000050
:10308000A830000000000020B4000000342500003B
:103090005C310000B4000020C4030000442500009F
:1030A000D9F4FFFFB1F4FFFF0000000000000000B2
:1030B0000000000000000000000000000000000010
:1030C0000000000000000000000000000000000000
:1030D00000000000000000000000000000000000F0
:1030E00000000000000000000000000000000000E0
:1030F00000000000000000000000000000000000D0
:1031000000000000000000000000000000000000BF
:1031100000000000000000000000000000000000AF
:10312000000000000000000000000000000000009F
:10313000000000000000000000000000000000008F
:10314000000000000000000000000000006CDC0235
:0C31500000000000000000000000000073
:04000005000000C136
:00000001FF
