:020000040800F2
:10000000D00A0020B50100089319000891190008D2
:1000100000000000000000000000000000000000E0
:10002000000000000000000000000000C101000806
:100030000000000000000000C3010008D9190008FA
:10004000C701000800000000C7010008C701000840
:10005000C7010008B9090008C7010008C701000866
:1000600000000000C7010008C7010008C701000820
:10007000F1080008C7010008C701000800000000DF
:10008000C7010008411A000800000000C70100086D
:10009000C7010008C7010008C7010008C701000820
:1000A000C7010008C7010008C7010008151E0008A5
:1000B000251E000800F002F800F050F80CA030C82F
:1000C000083824182D18A246671EAB4654465D46D4
:1000D000AC4201D100F042F87E460F3E0FCCB6464E
:1000E0000126334200D0FB1AA246AB4633431847E1
:1000F000FC3300001C340000103A02D378C878C1E9
:10010000FAD8520701D330C830C101D504680C6059
:10011000704700000023002400250026103A01D378
:1001200078C1FBD8520700D330C100D50B607047AF
:100130001FB50098019900F018FA00F0F1F90400D9
:100140000020002102F06EFD401C606000F0D2F93A
:100150001FBD10B5002000F09FFA10BD00F048FB55
:100160001146FFF7E5FF02F081FC00F06FFB03B4DE
:10017000FFF7EFFF03BC00F035FB000070B505464C
:100180000C46164602E00FCC0FC5103E102EFAD2D8
:10019000082E02D303CC03C5083E042E07D301CC9E
:1001A00001C5361F03E021782970641C6D1C761E82
:1001B000F9D270BD0748804707480047FEE7FEE7D1
:1001C000FEE7FEE7FEE7FEE704480549054A064B61
:1001D00070470000E5190008B5000008D0040020B1
:1001E000D00A0020D0060020D006002010B500F074
:1001F00097F9001D10BD00BF2D2A000070B5044600
:10020000051F00F089F90068002C1AD0446801E04D
:1002100020466468002C01D0AC42F9D301680A186A
:10022000AA4204D12A6805468918016000E04560A9
:1002300028684119A14205D16168696021684018A8
:10024000286070BD6C6070BD70B5064600F070F936
:100250000468054630460A22002100F0E5F92C60CA
:1002600070BDF8B5074615460E46102000F0AAF9F5
:10027000040009D06760A660E56000F055F90168E8
:10028000216004600020F8BD0120F8BD401ECAB204
:100290004178401C8A4202D00029F9D100207047E1
:1002A00030B505460B462A461C781078521C5B1C5C
:1002B000002801D0A042F7D0002C03D0002802D0A3
:1002C0006D1CEFE7284630BD30B5441C03E00178D3
:1002D000401C00290DD08107F9D10B4BDD0104C86A
:1002E000D11A91432940FAD0001B0A0603D0C01E40
:1002F00030BD001B30BD0A0401D0801E30BD090294
:10030000FCD0401E30BD000001010101024670B565
:100310000A4392072AD11E4DEE0104C808C9541B96
:100320009443344017D0D0B2D9B2401A21060143C9
:1003300010D190B299B2401A210401430AD110029F
:100340001902000A090A401A2102014302D1100EC3
:10035000190E401A70BD9A42DFD010BA19BA8842FD
:1003600001D9012070BD0020C04370BD02780B7818
:10037000401C491C002A09D09A4207D102780B7808
:10038000401C491C002A01D09A42EFD0D01A70BDFF
:1003900001010101002203098B422CD3030A8B4285
:1003A00011D300239C464EE003460B433CD400226D
:1003B00043088B4231D303098B421CD3030A8B427F
:1003C00001D394463FE0C3098B4201D3CB01C01A4D
:1003D000524183098B4201D38B01C01A5241430918
:1003E0008B4201D34B01C01A524103098B4201D306
:1003F0000B01C01A5241C3088B4201D3CB00C01A73
:10040000524183088B4201D38B00C01A52414308EA
:100410008B4201D34B00C01A5241411A00D201460F
:100420005241104670475DE0CA0F00D049420310A8
:1004300000D34042534000229C4603098B422DD3F7
:10044000030A8B4212D3FC22890112BA030A8B429F
:100450000CD3890192118B4208D3890192118B42EE
:1004600004D389013AD0921100E08909C3098B4273
:1004700001D3CB01C01A524183098B4201D38B01B6
:10048000C01A524143098B4201D34B01C01A524159
:1004900003098B4201D30B01C01A5241C3088B429E
:1004A00001D3CB00C01A524183088B4201D38B0089
:1004B000C01A5241D9D243088B4201D34B00C01A13
:1004C0005241411A00D20146634652415B10104628
:1004D00001D34042002B00D54942704763465B1070
:1004E00000D3404201B50020C046C04602BD70475F
:1004F0007047704770B5064C7C44064D7D4403E060
:10050000206800198047241DAC42F9D170BD00005D
:10051000203100002431000000487047740400209E
:10052000004870478C04002000487047A404002055
:10053000004870476C040020704770477047704750
:1005400038B504460A4600206946C046C046002821
:1005500005D002462046009900F0CBF8012038BDB6
:1005600010B5012000F038F910BDF8B5C046C046FE
:10057000054600200C461020C0460646A819A04299
:100580000DD9324669460020C046C046070001D159
:1005900000F022F90098A04200D00546C419FFF7E8
:1005A000BBFFF61D07460560F008C0004619284647
:1005B00000F098F8B44204D031463868A21B00F02D
:1005C00098F8F8BD70B50646FFF7A6FF05683046F7
:1005D0000B30C408E400B44201D8002070BD686844
:1005E0002A46002818D00168A14211D30B462146A3
:1005F00008318B4208D3436801194B6003681B1B09
:100600000B605160046001E041685160001D70BDE5
:10061000024640680028E6D121462846FFF790FFB1
:100620000028DCD170BD0000F7B50F460026009C05
:100630002578641C002D05D0FFF7D8FD0068405DCB
:10064000C007F5D12B2D02D02D2D18D0641E3946B0
:10065000029A204600F067F8002F04D03968A142C2
:1006600001D1009939607105022400290BDA40425A
:10067000002803DDFFF75CFF0460A007FEBD01203A
:1006800080020643E3E70028F8DAFFF751FF046031
:100690000048FEBDFFFFFF7FF8B50646FFF744FFA9
:1006A0000090054615E0002E02D0E068B0420FD160
:1006B000206828600098A16807686068884720461D
:1006C000FFF79CFD00980068B84202D00098E8E768
:1006D00025462C68002CE6D1F8BD00000048704784
:1006E0006C04002000210160416080607047102090
:1006F000704710B50346406801E003464068002893
:1007000001D08842F9D31868C3188B4206D0CB1C9D
:10071000D808C000001D411A521A0146081D0A607F
:10072000FFF76CFD10BDF7B5154682B00027029C9F
:100730002078641C0197302802D0002D15D015E0D8
:1007400020780127641C782804D0582802D0002D76
:1007500009D00BE0002D01D0102D07D12078002703
:100760001025641C02E0082500E00A2500260096FA
:1007700010E0009901276943081829467143020CCB
:1007800080B200908E183804864201D30120019077
:100790002078641C294600F04AF80028E9DA03981A
:1007A000002805D0002F01D0641E00E0029C0460E8
:1007B0000198002806D0FFF7BBFE02210160C81E89
:1007C00005B0F0BD009930040843F9E710B50028E2
:1007D00001D000F007F810BD10B500F059F8FFF790
:1007E000F5FF10BD01491820ABBEFEE72600020050
:1007F0007546FFF773FFAE46050069465346C008CD
:10080000C000854618B020B5FFF7DEFC60BC0027AD
:100810004908B6460026C0C5C0C5C0C5C0C5C0C5CC
:10082000C0C5C0C5C0C5403D49008D4670473A2887
:1008300000D23038202302469A43412A01D3104681
:100840003738884201D30020C043704710B50446B2
:10085000C046C0462046FFF78AFC10BD70B505466D
:100860000C460A2000E06D1C00F03AF8002D06D07E
:1008700028780028F7D102E0641C00F031F8002C41
:1008800002D020780028F7D10A2000F029F870BDA6
:1008900010B5012805D0002103A0FFF7DFFF0120DC
:1008A00010BD09A1F8E7000053494752544D454D8A
:1008B0003A204F7574206F662068656170206D6501
:1008C0006D6F7279000000003A2048656170206DFC
:1008D000656D6F727920636F7272757074656400F4
:1008E00008B5694608700320ABBE08BD704700001C
:1008F00010B5024800F08AF810BD0000B8000020D2
:1009000070B5044600688168490720D581681026C3
:100910004907002905DA8168890702D481683143D3
:10092000816000F005FA05460DE000F001FA401B79
:10093000022808D9606C30436064A06C0121084330
:10094000A064084670BD206880684007EDD4002090
:1009500070BDF8B50446006881688907890F0129D0
:1009600028D10168C90702D1C168090422D581686C
:10097000052211401025012601290FD1816802228C
:100980001143816021680320086000F0D1F9074617
:100990000CE000F0CDF9C01B022807D9606C284399
:1009A0006064A06C3043A0640120F8BD20688068BA
:1009B000C007EED10020F8BD10B5074C6069C00734
:1009C00002D0012000F0F8F86069800702D502200B
:1009D00000F0F2F810BD00000004014010B500F076
:1009E00012F8054CE178054A49005052044800F0DD
:1009F00076F80120207110BD04000020F4020020D0
:100A0000B800002070470068006C704770B504465D
:100A100000680168490702D54168490705D40168A3
:100A2000090730D5416809072DD5616CC90604D482
:100A3000616C0122520211436164C1680C250905F1
:100A4000890F00291AD1216A002917D101680907E5
:100A500014D581684A070121002A08DB4268AA43AD
:100A60004260606C0A0290430843606406E0606C78
:100A7000202210436064A06C0843A0642046FFF766
:100A8000ADFF206805602068016809060DD5406843
:100A900000060AD5606C0121090408436064204601
:100AA00000F01CF821688020086020680168C906F1
:100AB00013D54168C90610D5616B1025012902D0F4
:100AC000C168C90707D0A16C02221143A164056067
:100AD0002046FFF797FF2068056070BD704770B52E
:100AE0000546044640352878012807D001262E7097
:100AF0002046FFF705FF002802D011E0022070BD5C
:100B0000206841681C22914341602046FFF721FF85
:100B1000002805D1616CFF220132914331436164A9
:100B20000021297070BD70B50024014620314A783B
:100B3000022A03D004218163012416E002681368AD
:100B40000E25AB431360026813685B085B001360FB
:100B50000122056C1346AB40C56B6B604A700022E6
:100B60000A70416B002900D08847204670BD31B51E
:100B700000F0DEF8044600F0DBF80099001B884224
:100B8000F9D338BDF1B50A4E002437461037094D68
:100B900009E06000315A0098814202D1A000385823
:100BA0008047641CE4B268798442F2D3F8BD000047
:100BB000040300200400002010B504494A690242E1
:100BC00002D04861FFF7DEFF10BD000000040140C5
:100BD000F8B500238DE001249C40A44622407DD03E
:100BE0004C68022C01D0122C0CD1DC08A400271870
:100BF0003C6A5D07ED0E0F26AE40B4430E69AE4071
:100C000026433E6205685E000324B4400F79A54385
:100C1000BF07BF0FB7402F4307604D68012D05D0B8
:100C2000022D03D0112D01D0122D0ED18568CF6871
:100C3000A543B7402F43876047686546AF430D79AA
:100C4000ED06ED0F9D403D434560C568A5438C68AA
:100C5000B4402C43C4604C68E40049D5284CA569D5
:100C600001263543A561A4699D0834400094254CB4
:100C7000AD002F19BC689D072E0F0F25B540AC4362
:100C80000925ED06A84201D100250FE01E4DA8421E
:100C900001D101250AE01D4DA84201D1022505E040
:100CA0001B4DA84201D1032500E00525B540254391
:100CB000BD60184C25684E689543F60300D5154372
:100CC000256065684E689543B60300D51543656099
:100CD000A5684E689543F60202D500E008E015438A
:100CE000A560E5684E689543B60200D51543E560FA
:100CF0005B1C0A681446DC4000D06CE7F8BD0000BD
:100D000000100240000001400004004800080048B4
:100D1000000C0048000401400069084000D0012098
:100D20007047002A01D081617047816270470000DE
:100D30000148006870470000380000200248016840
:100D4000491C0160704700003800002010B50446BF
:100D500000F026F97D21C900FFF71CFB00F02AFBFB
:100D600000222146501E00F00DF8002010BD0000AA
:100D7000C106C90E01208840014908607047000083
:100D800000E100E010B500F005FE10BDF8B5054625
:100D90000068354CC00352D5E0690026C00007D476
:100DA000E16920040143E161E1690140012600910C
:100DB0002E480168C90510D40168821511430160ED
:100DC000FFF7B6FF074604E0FFF7B2FFC01B642839
:100DD00024D826480068C005F6D5206A03273F02BC
:100DE000384020D06968394081421CD0206A226A8C
:100DF000B843012109040A432262226A8A4322621B
:100E00002062C0070FD0FFF793FF009008E0FFF7C4
:100E10008FFF0099411A1648814201D90320F8BD7D
:100E2000206A8007F3D5206A6968B84308432062C6
:100E3000002E04D0E169012000078143E161287898
:100E4000C00705D0206BA968800880000843206394
:100E50002878800605D5206B10218843E96808436F
:100E600020630020F8BD0000001002400070004028
:100E700088130000F8B5054644480E460068C007D0
:100E8000C00FB0420AD241480168490849003143C5
:100E900001600068C007C00FB0425CD128783C4CAC
:100EA000800705D56068F0218843A9680843606021
:100EB0002878C0073FD06868012813D0216802282D
:100EC00013D08907002946DA61688908890001433F
:100ED0006160FFF72DFF6968074601290DD00229DF
:100EE00017D024E021688903ECE78901EAE7FFF7DE
:100EF0001FFFC11B2748814217D860680007800F79
:100F00000128F4D117E0FFF713FFC11B21488142EC
:100F10000BD860680007800F0228F4D10BE0FFF7C0
:100F200007FFC11B1B48814201D90320F8BD60683F
:100F30000007800FF3D115480168C907C90FB142F6
:100F40000BD9016849084900314301600068C007B6
:100F5000C00FB04201D00120F8BD2878400706D567
:100F60006068072109028843E9680843606000F06F
:100F70002DF86168084A0906090F515CC840074905
:100F800008600020FFF7E2FE0020F8BD00200240CC
:100F900000100240881300008C3400083400002048
:100FA00001480068704700003400002004480549EB
:100FB00000684968044A4905490F515CC8407047B8
:100FC00034000020001002409C34000810B512A329
:100FD0000FCB88B06C460FC413A30FCB0FC41649B8
:100FE0004A680C20134603401448042B0FD0082BEA
:100FF0000DD193021B0F6C46E45CC96A04AB090770
:10100000090F595CD20304D5FFF7C4F9604308B057
:1010100010BD0B486043FAE7020304050607080900
:101020000A0B0C0D0E0F1010010203040506070831
:10103000090A0B0C0D0E0F100010024000127A006E
:1010400000093D00FEB504460078D04DC00747D0EA
:1010500068680007800F012807D068680007800FC4
:10106000022809D16868C00306D52868800337D5EF
:10107000606800287ED033E0012062680004012A05
:1010800011D08100002A01D0052A10D02A6882439D
:101090002A602868884328606068002814D0FFF719
:1010A00047FE06460CE0296801432960F4E72A68F8
:1010B0000A432A60F7E7FFF73BFE801B64286FD8DE
:1010C00028688003F7D50BE0FFF732FE064604E000
:1010D000FFF72EFE801B6428F1D828688003F7D420
:1010E00020780126800700283BDA68680007800F17
:1010F00007D068680007800F022809D16868C0031C
:1011000006D42868800715D5E068012832D111E09F
:10111000E0680028286815D030432860FFF708FEF3
:10112000074604E0FFF704FEC01B0228C7D8286862
:101130008007F7D52868F82188432169C90008434A
:1011400028600EE0400840002860FFF7F1FD0746E8
:1011500004E0FFF7EDFDC01B0228B0D82868800727
:10116000F7D42078000724D5E0690028686A10D0F9
:10117000304300E008E16862FFF7DAFD074604E06B
:10118000FFF7D6FDC01B022899D8686A8007F7D5FB
:101190000FE0400840006862FFF7CAFD074605E01F
:1011A0009DE0FFF7C5FDC01B022888D8686A80074C
:1011B000F7D4207804274007002860DA0020019047
:1011C000E869C00008D4E969B8060143E961E96942
:1011D00001400120009101906D480168C90511D4BA
:1011E0000168821511430160FFF7A2FD009005E040
:1011F000FFF79EFD0099401A642870D86448006883
:10120000C005F5D5A06801280AD0002801D005281E
:1012100010D0286A400840002862286AB84301E0DC
:10122000286A30432862A068002812D0FFF780FDAA
:1012300000900AE0286A38432862F1E7FFF778FD5A
:101240000099411A5348814249D8286A8007F5D548
:101250000DE0FFF76DFD009006E0FFF769FD0099D6
:10126000411A4C4881423AD8286A8007F5D401983F
:10127000002804D0E969012000078143E961207852
:10128000C00635D5606901280CD0401D686B23D09D
:1012900038436863686B400840006863FFF748FDA7
:1012A000064622E0686B38436863686B30436863C6
:1012B000FFF73EFD064604E0FFF73AFD801B0228DB
:1012C0005BD8686B8007F7D5686BF8218843A16904
:1012D000C900084368630BE0B8436863F4E74CE077
:1012E000FFF726FD801B022847D8686B8007F7D4DC
:1012F000206A002846D069680907890F022943D06F
:10130000012636060228286805D0B0432860FFF77A
:101310000FFD044633E0B0432860FFF709FD0746A0
:1013200004E0FFF705FDC01B022826D828688001CD
:10133000F7D4E86AE16A000900010843E862616ADB
:10134000A06A084369683D2212049143084368601B
:10135000286830432860FFF7EBFC044604E0FFF701
:10136000E7FC001B022808D828688001F7D509E0AF
:10137000FFF7DEFC001B022801D90320FEBD286810
:101380008001F5D40020FEBD0120FEBD001002400A
:1013900000700040881300000422044904280869F2
:1013A00002D09043086170471043FBE700E000E083
:1013B00070470000094910B5401E884201D901203C
:1013C00010BD074C60610321081F00F0E3FA002004
:1013D000A06107202061002010BD0000FFFFFF007A
:1013E00000E000E010B5FFF7E3FF10BD7047704765
:1013F00070B5040005D025462035687F002802D04E
:1014000006E0012070BD00202877204600F00AF891
:1014100002206877211D206800F01AFB0120687700
:10142000002070BD70470268D36801210B43D36070
:10143000006802680A43026000207047704770B578
:101440000446006801690025C9438907002915DBA6
:10145000C168C943890711D4E91E016101202077C1
:10146000206880698007204602D0FFF7E7FF04E08C
:1014700000F096F8204600F094F82577206801697E
:10148000C943490717D4C168C943490713D4042184
:10149000C943016102202077206880698005800FA0
:1014A000204602D0FFF7CAFF04E000F079F820469A
:1014B00000F077F8257720680169C943090716D439
:1014C000C168C943090712D40821C9430161042036
:1014D00020772068C0698007204602D0FFF7AEFF62
:1014E00004E000F05DF8204600F05BF82577206806
:1014F0000169C943C90617D4C168C943C90613D4D1
:101500001021C9430161082020772068C069800547
:10151000800F204602D0FFF791FF04E000F040F872
:10152000204600F03EF8257720680169C943C907C5
:1015300008D1C168C943C90704D1891E0161204689
:1015400000F030F820680169C943090609D4C16870
:10155000C943090605D48021C94301612046FFF72C
:1015600045FF20680169C943490609D4C168C943D8
:10157000490605D44021C9430161204600F084F8A2
:1015800020680169C943890609D4C168C94389062D
:1015900005D42021C94301612046FFF728FF70BD13
:1015A00070477047F8B532490068096888425ED1D3
:1015B000304E3078401C307037462D4D00240E37A9
:1015C000C03551E02B48801D005D31788842385D80
:1015D00020D8202812D004DC002807D0102841D1C0
:1015E00008E030280ED050283CD10FE06000295A86
:1015F00000221FE06000295A002221E06000295AE1
:10160000002222E06000295A002223E06000295ACB
:10161000002224E0202815D004DC002807D0102860
:1016200020D10AE0302812D050281BD114E06000ED
:10163000295A01220920C00612E06000295A01221D
:101640000D480DE06000295A01220C4808E06000B6
:10165000295A01220A4803E06000295A0122094858
:10166000FFF75FFB641CE4B270788442AAD3F8BD34
:101670002402002004000020000400480008004864
:10168000000C004800140048704770B5040019D0E1
:1016900024212046603006464172206801684908CE
:1016A00049000160206800250560206845602068C9
:1016B0008560204600F0CAF8E5667572B57235722D
:1016C000002070BD012070BD70470000F8B50368B0
:1016D0000446D96918680D072D0F07D18A0605D56C
:1016E000820603D5204600F08BFAF8BD9A68002DDB
:1016F00064D0D507ED0FFF26213606402E435DD07E
:10170000CE0706D0C60504D501261E62E36E33431C
:10171000E3668F0702230426002F06DAD70704D0DA
:1017200027683B62E76E3743E7664F0706D5D20767
:1017300004D022681662E26E1A43E2660A0709D5EF
:10174000202202402A4305D0236808221A62E36E51
:101750001343E366E26E002AC7D0890604D58006EB
:1017600002D5204600F04CFAE06E000703D4206852
:10177000806840061CD5204600F026FA2068816863
:10178000490611D58168402291438160606E00282E
:101790000AD012494163606EFFF7C5F90028A4D052
:1017A000606E416B8847F8BD2046FFF78DFFF8BD9E
:1017B0002046FFF789FF0020E066F8BD0A0605D540
:1017C000020603D5204600F0F1FAF8BD4906FCD523
:1017D0004006FAD5204600F006FAF8BDB51B000811
:1017E00070B5040005D025466035687A002802D01F
:1017F00006E0012070BD00202872204600F027F886
:101800002420687220680168490849000160204668
:1018100000F034FA0128EDD0606A002802D020469A
:1018200000F05AF9206841680122D20291434160D8
:101830002068816808229143816020680168012244
:1018400011430160204600F0ACF970BD704770474D
:1018500070B5034660339C7A202C39D100290BD017
:10186000002A09D0012584682D03AC4206D10669FF
:10187000002E03D1CE0701D0012070BD1E7A012EAB
:1018800026D001261E724165014640310A834A83F3
:10189000FF22AC4204D10469002C07D10D4A05E0B7
:1018A000002C04D10469002C00D07F228A830021FF
:1018B000C16622229A72197201688A6832438A606C
:1018C00000680168FF22213211430160002070BDD1
:1018D000022070BDFF01000010B5044600680749F2
:1018E000884202D1064800F005FD0649206888427A
:1018F00003D103489C3000F0FDFC10BD00380140CE
:10190000340300200044004030B5034660335C7A65
:10191000202C23D100290BD0002A09D0012584686E
:101920002D03AC4206D10469002C03D1CC0701D0B1
:10193000012030BD1C7A012C10D0C1640146403119
:101940000A824A820021C16621225A7219720068F5
:101950000168802211430160002030BD022030BDAB
:1019600010B5044600680749884202D1064800F0D5
:10197000F1FC06492068884203D103489C3000F0FE
:10198000E9FC10BD00380140340300200044004051
:10199000FEE770478307FF22DB0E9A408907090E96
:1019A000994000280BDA0007000F08388308084820
:1019B0009B001818C36993430B43C36170478308A6
:1019C00004489B001B181868904308431860704730
:1019D00000ED00E000E400E010B5FFF7AFF9FFF71D
:1019E00001FD10BD134801680122114301604168E7
:1019F000114A114041600168104A114001600168BC
:101A0000012292049143016041683F2212049143F4
:101A10004160C16A09090901C162016BFF221432E8
:101A200091430163416B4908490041630021816092
:101A300070470000001002400CB8FF08FFFFF6FEE0
:101A400010B50248FFF7FBFC10BD00002402002087
:101A5000F0B502681A4B1B4C984201D0A04203D14A
:101A60007025AA434D682A43174D184E184F9842C7
:101A70000AD0A04208D0174CA04205D0A84203D0FB
:101A8000B04201D0B84205D1144603221202944359
:101A9000CA6822438024A2434C69224302608A68B8
:101AA000C2620A688262984205D0A84203D0B0425E
:101AB00001D0B84201D10969016301214161F0BD42
:101AC000002C01400004004000400140004401405F
:101AD000004801400020004010B5818CC90707D0A4
:101AE00001684A6801235B049A43836A1A434A6087
:101AF000818C890707D501684A6801231B049A4332
:101B0000C36A1A434A60818C490707D501684A684D
:101B100001239B049A43036B1A434A60818C090793
:101B200007D501684A680123DB039A43436B1A43D4
:101B30004A60818CC90607D50268916801231B039E
:101B40009943836B19439160818C890607D501689D
:101B50008A6801235B039A43C36B1A438A60818CB2
:101B6000490612D503685A6801210905046C8A43A5
:101B700022435A60026C8A4207D1026851680323EB
:101B80005B059943436C19435160818C090607D565
:101B900001684A680123DB04806C9A4302434A606F
:101BA00010BD0021C1662022603042728272017233
:101BB0000846704710B5406A0022014640314A830A
:101BC0004A82FFF781FD10BD01680A68FF232133B7
:101BD0009A430A6001688A68520852008A6020218C
:101BE00060308172704710B501680A6840239A43DB
:101BF0000A60202269210A54FFF7B2FE002010BDBE
:101C000070B50246403203466033948B9D7A01687A
:101C1000222D05D08869082210438861022070BDFA
:101C2000898C012685683603B54202D10569002DED
:101C30000BD02140446D651C45652170518B491EB8
:101C40000904090C518307D015E0456D2140298016
:101C5000416D891C4165F1E701680A68FF24213460
:101C6000A2430A6001688A68520852008A602021F3
:101C70009972FFF731FE002070BD0000F8B50446F0
:101C80002369A268E5691A43636910202B43002188
:101C900025681A432B680E463E4F3B4013432B608A
:101CA00023685A6803252D03AA43E5682A435A602E
:101CB000236AA26925681A43AB680B273F02BB431E
:101CC0001343AB60344A2568954210D1334A126BF6
:101CD0009207920F0ED0012A05D0022A05D0032ABE
:101CE00009D1022007E0042005E0082003E02C4A87
:101CF000954200D100200122E369D203934224D10E
:101D000000280CD002280DD0042813D0082817D0A2
:101D100001260A0912010807400F10432FE0FFF7C0
:101D200045F909E061681F4A48088018FEF732FB50
:101D300081B2EEE7FFF74AF9616840004A08F4E72C
:101D40006168012248081204EFE7002808D0022841
:101D500009D004280BD0082814D001263046F8BD3D
:101D6000FFF724F905E061680F4A48080CE0FFF727
:101D70002DF961684A088018FEF70CFB80B22168D3
:101D8000C860EBE7616848088018FEF703FB80B283
:101D9000E860E3E7F369FFFF00380140001002400C
:101DA000004400400024F40000127A006921095C1C
:101DB000212901D00220704702464032518A002971
:101DC00012D0012381681B03994202D101690029C5
:101DD00015D0C16C4B1CC364006809780185508A1A
:101DE000401E50820020704701680A6880239A4391
:101DF0000A6000680168402211430160F2E7C16C8B
:101E000003680988C905C90D1985C16C891CC1649D
:101E1000E5E7000010B50248FFF758FC10BD0000D0
:101E20000401002010B50248FFF750FC10BD00006F
:101E30007401002070B5154E0025154C0DE065703D
:101E400001210B2000F094F8124800F0B5FA217837
:101E50007054632901D2491C21700E4800F092FB96
:101E60000028ECDC6078411C617014280BD365708D
:101E70002078002807D0355400210B2000F078F896
:101E80002570012070BD002070BD000054000020AE
:101E90000000002034030020020901071201090F8D
:101EA000012010B58840202A11D004DC002A07D078
:101EB000102A18D108E0302A0CD0502A13D10CE097
:101EC00081B20920C0060AE081B2084807E081B269
:101ED000074804E081B2074801E081B20648FEF7F6
:101EE0001BFF012800D0002010BD000000040048A6
:101EF00000080048000C00480014004870B50D466A
:101F000006461446AA21194800F038FBC721174895
:101F100000F034FBBB21154800F030FB1E20FEF71B
:101F200026FEAA21114800F029FBC7210F4800F026
:101F300025FB5A210D4800F021FB31460B4800F0EB
:101F4000EBFA290A094800F019FBE9B2074800F04A
:101F500015FB210A054800F011FBE1B2034800F02F
:101F60000DFBBB21014800F009FB70BD34030020CC
:101F7000F8B5030701221B0F9A4009230009DB066D
:101F8000214C224D224E234F000101290AD0202846
:101F900031D024DC00282AD0102819D191B2002297
:101FA000204613E0202814D006DC00280BD010288F
:101FB0000ED191B20122F3E730280DD0502807D17D
:101FC00091B2012211E091B2012212E0FEF7A9FEC6
:101FD000F8BD91B2012210E091B2012211E0302847
:101FE0000DD05028F4D191B200223846EEE791B2DC
:101FF00000221846EAE791B200222846E6E791B2AD
:1020000000223046E2E700000004004800080048D3
:10201000000C004800140048F0B5644C95B0A0696D
:1020200001210843A061A06908401490604800683D
:1020300010255F4928430860022601200896039076
:1020400004950020099005200096C0040A90002005
:102050000B906846FEF7F6FF07200C9000200E90CC
:102060000F900D9601210CA8FEF704FF012010909F
:102070000320129010A8FEF789FEFEF791FF7D2144
:10208000C900FEF787F9FFF795F90420FFF784F9F7
:1020900000221146501EFEF775FE60696F0338433B
:1020A00060616069384014906169A803014361610F
:1020B0006169014014916169400001436161616996
:1020C000014014916169400001436161616901400F
:1020D000149161698000014361616169014014915B
:1020E00034480021417081704171344932480860A0
:1020F000334870310860E0692843E061E0690022FC
:102100002840149011461120FEF73CFE1120FEF7E6
:102110002FFE2D4E2B48306000207060B0602C48A0
:102120002A490068FEF736F9401EF0603546002067
:102130004035286170613046FFF75AF93046FFF7A5
:1021400072F9E169A0150143E161E1692F260140BF
:102150002048149141C5002028601F486860002075
:10216000A860E86028460838083DFFF741F929686B
:102170000020486228680168012211430160A069BB
:102180003843A061A0691549384014902846403072
:1021900042C0002101601049416000218160C1609E
:1021A0000838FFF725F915B0F0BD00000010024017
:1021B00000200240040000200038014004010020FB
:1021C0000044004000100040240200209C630000F6
:1021D0003400002000200040FFFF000000440140C8
:1021E00010B51446FEF75CF8002813D03A21FEF72C
:1021F0004DF800280ED04178002322290CD0002170
:10220000421852787D2A18D02C2A16D06254491CC4
:102210000A29F5DB002010BD002142189278222AFD
:1022200008D07D2A06D02C2A04D06254491C1429D7
:10223000F3DBEFE76354022010BD6354012010BDAF
:1022400030B5002211250324012385B004291BD0B9
:1022500008DC00290FD001290FD002292BD0032937
:1022600016D10DE0052911D0092922D0112922D03B
:1022700012290DD11FE0019200E00193029207E0C4
:1022800002210192029103E00195F7E70195029383
:102290000107090F8B4000090001039400932028D7
:1022A00019D00ADC002812D010280ED169460D483A
:1022B00009E00194E2E70192E9E730280ED05028C6
:1022C00003D169460848FEF783FC05B030BD0920FC
:1022D0006946C006F7E769460448F4E769460448DA
:1022E000F1E700000004004800140048000800481E
:1022F000000C004870B50446407D401C85062069EE
:10230000AD0E006821460F4A99310E46904203D126
:1023100001220D48FFF79CFA206900680B498842AA
:1023200004D1012231460A48FFF792FAA07DA84263
:1023300006D09920015D627D2046193011546575E3
:1023400070BD00000038014004010020004400403E
:102350007401002038B50446007E401C8006800EC3
:102360002076E07D217E884203D100202076E07532
:1023700038BD217E20465930085C694608702069C6
:1023800000680949884204D1012269460748FFF7DD
:10239000BBFA2069006806498842E9D101226946F2
:1023A0000448FFF7B1FA38BD0038014004010020AD
:1023B0000044004074010020417D827D914202D1A1
:1023C0000020C0437047827D01461931515C827DF7
:1023D000521C9206920E827508467047F0B587B07F
:1023E00000240546047500691E4602680F4628460B
:1023F0004449993005908A423CD143488269012181
:1024000089030A43826180690840069003204002E4
:102410000090022001900121032003900291049179
:1024200009206946C006FEF7D3FB002211461B2097
:10243000FEF7A8FC1B20FEF79BFC34483149846062
:10244000C460046182C00C210461C1600838002EA0
:1024500004D0082141620903416300E044622B4833
:10246000FFF713F92948FFF7BBF90122274805991F
:10247000FFF7EEF928690168254881423BD12248DF
:10248000C269012149040A43C261C069084006903B
:102490000C20009002200190012103200390029162
:1024A000049109206946C006FEF792FB00221146FE
:1024B0001C20FEF767FC1C20FEF75AFC1548144947
:1024C0008460C460046182C00C210461C16008386A
:1024D000002E04D0082141620903416300E04462F8
:1024E0000C48FFF7D2F80B48FFF77AF901220948A8
:1024F0000599FFF7ADF92C76EC75AC756C7507B0E6
:10250000F0BD00000038014000100240040100202E
:10251000004400407401002013B5044601202075DA
:10252000E07D6946401C80060A79E37D800E2146E5
:1025300059315A54E17D227EE075914213D12069D0
:1025400000680A49884204D1012201A90848FFF71E
:10255000DBF9206900680749884204D1012201A9FA
:102560000548FFF7D1F901201CBD000000380140EB
:102570000401002000440040740100200268C9B238
:1025800012681047417D807D081A8006800E7047D2
:10259000002242607D22D2008260024A0260016114
:1025A00070470000AC3400081CB5044610A0006859
:1025B000019010A000680090072900D90721802A07
:1025C00000D980220720411AB020014368460171DA
:1025D0002121017042707F218170012201A92046D2
:1025E00000F00AF803226946204600F005F81CBDF9
:1025F000B000000021007F0070B50D46064614466D
:1026000000211820FFF7B4FC06E02978304600F0DE
:1026100053F9641EE4B26D1C002CF6D170BDF8B500
:102620000026074634460096002221463846FFF72A
:10263000BBFF002501226946384600F0C3F86D1C37
:10264000EDB2802DF6D3641CE4B2082CECD3BE743A
:10265000FE743E75F8BD000010B586B041740446A6
:1026600001212D20FFF7ECFD01211820FFF7E8FDE7
:1026700001212F20FFF7E4FD01212E20FFF7E0FDCF
:1026800001211920FFF7DCFD00211920FFF770FC64
:1026900000211820FFF76CFC00212D20FFF768FCBB
:1026A0001420FEF764FA01212D20FFF761FC1420AD
:1026B000FEF75DFA182207A16846FDF75FFD1722B5
:1026C00069462046FFF798FF2046FFF7A8FF06B0AF
:1026D00010BD0000AE00104081CFA1A6A83FD300DE
:1026E000D580D9F1DA12DB408D14AF00F8B50E4673
:1026F0000446417C0127007D0025002910D00028D8
:1027000000D02575202E42D3E27C782A35D8A17CD2
:102710003346204600F06AF8E07C0830E0744CE074
:10272000002800D02575202E0AD3E27C782A0AD80A
:10273000A17C3346204600F099F8E07C801DE074CF
:102740000A2E12D039E0A07C401CC0B2A074082828
:1027500000D3A5742A46E574EAE7A17C202320462D
:1027600000F084F8E07C801DE074E27C782AF4D9E3
:10277000A07C401C1BE0A5741DE0A07C801CC0B2A6
:10278000A074082800D3A5742A46E574BFE70A2E72
:1027900008D012E0A17C2023204600F027F8E07C3E
:1027A0000830E074E27C782AF4D9A07C801CC0B2A6
:1027B000A0740828DFD2E57427750120F8BD817464
:1027C000C274704770B50D460646144601211820A4
:1027D000FFF7CEFB06E02978304600F06DF8641E66
:1027E000E4B26D1C002CF6D170BD0000FFB581B0C5
:1027F0000E46072900D907260398802801D9802092
:10280000039018462038622800D32E231C01FF3C79
:10281000FF3C3146023C039A0198FFF7C5FE0121B7
:102820001820FFF7A5FB104F0025395D641C0198A7
:1028300000F042F86D1CEDB2082DF6D3761CF1B213
:10284000039A0198FFF7B0FE01211820FFF790FBD3
:102850000025395D641C019800F02EF86D1CEDB266
:10286000082DF6D305B0F0BD9C2E0008F8B506463D
:10287000072900D90721802A00D98022184620384C
:10288000622800D32E230620203B43431C463046BB
:10289000FFF78AFE01211820FFF76AFB054F00258C
:1028A000395D3046641C00F007F86D1CEDB2062D52
:1028B000F6D3F8BD502C000870B50C460825002151
:1028C0002F20FFF755FB11E0200601D5012100E084
:1028D00000212E20FFF74CFB01212F20FFF748FBA2
:1028E00000212F20FFF744FB6006040E28466D1ED2
:1028F000EDB20028E8D170BD002242607D22D200F6
:102900008260024A0260017470470000D0340008FF
:10291000704770B515468AB006460A46002008A9D9
:10292000087008AC022D00D20A2529461046FDF792
:1029300031FDC9B202460A2901D2303100E03731F7
:10294000641E2170002AF0D12146304600F02DF897
:102950000AB070BD10B500F028F810BD026812680A
:10296000104710B500F001F810BD70B50C460546D3
:10297000002A03D00A2A07D0D2B213E02868C9B2CD
:1029800002682846904770BD002C0ADA2D21FFF717
:10299000E5FF064661420A222846FFF7BAFF801982
:1029A00070BD0A22FFF7B5FF70BD70B505460C007B
:1029B00009D00846FDF788FC02462868214643688E
:1029C0002846984770BD002070BDF8B514460D46E6
:1029D0000746002608E038682978026838466D1CEA
:1029E0009047002802D0761C641EF4D23046F8BD11
:1029F00070B50546FFF7AEFF0446284600F00CF818
:102A0000001970BD70B50546FFF7ABFF04462846B8
:102A100000F002F8001970BD10B502A1FFF7C5FF64
:102A200010BD00000D0A000010B505490548FFF76C
:102A3000AFFD044804499C30FFF7AAFD10BD00001B
:102A400004010020340300207401002010B500218F
:102A50000348FFF751FF034A0349FDF702FC10BD8D
:102A60003C00002000000008112900088AB0FFF790
:102A7000D3FA02215020FFF7E3FB02215120FFF798
:102A8000DFFB01210820FFF7DBFB01210B20FFF713
:102A9000D7FB00210B20FFF76BFA01210820FFF77D
:102AA00067FA01210520FFF7CBFB01210520FFF785
:102AB0005FFA01214A48FFF7CFFD4AA14848FFF7D6
:102AC00097FF4B214C48C90100230622FFF786FCE3
:102AD0004A4A14205110FFF711FA0026484C0127EA
:102AE00026700120FEF743F85020FFF7D5F90028A3
:102AF00030D0A7705120FFF7CFF9002847D0E770FA
:102B0000FFF798F90128ECD135486A463DA1183005
:102B1000FFF766FB0128E4D16846FDF795FB054603
:102B2000002204212E48FFF74AFE0A2229462C489B
:102B3000FFF768FF012D47D0002202212848FFF748
:102B40003EFE32A12648FFF753FF01210520FFF783
:102B50000FFAC6E7A0780128CCD1A67001210B207E
:102B6000FFF706FA002202211D48FFF728FE2AA1DE
:102B70001B48FFF73DFF00210520FFF7F9F964200E
:102B8000FDF7F5FF00210B20FFF7F2F9B2E7E0783F
:102B90000128B5D1E67001210B20FFF7E9F90022E9
:102BA00002210F48FFF70BFE18A10D48FFF720FF89
:102BB00001210520FFF7DCF96420FDF7D8FF002193
:102BC0000B20FFF7D5F99BE7002202210448FFF70D
:102BD000F6FD11A10248FFF70BFF0021B6E7000048
:102BE0003C000020485553544B4954312041434345
:102BF0004C4F434B00000000340300202222000011
:102C0000000000204143434C4F434B004C4F434B8B
:102C100020434C4F534500004C4F434B204F5045F1
:102C20004E00000010B500290AD00878002807D00F
:102C300005487844FDF76AFB002801D0002010BD4C
:102C40000248784410BD0000DA080000D2080000F5
:102C50000000000000000000FA00000000E000E0BA
:102C6000000028FE28FE28002454FE544800C4C852
:102C7000102646006C926A040A000010E0C00000B2
:102C80000038448200000082443800005438FE3886
:102C9000540010107C10100000021C1800001010CE
:102CA000101010000000060600000408102040006C
:102CB0007C8A92A27C000042FE02000042868A9238
:102CC0006200848292B2CC00182848FE0800E4A278
:102CD000A2A29C003C5292920C0082848890E00058
:102CE0006C9292926C00609292947800000028009E
:102CF00000000000022C0000001028448200282858
:102D00002828280000824428100040808A90600013
:102D10007C82BA9A72003E4888483E00FE929292A7
:102D20006C007C8282824400FE8282827C00FE9261
:102D300092928200FE90909080007C8292925E003F
:102D4000FE101010FE000082FE820000040282FCD1
:102D50008000FE1028448200FE0202020200FE40B3
:102D60003840FE00FE201008FE007C8282827C003B
:102D7000FE90909060007C828A847A00FE90989405
:102D80006200649292924C008080FE808000FC027F
:102D90000202FC00F8040204F800FC021C02FC0021
:102DA000C6281028C600C0201E20C000868A92A215
:102DB000C20000FE828282004020100804000082CF
:102DC0008282FE00204080402000010101010100BC
:102DD00000C0E0100000042A2A2A1E00FE1422224D
:102DE0001C001C22222214001C222214FE001C2A79
:102DF0002A2A180000107E904000182525253E0044
:102E0000FE1020201E000022BE020000000402026C
:102E1000BC0000FE081422000082FE0200003E20DA
:102E20001E201E003E1020201E001C2222221C00FC
:102E30003F1824241800182424183F003E10202096
:102E40001000122A2A2A24002020FC2224003C02FE
:102E500002043E003804020438003C020C023C002C
:102E6000221408142200320909093E0022262A32BF
:102E7000220000106C8200000000EE0000000082C2
:102E80006C10000040804020400000609090600086
:102E90000000FE828282828282FE0000000000002A
:102EA00000000000000000000000000000000E1FF5
:102EB0001F0E0000000000B0B0000000001C1C004D
:102EC000001C1C00000000000000000000041F1F88
:102ED000041F1F040040F0F040F0F040000C1E738F
:102EE000711808000020301C9CF06000183C243D44
:102EF0001B060C000060C0B078487830000D1F122F
:102F00001E0C000000E0F01090E0F0900000001CAB
:102F10001C00000000000000000000000000030F83
:102F20001C1000000000E0F81C0400000000101C51
:102F30000F0300000000041CF8E00000000105077A
:102F400003070501000040C080C0400000010107E8
:102F500007010100000000C0C000000000000000E8
:102F600000000000000000343C38000000010101B6
:102F7000010101000000000000000000000000004E
:102F800000000000000000303030000000000001B0
:102F9000071E1800001878E08000000000000F1FD6
:102FA00010161F0F0000E0F0D010F0E00004040C39
:102FB0001F1F000000000000F0F00000000C1C10BB
:102FC000111F0E00003070D090101000000C1C116A
:102FD000111F0E000060701010F0E00000001F1FB5
:102FE0000007070000C0C04040F0F040001F1F1164
:102FF000111110000010101030E0C0000003071E77
:103000001A13010000E0F01010F0E00000101011A1
:10301000171E1800000070F080000000000E1F1343
:10302000111F0E0000E0F01090F0E000000F1F10E4
:10303000101F0F00000090B0F0C0800000000006DC
:1030400006060000000000303030000000000006DE
:1030500006060000000000343C38000000010306B2
:103060000C181000000080C0603010000002020246
:103070000202020000808080808080000010180C16
:103080000603010000103060C0800000000C1C111D
:10309000131E0C00000000B0B00000000F1F101144
:1030A00013121F0FE0F01090D050D0D000070F186F
:1030B000180F070000F0F08080F0F000001F1F11D3
:1030C000111F0E0000F0F01010F0E000000F1F10B4
:1030D000101C0C0000E0F01010706000001F1F10AA
:1030E000180F070000F0F01030E0C000001F1F11A3
:1030F0001111100000F0F01010101000001F1F112F
:103100001111100000F0F00000000000000F1F106F
:10311000101C0C0000E0F01090F0F000001F1F01E8
:10312000011F1F0000F0F00000F0F0000000101F71
:103130001F100000000010F0F01000000000000060
:10314000001F1F000060701010F0E000001F1F0142
:10315000071E180000F0F000C0F03000001F1F0034
:103160000000000000F0F01010101000001F1F04FD
:1031700003041F1F00F0F0008000F0F0001F1F0686
:1031800003011F1F00F0F0000080F0F0000F1F107F
:10319000101F0F0000E0F01010F0E000001F1F11E2
:1031A000111F0E0000F0F00000000000000F1F10C3
:1031B000101F0F0000E0F01018FCE400001F1F11AA
:1031C000111F0E0000F0F00080F07000000C1E13C4
:1031D000111808000020301090F060000010101F3F
:1031E0001F101000000000F0F0000000001F1F0082
:1031F000001F1F0000E0F01010F0E000001F1F0093
:10320000001F1F0000C0E03030E0C000001F1F00A2
:1032100003001F1F0080F0708070F08000181C07F2
:10322000031C18000070F00080F07000001E1F01E9
:10323000011F1E00000000F0F0000000001010113F
:10324000131E1C000070F0901010100000001F1FD3
:10325000101000000000FEFE0202000000181E0711
:103260000100000000000080E0781800000010104D
:103270001F1F000000000202FEFE00000010306070
:10328000603010000000000000000000000000009E
:10329000000000000202020202020202000040607E
:1032A0007010000000000000000000000000040496
:1032B000040703000060F09090F0F000001F1F046E
:1032C0000407030000F0F01010F0E0000003070412
:1032D0000406020000E0F010103020000003070494
:1032E000041F1F0000E0F01010F0F00000030704BE
:1032F0000407030000E0F0909090800000010F1F91
:10330000111111000000F0F000000000000307049C
:103310000407070000E2F21212FEFC00001F1F0467
:103320000407030000F0F00000F0F0000004043790
:1033300037000000001010F0F0101000000004042E
:103340003737000000020202FEFC0000001F1F00D1
:103350000107060000F0F080C07030000010101F60
:103360001F000000001010F0F0101000000707040C
:103370000704070300F0F000E000F0F00007070486
:103380000407030000F0F00000F0F0000003070461
:103390000407030000E0F01010F0E000000707044D
:1033A0000407030000FEFE1010F0E0000003070415
:1033B0000407070000E0F01010FEFE000007070100
:1033C0000206060000F0F000000000000003070401
:1033D000040404000010909090F0600000041F1F8F
:1033E000040404000000E0F01010100000070700C3
:1033F0000007070000E0F01010F0F00000070700E1
:103400000007070000C0E03030E0C0000007070000
:103410000300070700C0F030C030F0C0000607010D
:1034200001070600003070C0C070300000070700C0
:103430000007070002E2F2161CF8E0000004040492
:1034400005070600003070D0901010000000010F3A
:103450001E1000000080C0783C0400000000001F27
:103460001F000000000000FEFE0000000000101E13
:103470000F0100000000043C78C080000C181018F8
:103480000C040C1800000000000000000000000008
:103490000000000001020304060708090000000004
:1034A00001020304000000000000000019250008CC
:1034B000CB2900080000000000000000852500085E
:1034C000B923000800000000000000000000000018
:1034D000ED260008CB2900080000000000000000D5
:1034E000000000000000000000000000243600087A
:1034F000000000203C000000F800000860360008D2
:103500003C000020940A0000140100081001000093
:1035100043000000F8FFFFFF0040404040404040B3
:103520004040414141414140404040404040404096
:10353000404040404040404040050202020202023A
:103540000202020202020202022020202020202089
:10355000202020020202020202029090909090909D
:10356000101010101010101010101010101010105B
:1035700010101010020202020202888888888888CF
:1035800008080808080808080808080808080808BB
:1035900008080808020202024000000000000000C3
:1035A000000000000000000000000000000000001B
:1035B000000000000000000000000000000000000B
:1035C00000000000000000000000000000000000FB
:1035D00000000000000000000000000000000000EB
:1035E00000000000000000000000000000000000DB
:1035F00000000000000000000000000000000000CB
:1036000000000000000000000000000000000000BA
:1036100000000000000000000000000031F4FFFF87
:1036200009F4FFFF0000000000000000000000009F
:10363000000000000000000000000000000000008A
:10364000000000000000000000000000000000007A
:10365000000000000000000000127A0000000000DE
:04000005080000B53A
:00000001FF
