:020000040000FA
:1000000090030020C10000000F0500000D05000056
:10001000FFFFFFFFFFFFFFFFFFFFFFFFFFFFFFFFF0
:10002000FFFFFFFFFFFFFFFFFFFFFFFF13050000C4
:10003000FFFFFFFFFFFFFFFF110500007505000038
:1000400003010000030100000301000003010000A0
:100050000301000003010000030100000301000090
:100060008D020000FFFFFFFF0301000003010000FD
:100070001D0400000301000003010000FFFFFFFF5B
:10008000FFFFFFFF03010000030100000301000068
:100090000301000003010000030100000301000050
:1000A000AD07000003010000030100000301000090
:1000B0000301000003010000030100000301000030
:1000C0001048804710488047104800471048016991
:1000D000002910D1416900290DD1816900290AD177
:1000E000C169002907D1BFF34F8F0A490A48C86088
:1000F000BFF34F8FFEE77047FEE7FEE7FEE7FEE740
:10010000FEE7FEE7CD000000950500001D010000A0
:100110000003084000ED00E00400FA0505488546AC
:1001200000F094F800F046F800480047AD120000D7
:1001300000F06AF89003002030B50B46014600201D
:100140002022012409E00D46D5409D4205D31D46DD
:100150009540491B2546954040191546521E002DD5
:10016000F1DC30BD10B5431A934209D283188818C8
:1001700003E0401E01785B1E1970521EF9D210BDBB
:1001800003460B439B0703D009E008C9121F08C0B0
:10019000042AFAD203E00B780370401C491C521E5B
:1001A000F9D210BD421C0178401C0029FBD1801AF5
:1001B0007047000070B5054C054D03E0206800193C
:1001C0008047241DAC42F9D170BD0000EC1B00003B
:1001D000F01B0000F8B5074615460E46102000F04B
:1001E000F9FF040009D06760A660E56000F008F838
:1001F0000168216004600020F8BD0120F8BD000006
:1002000000487047D4000020F8B50646FFF7F8FF15
:100210000090054615E0002E02D0E068B0420FD1F4
:10022000206828600098A1680768606888472046B1
:1002300000F09EFF00980068B84202D00098E8E7FE
:1002400025462C68002CE6D1F8BD0000064C01259F
:10025000064E05E0E36807CC2B430C3C984710346E
:10026000B442F7D3FFF75EFFCC1B0000EC1B00008D
:1002700070478030C160704780220029016801D03A
:10028000114300E0914301607047000010B5084C35
:1002900001212046FFF7EDFF206B06490005097894
:1002A000000D054A4900505204490120087010BD54
:1002B000000001400600002000010020070000208F
:1002C0008030002A026801D00A4300E08A430260BD
:1002D0007047930810B59B00181843689207D20E18
:1002E0001F249440A34391400B43436010BD5B1E09
:1002F00012021B04FF3A013A13430B4301688022A8
:1003000011400B43036070470A06120F02674167F2
:100310007047016270470029416F02D001221143EA
:1003200001E049084900416770470000F0B5964672
:100330000A461349C000461800230025FF209840B4
:100340002C46104216D00020012199408C461146BF
:10035000C1406746394206D087000F21B9400D439E
:100360007146B9400C43401C0828F0D33068A843BC
:10037000204330600833361D082BDEDDF0BD000061
:1003800020200240F0B5084F7C6AFD6A3E6B844332
:100390008D439643002B02D004430D4316437C62E9
:1003A000FD623E63F0BD00000080084004498A6A97
:1003B00007231B049A43000402438A62704700002B
:1003C00000800840002A026801D00A4300E08A4306
:1003D00002607047002A426801D00A4300E08A4365
:1003E00042607047002A08D0012A09D082688A43F7
:1003F0008260C2688A43C260704782680A43F7E736
:10040000C2680A43C26082688A4382607047002AD9
:1004100001D041627047816270470000F8B5012148
:100420002F4800F039F9002859D02E4F3878401C59
:10043000387000242C4E2D4D3EE02D48005D39785B
:100440008842305D18D8002806D0102808D020280F
:100450000AD030282ED10BE06000295A002217E084
:100460006000295A002218E06000295A002219E091
:100470006000295A00221AE0002806D0102809D06E
:1004800020280CD0302815D10EE06000295A012216
:1004900018480DE06000295A0122174808E0600062
:1004A000295A0122154803E06000295A0122144804
:1004B000FFF7ADFF641CE4B2124800788442BCD35D
:1004C000074C0121204600F0D5F8204600F0E1F865
:1004D0000D490988401881B2204600F043F9F8BD63
:1004E00000E006400000002024000020F000002072
:1004F0001C00002000000B4000200B4000400B407F
:1005000000600B400400002018000020FEE7704748
:1005100070477047042204490428086902D09043B8
:10052000086170471043FBE700E000E0074900283E
:1005300006D00128086906D04008400008617047CD
:1005400000208861704701221043F7E700E000E0D7
:10055000044902220028086901D0104300E09043BA
:100560000861704700E000E0014948617047000001
:1005700000E000E005480168002902D00168491E3A
:10058000016003480168491C016070470C000020AD
:1005900010000020F0B532481027C7603149012013
:1005A00008603148016B4024214301632F498A6868
:1005B000272AFCD1416A0322920291434162416899
:1005C0000122D202114341608168C908C907FBD0EA
:1005D0004168C908C900C91C4160416B4907490FFE
:1005E0000329FAD1224B1968C908C900491C1960AE
:1005F00000250562426859158A43426006684A1020
:1006000016430660066BA643066304681443046041
:1006100003221206826142680A43426081684908E7
:10062000C907FBD01968C908C900891C196005628F
:100630004168C908C900491C4160416B4907490F1D
:100640000129FAD119683943196019680122120386
:10065000114319604168921091434160F0BD000060
:1006600000810840008308400080084000A1064047
:1006700000020840C943C167BFF34F8F704700298C
:10068000016902D00122114301E0490849000161DA
:100690007047803000697047C26F406F0A40084061
:1006A000002A03D0002801D00120704700207047A5
:1006B000002A426F01D00A4300E08A434267704734
:1006C000F0B50C78A200121815461346A0329035EA
:1006D000944662064033AE46120E03249440204DE9
:1006E000E443A84202D001249440E4431C4E056D2B
:1006F00025400565456D2540B0428E7902D1CF7900
:100700007F003E4396402E434665154FB84208D1C0
:10071000C66E4D7A26400C7A6D002C4394403443CB
:10072000C4661C68FF250835AC431C601C684D88F6
:100730002C431C604C8973461C608C8963461C608A
:10074000B84206D10B79497949000B439340016DBA
:1007500002E0036D097991400B430365F0BD000091
:1007600000C00240803001617047000010B50246B1
:100770000B88803293604B88536003680324240401
:10078000A3430360036801242406A34303600368B2
:100790008C6823430360044B984201D10B79D360EA
:1007A0008989816710BD000000C0024070B51C4DF2
:1007B0008021284600F03EF81A4C00281AD06068C4
:1007C000002817D0204621680C30415C284600F0F4
:1007D00041F82068401C20606068C1B22068C0B247
:1007E000814207D100206060206002460221284635
:1007F00000F025F82021284600F01CF800280ED033
:100800002021284600F012F8284600F020F806497A
:10081000A2688854A068401C4006400EA06070BDCD
:10082000000004403C0000201001002002690A4042
:10083000026170470069084000D001207047002A1B
:10084000C26801D00A4300E08A43C2607047006872
:1008500080B270470160704710B500F003F8801057
:1008600010BD0000F8B58B4900250F460446283F0F
:100870002E46787837E04A5DA24232D1BD70FE70D4
:10088000052C25D006DC230000F064FC05090C19BA
:100890001C1F1100062C1ED0072C08D11EE00022C0
:1008A000114601E0002201217B48FFF712FD0121E2
:1008B0007948FFF730FDF8780028FCD0D3E000221B
:1008C0000221F1E700220321EEE700220421EBE7F9
:1008D00000220521E8E700220621E5E700220721A2
:1008E000E2E76D1CEDB28542C5D3082819D2002C71
:1008F00019D0012C17D0022C15D0032C13D0042CA6
:1009000011D0052C0FD0062C0DD0072C0BD0102C9D
:1009100009D0112C07D0602C05D0612C03D0622C9B
:1009200001D00020F8BD0C54602C07D0612C05D0FC
:10093000622C03D00921204600F06EF9052C33D03B
:1009400006DC230000F006FC050D141B22294800DC
:10095000062C30D0072C35D0602C3AD0612C3BD1FE
:1009600039E0022201210020FFF7E0FC002533E0FE
:10097000022211460020FFF7D9FC01252CE00222BB
:1009800004210020FFF7D2FC022525E002220821E5
:100990000020FFF7CBFC03251EE0022210210020DF
:1009A000FFF7C4FC042517E0022220210020FFF7F6
:1009B000BDFC052510E0022240210020FFF7B6FC17
:1009C000062509E0022280210020FFF7AFFC072561
:1009D00002E0102500E011252E49787808310D54E9
:1009E00000281DD10720FFF7E1FC2B4D0023012239
:1009F00019462846FFF77BFC10212846FFF784FCA8
:100A000024212846FFF785FC012211462846FFF7DE
:100A100057FC01212846FFF72FFC2049A815086044
:100A20007878B870401C7870FE70052C29D006DCF0
:100A3000230000F08FFB05090C1D20231100062C5C
:100A400022D0072C08D122E00022114601E000222A
:100A500001211148FFF73DFC01210F48FFF75BFC26
:100A6000F8780028FCD0B87841000D48405AF8BD0D
:100A700000220221EDE700220321EAE700220421FF
:100A8000E7E700220521E4E700220621E1E7002252
:100A90000721DEE72C0000200000014000E100E01B
:100AA0000001002070B5064600070122000F8240B9
:100AB0001A481B4B1B4C1C4D01290CD03109090154
:100AC00021D0102922D0202924D0302917D191B249
:100AD0000022284611E03109090108D0102909D067
:100AE00020290DD030290AD191B20122F1E791B22B
:100AF000012202E091B201220AE0FFF788FC70BDFA
:100B000091B2012208E091B20022F6E791B20022F0
:100B10001846F2E791B200222046EEE700000B40B3
:100B200000200B4000400B4000600B40F0B500245B
:100B30000F25432689B02D043602601FFFF7EAFC1B
:100B4000234F7D2189013868FFF7F6FAFFF70CFD86
:100B50000120FFF7FDFC01231E4A31462846FFF71E
:100B600011FC1D4D2C706C702C71601E6946029436
:100B700008801A484880FF200130194E888130468D
:100B8000FFF7F4FD1748694628614988491C41432D
:100B90003868FFF7D1FA0322694668614A82012268
:100BA0000A758C750C74488304A93046FFF788FDDC
:100BB000012211463046FFF77BFD01200A49000360
:100BC000086001213046FFF75AFD09B0F0BD000072
:100BD000C80000200001000104000020CF07000031
:100BE00000E006401027000000E100E010B50446D8
:100BF0000020FFF79BFC0120FFF798FC05498C6063
:100C000088680028FCD1801EFFF790FC0020FFF7C9
:100C10008DFC10BD04000020030770B51B0F0122DE
:100C20009A40000995B2000106D0102806D020286D
:100C300006D0302807D105E0224C04E0224C02E027
:100C4000224C00E0224C04293AD00EDC00291FD0AF
:100C5000012924D0022928D0032918D100222946AD
:100C60002046FFF7AFFB012225E0052928D00929FE
:100C70000DD0112901D0122909D100222946204680
:100C8000FFF7A0FB012229462046FFF7A3FB70BD1A
:100C9000002229462046FFF795FB02220BE00122A5
:100CA00029462046FFF78EFB70BD002229462046CC
:100CB000FFF788FB002229462046FFF793FBE1E778
:100CC0000122DBE700000B4000200B4000400B40FE
:100CD00000600B401CB5044610A00068019010A0F5
:100CE00000680090072900D90721802A00D98022B6
:100CF0000720411AB02001436B461971212018705A
:100D00005A707F209870012201A9204600F00AF84D
:100D100003226946204600F005F81CBDB000000023
:100D200021007F0070B50D460646144600212F2095
:100D3000FFF7B8FE06E02978304600F053F9641E4C
:100D4000E4B26D1C002CF6D170BDF8B50027064644
:100D50003D460097002229463046FFF7BBFF00249E
:100D600001226946304600F0C3F8641CE4B2802CCE
:100D7000F6D36D1CEDB2082DECD3B774F77437754C
:100D8000F8BD000010B586B041740446012116205C
:100D9000FFF742FF01212F20FFF73EFF012118201E
:100DA000FFF73AFF01211720FFF736FF01212E2020
:100DB000FFF732FF00212E20FFF774FE00212F20C5
:100DC000FFF770FE00211620FFF76CFE1420FFF7DE
:100DD0000DFF01211620FFF765FE1420FFF706FF27
:100DE000182207A16846FFF7BDF917226946204679
:100DF000FFF798FF2046FFF7A8FF06B010BD0000E0
:100E0000AE00104081CFA1A6A83FD300D580D9F174
:100E1000DA12DB408D14AF00F8B50F460446417C72
:100E20000126007D0025002910D0002800D025755E
:100E3000202F42D3E27C782A35D8A17C3B4620463D
:100E400000F06AF8E07C0830E0744CE0002800D044
:100E50002575202F0AD3E27C782A0AD8A17C3B464C
:100E6000204600F099F8E07C801DE0740A2F12D033
:100E700039E0A07C401CC0B2A074082800D3A5743F
:100E80002A46E574EAE7A17C2023204600F084F896
:100E9000E07C801DE074E27C782AF4D9A07C401CC0
:100EA0001BE0A5741DE0A07C801CC0B2A0740828C3
:100EB00000D3A5742A46E574BFE70A2F08D012E0D4
:100EC000A17C2023204600F027F8E07C0830E07465
:100ED000E27C782AF4D9A07C801CC0B2A0740828D7
:100EE000DFD2E57426750120F8BD8174C2747047A5
:100EF00070B50D460646144601212F20FFF7D2FD9E
:100F000006E02978304600F06DF8641EE4B26D1CEE
:100F1000002CF6D170BD0000FFB581B00F46072947
:100F200000D907270398802801D98020039018460C
:100F30002038622800D32E231C01FF3CFF3C394699
:100F4000023C039A0198FFF7C5FE01212F20FFF70D
:100F5000A9FD104E0025315D641C019800F042F897
:100F60006D1CEDB2082DF6D37F1CF9B2039A0198DF
:100F7000FFF7B0FE01212F20FFF794FD0025315D22
:100F8000641C019800F02EF86D1CEDB2082DF6D30C
:100F900005B0F0BDB8150000F8B50746072900D91F
:100FA0000721802A00D9802218462038622800D3E1
:100FB0002E230620203B43431C463846FFF78AFE7B
:100FC00001212F20FFF76EFD054E0025315D3846CB
:100FD000641C00F007F86D1CEDB2062DF6D3F8BDC9
:100FE0006C13000070B50D46082400211820FFF78F
:100FF00059FD11E0280601D5012100E0002117204C
:10100000FFF750FD01211820FFF74CFD00211820AB
:10101000FFF748FD6806050E2046641EE4B200286E
:10102000E8D170BD002242607D22D2008260024A77
:101030000260017470470000B01B0000704770B57B
:1010400015468AB006460A46002008A9087008AC72
:10105000022D00D20A2529461046FFF76DF8C9B2C5
:1010600002460A2901D2303100E03731641E217076
:10107000002AF0D12146304600F02DF80AB070BDAC
:1010800010B500F028F810BD02681268104710B5BE
:1010900000F001F810BD70B50C460546002A03D0DB
:1010A0000A2A07D0D2B213E02868C9B202682846DB
:1010B000904770BD002C0ADA2D21FFF7E5FF0646A8
:1010C00061420A222846FFF7BAFF801970BD0A2242
:1010D000FFF7B5FF70BD70B505460C0009D0084696
:1010E000FFF760F80246286821464368284698477B
:1010F00070BD002070BDF8B515460C4607460026A9
:1011000008E03868217802683846641C9047002857
:1011100002D0761C6D1EF4D23046F8BD70B505467F
:10112000FFF7AEFF0446284600F00CF8001970BD2A
:1011300070B50546FFF7ABFF0446284600F002F8FD
:10114000001970BD10B502A1FFF7C5FF10BD00006A
:101150000D0A000030B47446641E2578641CAB424E
:1011600000D21D46635D5B00E31830BC18470000E9
:1011700030B5002805D0164C021F20680023014618
:1011800005E0084630BD904203D803464068002879
:10119000F9D1002B00D05968002B0AD01C68D51A51
:1011A000A54204D11268A4181A461C6002E05A60D5
:1011B00000E02260002807D01468851AA54203D1F8
:1011C00005686419146040685060184630BD00001E
:1011D000CC000020F1B50E4C0F480C4E001B0D4FFB
:1011E000C508ED0000221146009800F037F80028ED
:1011F00003D13068002801D00020F8BD3C600020F9
:101200002560606001203060ECE70000D000002025
:1012100094010020CC0000209001002002E008C8CA
:10122000121F08C1002AFAD170477047002001E060
:1012300001C1121F002AFBD17047000010B5002128
:101240000348FFF7EFFE034A0349FEF7C3FF10BD53
:10125000D8000020000000003D100000F8B50B3061
:10126000C608F600104D19E02068B04215D3B04210
:101270000BD96368871B201D0093FEF773FFA0192D
:10128000009B07604360286004E060682860201DC0
:10129000FEF768FF201D2660F8BD251D2C68002C78
:1012A000E2D10020F8BD0000CC000020FFF73EFC9A
:1012B00002212020FFF7B0FC02212A20FFF7ACFC1E
:1012C00001211F20FFF7A8FC01212B20FFF7A4FC20
:1012D00000212B20FFF7E6FB01211F20FFF7E2FB97
:1012E00001211948FFF74EFD18A11748FFF716FF17
:1012F0000120FFF7B1FA0446002204211248FFF74B
:10130000F4FD17A11048FFF7BBFE0A2221460E4844
:10131000FFF70EFFC820FFF769FC00212B20FFF725
:10132000C1FB00211F20FFF7BDFB0520FFF75EFC7E
:1013300001212B20FFF7B6FB01211F20FFF7B2FB95
:101340000520FFF753FCD3E7D80000204C6C6C75E8
:101350006D696E616E6365205465737400000000F2
:1013600053656E736F72203D200000000000000086
:1013700000000000FA00000000E000E0000028FE8D
:1013800028FE28002454FE544800C4C810264600F5
:101390006C926A040A000010E0C000000038448229
:1013A00000000082443800005438FE385400101009
:1013B0007C10100000021C1800001010101010000B
:1013C0000000060600000408102040007C8A92A25B
:1013D0007C000042FE02000042868A926200848203
:1013E00092B2CC00182848FE0800E4A2A2A29C00F9
:1013F0003C5292920C0082848890E0006C9292920F
:101400006C006092929478000000280000000000B8
:10141000022C0000001028448200282828282800D8
:1014200000824428100040808A9060007C82BA9A32
:1014300072003E4888483E00FE9292926C007C8288
:1014400082824400FE8282827C00FE92929282001E
:10145000FE90909080007C8292925E00FE101010B0
:10146000FE000082FE820000040282FC8000FE106A
:1014700028448200FE0202020200FE403840FE00C4
:10148000FE201008FE007C8282827C00FE909090FC
:1014900060007C828A847A00FE9098946200649254
:1014A00092924C008080FE808000FC020202FC00D0
:1014B000F8040204F800FC021C02FC00C6281028F4
:1014C000C600C0201E20C000868A92A2C20000FE74
:1014D0008282820040201008040000828282FE0086
:1014E00020408040200001010101010000C0E01007
:1014F0000000042A2A2A1E00FE1422221C001C229C
:10150000222214001C222214FE001C2A2A2A18005F
:1015100000107E904000182525253E00FE1020205A
:101520001E000022BE02000000040202BC0000FEF9
:10153000081422000082FE0200003E201E201E0031
:101540003E1020201E001C2222221C003F182424B2
:101550001800182424183F003E1020201000122AE2
:101560002A2A24002020FC2224003C0202043E00FF
:101570003804020438003C020C023C002214081417
:101580002200320909093E0022262A3222000010D8
:101590006C8200000000EE00000000826C10000071
:1015A0004080402040000060909060000000FE827B
:1015B0008282828282FE00000000000000000000A3
:1015C000000000000000000000000E1F1F0E0000C1
:1015D000000000B0B0000000001C1C00001C1C003B
:1015E000000000000000000000041F1F041F1F0473
:1015F0000040F0F040F0F040000C1E73711808003D
:101600000020301C9CF06000183C243D1B060C00A0
:101610000060C0B078487830000D1F121E0C00002A
:1016200000E0F01090E0F0900000001C1C000000B2
:1016300000000000000000000000030F1C1000006C
:101640000000E0F81C0400000000101C0F03000064
:101650000000041CF8E00000000105070307050175
:10166000000040C080C040000001010707010100E8
:10167000000000C0C00000000000000000000000EA
:10168000000000343C3800000001010101010100AC
:10169000000000000000000000000000000000004A
:1016A000000000303030000000000001071E18006C
:1016B000001878E08000000000000F1F10161F0FB8
:1016C0000000E0F0D010F0E00004040C1F1F000048
:1016D00000000000F0F00000000C1C10111F0E00B4
:1016E000003070D090101000000C1C11111F0E0063
:1016F0000060701010F0E00000001F1F00070700DE
:1017000000C0C04040F0F040001F1F111111100038
:101710000010101030E0C0000003071E1A13010073
:1017200000E0F01010F0E00000101011171E18007B
:10173000000070F080000000000E1F13111F0E004B
:1017400000E0F01090F0E000000F1F10101F0F00DD
:10175000000090B0F0C08000000000060606000007
:1017600000000030303000000000000606060000D7
:10177000000000343C380000000103060C18100083
:10178000000080C06030100000020202020202006D
:1017900000808080808080000010180C060301000B
:1017A00000103060C0800000000C1C11131E0C00E3
:1017B000000000B0B00000000F1F101113121F0F27
:1017C000E0F01090D050D0D000070F18180F07008D
:1017D00000F0F08080F0F000001F1F11111F0E00BC
:1017E00000F0F01010F0E000000F1F10101C0C00B3
:1017F00000E0F01010706000001F1F10180F0700AD
:1018000000F0F01030E0C000001F1F111111100097
:1018100000F0F01010101000001F1F111111100027
:1018200000F0F00000000000000F1F10101C0C0062
:1018300000E0F01090F0F000001F1F01011F1F00DA
:1018400000F0F00000F0F0000000101F1F1000007A
:10185000000010F0F010000000000000001F1F004A
:101860000060701010F0E000001F1F01071E18003C
:1018700000F0F000C0F03000001F1F00000000006A
:1018800000F0F01010101000001F1F0403041F1FB1
:1018900000F0F0008000F0F0001F1F0603011F1F82
:1018A00000F0F0000080F0F0000F1F10101F0F007C
:1018B00000E0F01010F0E000001F1F11111F0E00DB
:1018C00000F0F00000000000000F1F10101F0F00BC
:1018D00000E0F01018FCE400001F1F11111F0E00A3
:1018E00000F0F00080F07000000C1E1311180800CA
:1018F0000020301090F060000010101F1F1010002A
:10190000000000F0F0000000001F1F00001F1F007B
:1019100000E0F01010F0E000001F1F00001F1F008B
:1019200000C0E03030E0C000001F1F0003001F1F98
:101930000080F0708070F08000181C07031C1800F5
:101940000070F00080F07000001E1F01011F1E00DB
:10195000000000F0F000000000101011131E1C0029
:101960000070F0901010100000001F1F10100000F9
:101970000000FEFE0202000000181E070100000029
:1019800000000080E0781800000010101F1F000009
:1019900000000202FEFE0000001030606030100007
:1019A0000000000000000000000000000000000037
:1019B00002020202020202020000406070100000F7
:1019C0000000000000000000000004040407030001
:1019D0000060F09090F0F000001F1F040407030067
:1019E00000F0F01010F0E00000030704040602000D
:1019F00000E0F0101030200000030704041F1F0057
:101A000000E0F01010F0F0000003070404070300EA
:101A100000E0F0909090800000010F1F1111110064
:101A20000000F0F0000000000003070404070700B6
:101A300000E2F21212FEFC00001F1F040407030064
:101A400000F0F00000F0F000000404373700000060
:101A5000001010F0F01010000000040437370000F0
:101A600000020202FEFC0000001F1F00010706002A
:101A700000F0F080C07030000010101F1F00000048
:101A8000001010F0F010100000070704070407030F
:101A900000F0F000E000F0F0000707040407030086
:101AA00000F0F00000F0F00000030704040703005A
:101AB00000E0F01010F0E000000707040407030046
:101AC00000FEFE1010F0E00000030704040707000A
:101AD00000E0F01010FEFE000007070102060600FD
:101AE00000F0F000000000000003070404040400FC
:101AF0000010909090F0600000041F1F0404040088
:101B00000000E0F0101010000007070000070700B9
:101B100000E0F01010F0F0000007070000070700D9
:101B200000C0E03030E0C0000007070003000707F6
:101B300000C0F030C030F0C0000607010107060009
:101B4000003070C0C07030000007070000070700B9
:101B500002E2F2161CF8E000000404040507060087
:101B6000003070D0901010000000010F1E10000017
:101B70000080C0783C0400000000001F1F0000002F
:101B8000000000FEFE0000000000101E0F0100001B
:101B90000000043C78C080000C1810180C040C18CD
:101BA0000000000000000000000000000000000035
:101BB000190E0000F71000000000000000000000F7
:101BC000000000000000000000000000F01B00000A
:101BD00000000020D80000001C120000C81C0000FB
:101BE000D8000020B80200002C12000051F6FFFFC0
:101BF00000000000000000000000000000000000E5
:101C000000000000000000000000000000000000D4
:101C100000000000000000000000000000000000C4
:101C200000000000000000000000000000000000B4
:101C30000000000000000000414243444500000055
:101C40000000000000000000000000000000000094
:101C50000000000000000000000000000000000084
:101C60000000000000000000000000000000000074
:101C70000000000000000000000000000000000064
:101C80000000000000000000000000000000000054
:101C90000000000000000000000000000000000044
:101CA0000000000000000000000000000000000034
:101CB0000000000000000000006CDC0200000000DA
:081CC00000000000000000001C
:04000005000000C136
:00000001FF
