:020000040800F2
:1000000040090020A101000827220008252200083D
:1000100000000000000000000000000000000000E0
:10002000000000000000000000000000AD0100081A
:100030000000000000000000AF0100086D22000871
:10004000B301000800000000B3010008B30100087C
:10005000B301000859140008B3010008B3010008F7
:1000600000000000B3010008B3010008B30100085C
:1000700091130008B3010008B3010008000000005C
:10008000B3010008D522000800000000B3010008F9
:10009000B3010008B3010008B3010008B301000870
:1000A000B3010008B3010008B30100089924000857
:1000B000A924000800F002F800F047F80CA030C8AE
:1000C000083824182D18A246671EAB4654465D46D4
:1000D000AC4201D100F039F87E460F3E0FCCB64657
:1000E0000126334200D0FB1AA246AB4633431847E1
:1000F000943A0000B43A0000103A02D378C878C1AC
:10010000FAD8520701D330C830C101D504680C6059
:10011000704700000023002400250026103A01D378
:1001200078C1FBD8520700D330C100D50B607047AF
:100130001FB50098019900F06CFF00F05BF91FBD3E
:1001400010B5002000F0C3FF10BD01F081F811468A
:10015000FFF7EEFF02F0BCFF01F099F803B4FFF7E0
:10016000EFFF03BC01F06EF870B505460C4616466D
:1001700002E00FCC0FC5103E102EFAD2082E02D38B
:1001800003CC03C5083E042E07D301CC01C5361F9E
:1001900003E021782970641C6D1C761EF9D270BDB5
:1001A0000748804707480047FEE7FEE7FEE7FEE70F
:1001B000FEE7FEE704480549054A064B7047000084
:1001C00079220008B5000008400300204009002003
:1001D000400500204005002070B50446051F00F0D2
:1001E000F7FE0068002C1AD0446801E020466468DD
:1001F000002C01D0AC42F9D301680A18AA4204D1FC
:100200002A6805468918016000E0456028684119A0
:10021000A14205D16168696021684018286070BDFD
:100220006C6070BDF8B5074615460E46102000F00C
:100230001DFF040009D06760A660E56000F0CCFEF9
:100240000168216004600020F8BD0120F8BD0000B5
:1002500030B5441C03E00178401C00290DD0810713
:10026000F9D10B4BDD0104C8D11A91432940FAD0D2
:10027000001B0A0603D0C01E30BD001B30BD0A049F
:1002800001D0801E30BD0902FCD0401E30BD0000F0
:1002900001010101002203098B422CD3030A8B4286
:1002A00011D300239C464EE003460B433CD400226E
:1002B00043088B4231D303098B421CD3030A8B4280
:1002C00001D394463FE0C3098B4201D3CB01C01A4E
:1002D000524183098B4201D38B01C01A5241430919
:1002E0008B4201D34B01C01A524103098B4201D307
:1002F0000B01C01A5241C3088B4201D3CB00C01A74
:10030000524183088B4201D38B00C01A52414308EB
:100310008B4201D34B00C01A5241411A00D2014610
:100320005241104670475DE0CA0F00D049420310A9
:1003300000D34042534000229C4603098B422DD3F8
:10034000030A8B4212D3FC22890112BA030A8B42A0
:100350000CD3890192118B4208D3890192118B42EF
:1003600004D389013AD0921100E08909C3098B4274
:1003700001D3CB01C01A524183098B4201D38B01B7
:10038000C01A524143098B4201D34B01C01A52415A
:1003900003098B4201D30B01C01A5241C3088B429F
:1003A00001D3CB00C01A524183088B4201D38B008A
:1003B000C01A5241D9D243088B4201D34B00C01A14
:1003C0005241411A00D20146634652415B10104629
:1003D00001D34042002B00D54942704763465B1071
:1003E00000D3404201B50020C046C04602BD704760
:1003F0007047704770B5064C7C44064D7D4403E061
:10040000206800198047241DAC42F9D170BD00005E
:10041000A8370000A83700000246C80FC007814374
:100420004B0030B54B405B009B0D20D01923DB0601
:10043000C91801231B05994220DB0324A4070425C6
:100440001346AB400BD3002B04D1EB0613409B00AB
:10045000E34204D401246407002312195941FF2305
:100460001B0599420BD2C9000143500F09E0CB0292
:1004700004D501430803024305D0054830BDFF21E0
:10048000C905084330BD084607210905884330BD2A
:100490000000C07FF0B50C46871A9C410D46861AB5
:1004A0009D4103D2C01BA141D21963410D0D1F0D07
:1004B000C94EEC1BAE435CD07F057F0D0026002F9C
:1004C00051D02D05AC46A943DD020123ED0A1B05E1
:1004D0001D4320231B1B24D41746E74038187141C5
:1004E0002F46E740CC199D402818314661410C0D3C
:1004F00027D161449A4013D50023401C5941520032
:100500000ED14008400001224B005205D34207D3D0
:1005100005204007C14201D5B04900E0B04930464E
:10052000F0BD6B00002A00D001229A181F23203C46
:100530001B1B01D5002302E0E540281871410C0D7A
:10054000D7D0012424050919C407CD07400849085C
:10055000E40F28436144002CD5D00024401C6141A5
:100560009A40D0D1CDE76A05520DD9D1C90FC9073C
:10057000D5E79C4D4E00002801D0012400E0002466
:1005800034195F00002A01D0012600E00026BE19C0
:10059000954FAC420CD8AE420AD8B44206D00125E1
:1005A0006D05EC42BCD010461946F0BD9942FCD016
:1005B00000203946F0BDF0B51FB40C460F46811A35
:1005C0009F412546861A9D4106D20125ED076F40C1
:1005D000401ABC4152187B41210D1E0D8D1BAC46AB
:1005E0007D4D8D437ED075056D0D7CD00D05AE46DD
:1005F000AC431B031B0B794D52429D4120236646A1
:100600009B1B14D31746F7403818002600907441FE
:1006100060462F460741E41900989D40281866411E
:1006200016D4714671189A4025D5012320E09318FD
:100630002A466A415200002B00D0521C1E23203E45
:100640009B1B002B61DD3541EE1728186641E8D56C
:10065000001876415B1C9A4000D3401C4B05F318F0
:100660001524E34010D3002B52D071467118D30FDC
:10067000C01802D3491C05B0F0BD0123DB079A4224
:10068000F9D140084000F6E701225205B21801D125
:10069000002853D00123CC0ADB029943891E002A8B
:1006A00008D1020C03D0020C0004103902E002460B
:1006B000002020390023550B05D112020823550BC9
:1006C00001D152010D23550C01D112011B1DD50C76
:1006D00001D192009B1C150D01D152005B1C2025FD
:1006E000EE1A01E02CE022E00546F5401543984063
:1006F000CA1AE10769181305C918002ABBDA0320D2
:1007000040070818C10FC9070FE071466118B2E72A
:10071000F10740080843711071444A000CD00123CE
:100720005B059A42A7D2C90FC9070020A3E7490574
:10073000490D26D1002001E00028F4D100219AE7DC
:10074000284D6600002801D0012100E00021711829
:100750005F00002A01D0012600E00026BE19224FCA
:10076000A94210D8AE420ED8B14208D001256D057D
:10077000E94206D01946A802414010467BE79C4258
:1007800001D0214677E70020394674E710B50C46C2
:100790005C4005D50124E4076340FFF70CFF10BD62
:1007A000FFF778FE10BD30B40C465C4004D5012440
:1007B000E407634030BC6DE630BCFCE670B5012454
:1007C000E40761400D465D4002D4FFF763FE70BD53
:1007D0006340FFF7F0FE70BDFF0700000000F0FF70
:1007E0000000F07F0000E0FF0000F87FF0B5F94D59
:1007F0000C091E092C402E402F468BB0A7437DD0FC
:10080000B543FCD0002E7AD0002CFCD00D465D40C4
:10081000ED0F2543AC1BFF25AD0464190894C502F8
:10082000440DC9022143500DDC0204430120C007DE
:1008300001430443D2020191200C110C00958C4617
:10084000010423468B430A9161460904E24D8A4321
:100850000991010A7D4449198039097805464D43BB
:1008600001266D18F605751B6943C90C640B891CBC
:100870004C436418B5012C1B250C2E04B4434C4387
:100880004D43210C691889090591009DE90701D0A4
:100890000121C90704912C4601996708CD072F4310
:1008A0004C08059DE10B4D432D0C294666467543CA
:1008B00002950D4645432E46029D7D1BB441009591
:1008C0000D465D4301942C0C2F040D465543AE4656
:1008D0002D0C3D43029503947546049C2D04641B26
:1008E000049406D2029C039D641C00267541039566
:1008F000029401AC70CC009F7D1B01E03EE162E1FF
:10090000B44109040095079101940599A408614335
:10091000090C0C464443650BE7040C4666467443D9
:10092000A646640B3C43039502947446049DE4047C
:100930002C1B049406D2029C039D641C0026754166
:100940000395029401AC70CC009F7D1BB4410194CF
:100950000C465C430095650FE7000C465443A646E1
:10096000640F3C43039502947446049DE4002C1BE1
:10097000049406D2029C039D641C002675410395D5
:10098000029401AC70CC009F7D1BB441AE09AF0650
:10099000049DC900AD092F43049DA406AD0604952E
:1009A000079D344369180791059DE10B4D432D0CBC
:1009B00029466646754302950D4645432E46029DDF
:1009C0007D1BB44100950D465D4301942C0C2F0412
:1009D0000D465543AE462D0C3D4302950394754696
:1009E000049C2D04641B049406D2029C039D641C89
:1009F000002675410395029401AC70CC009F7D1BCD
:100A0000B44101948C050694079C890A61180095ED
:100A10000791019C0599A4086143090C0D464543C3
:100A2000680BEF040D46644665436C0B3C43049F22
:100A3000ED047D1BAC4602D20025641C6841009E7B
:100A4000019D371B85410846584301950C46460FCA
:100A5000C5005443600F28436546E4002C1B02D2B6
:100A60000025401C6E41019D3F1AB5412846BD0935
:100A7000800628438446A009BF064E020699A406B4
:100A800076180743079D002068410A99079019438B
:100A90000020099B00906046FF1913434041E20F7C
:100AA00064003A43A4460446D71A8C41A04203D9B5
:100AB0000120009020463A46C70F941840416246F4
:100AC000D20F2243644664000494009CBE46640036
:100AD000D71AA446044602978C417746002F01D1CD
:100AE000A04204D96046401C8446029A2046C40FA6
:100AF000A64694184041049A0546D20F2243644604
:100B00006400D31A8D417146002901D1A84202D94F
:100B100028461A46641C10430122002800D01643C0
:100B200061020020079B891904465C410223002CC6
:100B300002DB491813466441089DCE0A2D145D1945
:100B40004B056705E10A2C050D1908993E43C907B5
:100B50006940002B08D0934006D30022761C5141F7
:100B6000002B01D1760876001C4A002D43DB15428C
:100B700041D0AA433FD030460BB0F0BD06180D4619
:100B80004D41174C7642AC411AD395181C465C4136
:100B9000134A6D42A24113D3012252054C00D442A4
:100BA0000AD15C00D4420BD04B4002D592021143D3
:100BB000E2E749004908DFE75940C90FC90718E0D3
:100BC00000200849D8E7054801420DD10342F7D07B
:100BD000F2E700000000FF076C3200000000F07F29
:100BE0000000E0FF0000F87F114859400143C012A7
:100BF00041400020C0E70123089A9B069A4205DC89
:100C0000032252078918C90FC907B5E70522520701
:100C10008918074A1143D2125140ADE770B5154605
:100C20001C4602460B4628462146FFF7DFFD70BDF5
:100C3000FFFFFF7F0346CA02400D10B510430A159F
:100C400004D00124E4072043002A05DB0A4CA21A41
:100C500004D4D040FF2A00DD002010BD4A00002B44
:100C600001D0012000E00020101801225205D042DE
:100C7000F2D8C817C04310BD1E0400001F22030C89
:100C800002D10F22000402D0030E03D004E00020A2
:100C9000014670470002083A030F01D10001121FFC
:100CA000830F01D18000921E002801DB4000521EFC
:100CB000120551184205C012411810467047C10F65
:100CC000C90700D04042012292071143D6E7012113
:100CD0008907D3E7F0B58B4C0F09254689B0BD4392
:100CE0007BD01D092646AE43FAD00E465E40274013
:100CF000F60F3E43254071D024012142FBD0FF2452
:100D0000AD19A4042D1B039501252D05DB02DB0A7B
:100D1000C9022B43C90A29431E010901040F130FFD
:100D2000050121431701880B820391432D098C464D
:100D3000A90B1E438A039543B30B9A0396433F09BD
:100D4000BA0B9403A74302962E467E430497B646F9
:100D50004E19D7190C460196544305977E43371B0D
:100D60007646BF1B3601B646BE0B36190096764650
:100D7000BC043719009C01D3641C00946400002F4C
:100D800001D001263443029E049F754366467E438C
:100D90000496760034196E0034190094029C019E6A
:100DA0001C196643751BAE46069465464519059C9D
:100DB00005956C43594375460891691A0191049E43
:100DC00001465143A41B0491611A009C0791E1065E
:100DD00005D061090122114302E072E06EE0610971
:100DE000089D00272C0A2D066918049D7C412A0ABB
:100DF0002D066918019D6241AC0DAD026D1854417C
:100E0000079A910D920255196141029A644658431E
:100E10005443069B059A5A43121A131B9A0E9B01C0
:100E20005B187A41010B0005C3185141220A2006C4
:100E300044195A419A4200D2491C01204002814281
:100E400003D315230226F64302E014230326F643B8
:100E50002020C51AA9401746AF40DA400A43204671
:100E60000399D8400914731819055118039A384387
:100E7000D2075140AC4009D00122944006D3002251
:100E8000401C5141002C01D1400840001E4A9342B1
:100E900012D3012203989206904207DB05204007F7
:100EA00009181A480143C012414004E003204007DA
:100EB0000818C10FC907002009B0F0BD0020F107D4
:100EC000FAE705180C464C4111486D42A04115D374
:100ED00094181A465A410E48644290410ED301209C
:100EE0004A004005824209D35A00824206D3594043
:100EF000C90F084AC90700201143DDE70020064951
:100F0000DAE700000000FF07FE070000FFFFFF7F99
:100F10000000E0FF0000F07F0000F87F0121C9051C
:100F20000123411842001B06D3185B0E0AD0C110E2
:100F30000722D206891840075242D14201D55200F9
:100F400089187047090208D50146002A03D0C10F4D
:100F5000C9070020704710467047420202D00020A7
:100F600002497047072109050143F4E70000F87FB3
:100F70001F22030C02D10F2200041CD0030E01D14A
:100F80000002083A030F01D10001121F830F01D1A3
:100F90008000921E002801DB4000521ED20551182D
:100FA000021251181922904004D3491C002801D183
:100FB0004908490008467047C10FC90700D04042A0
:100FC000012292071143D3E701218907D0E70000EE
:100FD00000487047E80200200048704718030020CE
:100FE000704770477047704738B504460A4600207E
:100FF0006946C046C046002805D0024620460099F2
:1010000000F0D9F8012038BD10B5012000F0F3F848
:1010100010BDF8B5C046C046054600200C4610205D
:10102000C0460646A819A0420DD93246694600209E
:10103000C046C046070001D100F0DDF80098A0428C
:1010400000D00546C419FFF7C3FFF61D074605602B
:10105000F008C0004619284600F0A6F8B44204D0B3
:1010600031463868A21B00F0A6F8F8BD70B50646F8
:10107000FFF7AEFF056830460B30C408E400B44209
:1010800001D8002070BD68682A46002818D0016881
:10109000A14211D30B46214608318B4208D3436845
:1010A00001194B6003681B1B0B605160046001E079
:1010B00041685160001D70BD024640680028E6D1BD
:1010C00021462846FFF790FF0028DCD170BDF8B517
:1010D0000646FFF781FF0090054615E0002E02D07E
:1010E000E068B0420FD1206828600098A1680768C6
:1010F000606888472046FFF76FF800980068B8429C
:1011000002D00098E8E725462C68002CE6D1F8BD0F
:10111000F8B5224C4E00069DA6420AD8A64201D13F
:10112000002806D15E00A64203D8A6420AD1002AB2
:1011300008D00D24240425422CD02946002000F09C
:1011400060F8F8BD0C461C430CD4994202D0EFF372
:101150000080F8BD904202D0EFF30080F8BDEFF3BD
:101160000080F8BD09242407E5008B4206D0EFF388
:101170000080A043591A06D2284304E0101A05D370
:10118000EFF30080A04380F30088F8BDEFF3008008
:10119000A043F1E7009500F04BF8F8BD0000E0FF38
:1011A00000487047E002002000210160416080603B
:1011B00070471020704710B50346406801E00346B1
:1011C0004068002801D08842F9D31868C3188B42C0
:1011D00006D0CB1CD808C000001D411A521A014687
:1011E000081D0A60FEF7F8FF10BD10B5002801D0F9
:1011F00000F028F810BD10B500F06CF8FFF7F5FF0F
:1012000010BDC80212D54803400F002804D0C803FF
:10121000C043012188407047EFF3008000010009BE
:1012200003210907084380F30088704700207047B6
:1012300010B500200249029A00F074F810BD0000B9
:101240000000F87F01491820ABBEFEE7260002002F
:101250007546FFF7A5FFAE46050069465346C00830
:10126000C000854618B020B5FEF7A4FF60BC00277B
:101270004908B6460026C0C5C0C5C0C5C0C5C0C562
:10128000C0C5C0C5C0C5403D49008D46704710B5BA
:101290000446C046C0462046FEF760FF10BD70B54C
:1012A00005460C460A2000E06D1C00F06AF8002D8F
:1012B00006D028780028F7D102E0641C00F061F81D
:1012C000002C02D020780028F7D10A2000F059F82D
:1012D00070BD000010B5012805D0002103A0FFF764
:1012E000DEFF012010BD09A1F8E700005349475275
:1012F000544D454D3A204F7574206F6620686561E6
:1013000070206D656D6F7279000000003A204865AD
:101310006170206D656D6F727920636F7272757088
:101320007465640010B50C461107090F092904D033
:101330000A290AD008290CD104E011460820FFF739
:1013400060FF06E0510606D501E0510601D50120F7
:10135000C007214610BDD10607D501010909CC08F7
:101360004907000E0006044309E0410F2002490727
:10137000000A0143200E00061D22D1410143084608
:10138000E7E708B5694608700320ABBE08BD7047A3
:1013900010B5024800F08AF810BD0000640000207B
:1013A00070B5044600688168490720D58168102619
:1013B0004907002905DA8168890702D48168314329
:1013C000816000F005FA05460DE000F001FA401BCF
:1013D000022808D9606C30436064A06C0121084386
:1013E000A064084670BD206880684007EDD40020E6
:1013F00070BDF8B50446006881688907890F012926
:1014000028D10168C90702D1C168090422D58168C1
:10141000052211401025012601290FD181680222E1
:101420001143816021680320086000F0D1F907466C
:101430000CE000F0CDF9C01B022807D9606C2843EE
:101440006064A06C3043A0640120F8BD206880680F
:10145000C007EED10020F8BD10B5074C6069C00789
:1014600002D0012000F0F8F86069800702D5022060
:1014700000F0F2F810BD00000004014010B500F0CB
:1014800012F8054CE178054A49005052044800F032
:1014900076F80120207110BD10000020A00200206D
:1014A0006400002070470068006C704770B5044607
:1014B00000680168490702D54168490705D40168F9
:1014C000090730D5416809072DD5616CC90604D4D8
:1014D000616C0122520211436164C1680C25090547
:1014E000890F00291AD1216A002917D1016809073B
:1014F00014D581684A070121002A08DB4268AA4303
:101500004260606C0A0290430843606406E0606CCD
:10151000202210436064A06C0843A0642046FFF7BB
:10152000ADFF206805602068016809060DD5406898
:1015300000060AD5606C0121090408436064204656
:1015400000F01CF821688020086020680168C90646
:1015500013D54168C90610D5616B1025012902D049
:10156000C168C90707D0A16C02221143A1640560BC
:101570002046FFF797FF2068056070BD704770B583
:101580000546044640352878012807D001262E70EC
:101590002046FFF705FF002802D011E0022070BDB1
:1015A000206841681C22914341602046FFF721FFDB
:1015B000002805D1616CFF220132914331436164FF
:1015C0000021297070BD70B50024014620314A7891
:1015D000022A03D004218163012416E00268136803
:1015E0000E25AB431360026813685B085B00136051
:1015F0000122056C1346AB40C56B6B604A7000223C
:101600000A70416B002900D08847204670BD31B573
:1016100000F0DEF8044600F0DBF80099001B884279
:10162000F9D338BDF1B50A4E002437461037094DBD
:1016300009E06000315A0098814202D1A000385878
:101640008047641CE4B268798442F2D3F8BD00009C
:10165000B00200201000002010B504494A6902427F
:1016600002D04861FFF7DEFF10BD0000000401401A
:10167000F8B500238DE001249C40A44622407DD093
:101680004C68022C01D0122C0CD1DC08A4002718C5
:101690003C6A5D07ED0E0F26AE40B4430E69AE40C6
:1016A00026433E6205685E000324B4400F79A543DB
:1016B000BF07BF0FB7402F4307604D68012D05D00E
:1016C000022D03D0112D01D0122D0ED18568CF68C7
:1016D000A543B7402F43876047686546AF430D7900
:1016E000ED06ED0F9D403D434560C568A5438C6800
:1016F000B4402C43C4604C68E40049D5284CA5692B
:1017000001263543A561A4699D0834400094254C09
:10171000AD002F19BC689D072E0F0F25B540AC43B7
:101720000925ED06A84201D100250FE01E4DA84273
:1017300001D101250AE01D4DA84201D1022505E095
:101740001B4DA84201D1032500E00525B5402543E6
:10175000BD60184C25684E689543F60300D51543C7
:10176000256065684E689543B60300D515436560EE
:10177000A5684E689543F60202D500E008E01543DF
:10178000A560E5684E689543B60200D51543E5604F
:101790005B1C0A681446DC4000D06CE7F8BD000012
:1017A000001002400000014000040048000800480A
:1017B000000C0048000401400069084000D00120EE
:1017C0007047002A01D08161704781627047000034
:1017D0000148006870470000480000200248016886
:1017E000491C0160704700004800002010B5044605
:1017F00000F026F97D21C900FEF74CFD00F01AFB30
:1018000000222146501E00F00DF8002010BD0000FF
:10181000C106C90E012088400149086070470000D8
:1018200000E100E010B500F0FFFC10BDF8B5054682
:101830000068354CC00352D5E0690026C00007D4CB
:10184000E16920040143E161E16901400126009161
:101850002E480168C90510D4016882151143016042
:10186000FFF7B6FF074604E0FFF7B2FFC01B64288E
:1018700024D826480068C005F6D5206A03273F0211
:10188000384020D06968394081421CD0206A226AE1
:10189000B843012109040A432262226A8A43226270
:1018A0002062C0070FD0FFF793FF009008E0FFF71A
:1018B0008FFF0099411A1648814201D90320F8BDD3
:1018C000206A8007F3D5206A6968B843084320621C
:1018D000002E04D0E169012000078143E1612878EE
:1018E000C00705D0206BA9688008800008432063EA
:1018F0002878800605D5206B10218843E9680843C5
:1019000020630020F8BD000000100240007000407D
:1019100088130000F8B5054644480E460068C00725
:10192000C00FB0420AD2414801684908490031431A
:1019300001600068C007C00FB0425CD128783C4C01
:10194000800705D56068F0218843A9680843606076
:101950002878C0073FD06868012813D02168022882
:1019600013D08907002946DA616889088900014394
:101970006160FFF72DFF6968074601290DD0022934
:1019800017D024E021688903ECE78901EAE7FFF733
:101990001FFFC11B2748814217D860680007800FCE
:1019A0000128F4D117E0FFF713FFC11B2148814242
:1019B0000BD860680007800F0228F4D10BE0FFF716
:1019C00007FFC11B1B48814201D90320F8BD606895
:1019D0000007800FF3D115480168C907C90FB1424C
:1019E0000BD9016849084900314301600068C0070C
:1019F000C00FB04201D00120F8BD2878400706D5BD
:101A00006068072109028843E9680843606000F0C4
:101A10001DF86168084A0906090F515CC84007496A
:101A200008600020FFF7E2FE0020F8BD0020024021
:101A30000010024088130000B43A0008440000205F
:101A400001480068704700004400002010B512A350
:101A50000FCB88B06C460FC413A30FCB0FC416492D
:101A60004A680C20134603401448042B0FD0082B5F
:101A70000DD193021B0F6C46E45CC96A04AB0907E5
:101A8000090F595CD20304D5FEF704FC604308B08B
:101A900010BD0B486043FAE7020304050607080976
:101AA0000A0B0C0D0E0F10100102030405060708A7
:101AB000090A0B0C0D0E0F100010024000127A00E4
:101AC00000093D00FEB504460078D04DC00747D060
:101AD00068680007800F012807D068680007800F3A
:101AE000022809D16868C00306D52868800337D565
:101AF000606800287ED033E0012062680004012A7B
:101B000011D08100002A01D0052A10D02A68824312
:101B10002A602868884328606068002814D0FFF78E
:101B200057FE06460CE0296801432960F4E72A685D
:101B30000A432A60F7E7FFF74BFE801B64286FD843
:101B400028688003F7D50BE0FFF742FE064604E065
:101B5000FFF73EFE801B6428F1D828688003F7D485
:101B600020780126800700283BDA68680007800F8C
:101B700007D068680007800F022809D16868C00391
:101B800006D42868800715D5E068012832D111E015
:101B9000E0680028286815D030432860FFF718FE59
:101BA000074604E0FFF714FEC01B0228C7D82868C8
:101BB0008007F7D52868F82188432169C9000843C0
:101BC00028600EE0400840002860FFF701FE07464D
:101BD00004E0FFF7FDFDC01B0228B0D8286880078D
:101BE000F7D42078000724D5E0690028686A10D06F
:101BF000304300E008E16862FFF7EAFD074604E0D1
:101C0000FFF7E6FDC01B022899D8686A8007F7D560
:101C10000FE0400840006862FFF7DAFD074605E084
:101C20009DE0FFF7D5FDC01B022888D8686A8007B1
:101C3000F7D4207804274007002860DA00200190BC
:101C4000E869C00008D4E969B8060143E961E969B7
:101C500001400120009101906D480168C90511D42F
:101C60000168821511430160FFF7B2FD009005E0A5
:101C7000FFF7AEFD0099401A642870D864480068E8
:101C8000C005F5D5A06801280AD0002801D0052894
:101C900010D0286A400840002862286AB84301E052
:101CA000286A30432862A068002812D0FFF790FD10
:101CB00000900AE0286A38432862F1E7FFF788FDC0
:101CC0000099411A5348814249D8286A8007F5D5BE
:101CD0000DE0FFF77DFD009006E0FFF779FD00992C
:101CE000411A4C4881423AD8286A8007F5D40198B5
:101CF000002804D0E969012000078143E9612078C8
:101D0000C00635D5606901280CD0401D686B23D012
:101D100038436863686B400840006863FFF758FD0C
:101D2000064622E0686B38436863686B304368633B
:101D3000FFF74EFD064604E0FFF74AFD801B022830
:101D40005BD8686B8007F7D5686BF8218843A16979
:101D5000C900084368630BE0B8436863F4E74CE0EC
:101D6000FFF736FD801B022847D8686B8007F7D441
:101D7000206A002846D069680907890F022943D0E4
:101D8000012636060228286805D0B0432860FFF7F0
:101D90001FFD044633E0B0432860FFF719FD0746F6
:101DA00004E0FFF715FDC01B022826D82868800133
:101DB000F7D4E86AE16A000900010843E862616A51
:101DC000A06A084369683D22120491430843686091
:101DD000286830432860FFF7FBFC044604E0FFF767
:101DE000F7FC001B022808D828688001F7D509E015
:101DF000FFF7EEFC001B022801D90320FEBD286876
:101E00008001F5D40020FEBD0120FEBD001002407F
:101E10000070004088130000042204490428086967
:101E200002D09043086170471043FBE700E000E0F8
:101E300070470000094910B5401E884201D90120B1
:101E400010BD074C60610321081F00F0EDF9002070
:101E5000A06107202061002010BD0000FFFFFF00EF
:101E600000E000E010B5FFF7E3FF10BD70477047DA
:101E700070B5040005D025462035687F002802D0C3
:101E800006E0012070BD00202877204600F00AF807
:101E900002206877211D206800F024FA012068776D
:101EA000002070BD70470268D36801210B43D360E6
:101EB000006802680A43026000207047704770B5EE
:101EC0000446006801690025C9438907002915DB1C
:101ED000C168C943890711D4E91E01610120207737
:101EE000206880698007204602D0FFF7E7FF04E002
:101EF00000F096F8204600F094F8257720680169F4
:101F0000C943490717D4C168C943490713D40421F9
:101F1000C943016102202077206880698005800F15
:101F2000204602D0FFF7CAFF04E000F079F820460F
:101F300000F077F8257720680169C943090716D4AE
:101F4000C168C943090712D40821C94301610420AB
:101F500020772068C0698007204602D0FFF7AEFFD7
:101F600004E000F05DF8204600F05BF8257720687B
:101F70000169C943C90617D4C168C943C90613D446
:101F80001021C9430161082020772068C0698005BD
:101F9000800F204602D0FFF791FF04E000F040F8E8
:101FA000204600F03EF8257720680169C943C9073B
:101FB00008D1C168C943C90704D1891E01612046FF
:101FC00000F030F820680169C943090609D4C168E6
:101FD000C943090605D48021C94301612046FFF7A2
:101FE00045FF20680169C943490609D4C168C9434E
:101FF000490605D44021C9430161204600F084F818
:1020000020680169C943890609D4C168C9438906A2
:1020100005D42021C94301612046FFF728FF70BD88
:1020200070477047F8B532490068096888425ED148
:10203000304E3078401C307037462D4D00240E371E
:10204000C03551E02B48801D005D31788842385DF5
:1020500020D8202812D004DC002807D0102841D135
:1020600008E030280ED050283CD10FE06000295AFB
:1020700000221FE06000295A002221E06000295A56
:10208000002222E06000295A002223E06000295A41
:10209000002224E0202815D004DC002807D01028D6
:1020A00020D10AE0302812D050281BD114E0600063
:1020B000295A01220920C00612E06000295A012293
:1020C0000D480DE06000295A01220C4808E060002C
:1020D000295A01220A4803E06000295A01220948CE
:1020E000FFF76FFB641CE4B270788442AAD3F8BD9A
:1020F000D001002010000020000400480008004823
:10210000000C00480014004870477047F8B5036899
:102110000446D96918680D072D0F07D18A0605D521
:10212000820603D5204600F047F9F8BD9A68002DD5
:1021300064D0D507ED0FFF26213606402E435DD033
:10214000CE0706D0C60504D501261E62E36E3343D2
:10215000E3668F0702230426002F06DAD70704D090
:1021600027683B62E76E3743E7664F0706D5D2071D
:1021700004D022681662E26E1A43E2660A0709D5A5
:10218000202202402A4305D0236808221A62E36E07
:102190001343E366E26E002AC7D0890604D58006A1
:1021A00002D5204600F008F9E06E000703D420684D
:1021B000806840061CD5204600F0E2F8206881685F
:1021C000490611D58168402291438160606E0028E4
:1021D0000AD012494163606EFFF7F5F90028A4D0D8
:1021E000606E416B8847F8BD2046FFF78EFFF8BD53
:1021F0002046FFF78AFF0020E066F8BD0A0605D5F5
:10220000020603D5204600F014F9F8BD4906FCD5B6
:102210004006FAD5204600F0C2F8F8BD6D2300084C
:1022200070477047FEE770478307FF22DB0E9A4036
:102230008907090E994000280BDA0007000F0838BB
:10224000830808489B001818C36993430B43C36174
:102250007047830804489B001B1818689043084384
:102260001860704700ED00E000E400E010B5FFF7F3
:10227000B5FAFFF7F7FD10BD1348016801221143BD
:1022800001604168114A114041600168104A1140E3
:1022900001600168012292049143016041683F227C
:1022A000120491434160C16A09090901C162016BCD
:1022B000FF22143291430163416B49084900416395
:1022C0000021816070470000001002400CB8FF0838
:1022D000FFFFF6FE10B50248FFF7F1FD10BD00004C
:1022E000D0010020F0B502681A4B1B4C984201D077
:1022F000A04203D17025AA434D682A43174D184EBA
:10230000184F98420AD0A04208D0174CA04205D0DE
:10231000A84203D0B04201D0B84205D114460322EE
:1023200012029443CA6822438024A2434C69224388
:1023300002608A68C2620A688262984205D0A84236
:1023400003D0B04201D0B84201D109690163012133
:102350004161F0BD002C01400004004000400140FC
:1023600000440140004801400020004010B5406A90
:102370000022014640314A834A82FFF7C6FE10BD63
:1023800001680A68FF2321339A430A6001688A685A
:10239000520852008A60202160308172704710B567
:1023A00001680A6840239A430A60202269210A547E
:1023B000FFF737FF002010BD70B5024640320346DC
:1023C0006033948B9D7A0168222D05D0886908229C
:1023D00010438861022070BD898C01268568360310
:1023E000B54202D10569002D0BD02140446D651C1A
:1023F00045652170518B491E0904090C518307D092
:1024000015E0456D21402980416D891C4165F1E74A
:1024100001680A68FF242134A2430A6001688A68BF
:10242000520852008A6020219972FFF7F9FE0020BD
:1024300070BD6921095C212901D002207047024644
:102440004032518A002912D0012381681B0399422E
:1024500002D10169002915D0C16C4B1CC36400680E
:1024600009780185508A401E50820020704701681B
:102470000A6880239A430A60006801684022114379
:102480000160F2E7C16C03680988C905C90D1985A7
:10249000C16C891CC164E5E710B50248FFF736FE40
:1024A00010BD0000B000002010B50248FFF72EFE5E
:1024B00010BD000020010020020901071201090FD0
:1024C000012010B58840202A11D004DC002A07D052
:1024D000102A18D108E0302A0CD0502A13D10CE071
:1024E00081B20920C0060AE081B2084807E081B243
:1024F000074804E081B2074801E081B20648FFF7CF
:102500005BF9012800D0002010BD00000004004845
:1025100000080048000C004800140048F8B5030704
:1025200001221B0F9A4009230009DB06214C224D92
:10253000224E234F000101290AD0202831D024DC6B
:1025400000282AD0102819D191B20022204613E089
:10255000202814D006DC00280BD010280ED191B210
:102560000122F3E730280DD0502807D191B2012283
:1025700011E091B2012212E0FFF723F9F8BD91B208
:10258000012210E091B2012211E030280DD0502834
:10259000F4D191B200223846EEE791B200221846FB
:1025A000EAE791B200222846E6E791B200223046DF
:1025B000E2E700000004004800080048000C004862
:1025C0000014004810B50D4900220B685A620A68D1
:1025D000136801242343136009684A6A8242FCD3CA
:1025E000086A074A104207D1086A9210104203D1C4
:1025F000086840084000086010BD0000500200203C
:1026000011110000F0B5644C95B0A0690121084398
:10261000A061A069084014906048006810255F49D7
:1026200028430860022601200896039004950020A4
:10263000099005200096C0040A9000200B9068467F
:10264000FFF740FA07200C9000200E900F900D9697
:1026500001210CA8FFF75EF90120109003201290D1
:1026600010A8FFF7E3F8FFF7EBF97D21C900FDF7AC
:1026700011FEFFF7DFFB0420FFF7CEFB002211461F
:10268000501EFFF7CFF860696F03384360616069DF
:10269000384014906169A803014361616169014098
:1026A00014916169400001436161616901401491C5
:1026B0006169400001436161616901401491616990
:1026C0008000014361616169014014913448002137
:1026D000417081704171344932480860334870312B
:1026E0000860E0692843E061E06900222840149016
:1026F00011461120FFF796F81120FFF789F82D4EAB
:102700002B48306000207060B0602C482A49006877
:10271000FDF7C0FD401EF0603546002040352861C1
:1027200070613046FFF7A4FB3046FFF7BCFBE16960
:10273000A0150143E161E1692F2601402048149171
:1027400041C5002028601F4868600020A860E8603C
:1027500028460838083DFFF78BFB296800204862AF
:1027600028680168012211430160A0693843A06113
:10277000A0691549384014902846403042C00021D5
:1027800001601049416000218160C1600838FFF795
:102790006FFB15B0F0BD00000010024000200240A9
:1027A0001000002000380140B0000020004400402C
:1027B00000100040D00100209C6300004400002075
:1027C00000200040FFFF00000044014030B500221F
:1027D00011250324012385B004291BD008DC00291E
:1027E0000FD001290FD002292BD0032916D10DE0DB
:1027F000052911D0092922D0112922D012290DD161
:102800001FE0019200E00193029207E00221019291
:10281000029103E00195F7E7019502930107090F83
:102820008B400009000103940093202819D00ADC92
:10283000002812D010280ED169460D4809E00194F5
:10284000E2E70192E9E730280ED0502803D169462B
:102850000848FEF70DFF05B030BD09206946C006E7
:10286000F7E769460448F4E769460448F1E70000E1
:10287000000400480014004800080048000C00480C
:1028800070B50E460446154600790121FFF746FE55
:102890000020FFF797FE60790121FFF73FFE00203F
:1028A000FFF790FE2A463146204600F084F870BDBE
:1028B00010B504460171084662710521FFF786FFD5
:1028C00020790121FFF72AFE60790121FFF77EFFC1
:1028D00060790121FFF722FE0449002048708870CA
:1028E000C8700871204600F04EF810BD3E00002070
:1028F000F3B5044681B0002500790221FFF766FF99
:102900000026012760790121FFF708FE0020FFF76C
:1029100059FE6806050E2079FFF7CEFD002800D08D
:102920003D4360790021FFF7F9FD0020FFF74AFEE3
:10293000761CF6B2082EE5D320790521FFF746FF75
:1029400002980028207901D0012100E00021FFF742
:10295000E5FD0020FFF736FE60790121FFF7DEFD7F
:102960000020FFF72FFE60790021FFF7D7FD002040
:10297000FFF728FE20790021FFF7D0FD0020FFF7A8
:1029800021FE2846FEBD10B5044600790021FFF760
:10299000C5FD0020FFF716FE60790121FFF7BEFD9F
:1029A0000020FFF70FFE20790121FFF7B7FD00207F
:1029B000FFF708FE10BD70B50E46044615460079B7
:1029C0000021FFF7ABFD0020FFF7FCFD607900213F
:1029D000FFF7A4FD0020FFF7F5FD70002843C1B20A
:1029E000204600F001F870BD70B50E460446002583
:1029F0003006207901D5012100E00021FFF78EFD8E
:102A00007006060E60790121FFF788FD0020FFF7B0
:102A1000D9FD60790021FFF781FD0020FFF7D2FD8D
:102A20006D1CEDB2082DE3D360790121FFF776FD2F
:102A30000020FFF7C7FD60790021FFF76FFD002040
:102A4000FFF7C0FD002070BD1CB5044610A0006853
:102A5000019010A000680090072900D90721802A62
:102A600000D980220720411AB02001436846017135
:102A70002121017042707F218170012201A920462D
:102A800000F00AF803226946204600F005F81CBD54
:102A9000B000000021007F0070B50D4606461446C8
:102AA00000211820FFF73AFD06E02978304600F0B3
:102AB00053F9641EE4B26D1C002CF6D170BDF8B55C
:102AC0000026074634460096002221463846FFF786
:102AD000BBFF002501226946384600F0C3F86D1C93
:102AE000EDB2802DF6D3641CE4B2082CECD3BE7496
:102AF000FE743E75F8BD000010B586B04174044602
:102B000001212D20FFF762FE01211820FFF75EFE54
:102B100001212F20FFF75AFE01212E20FFF756FE3C
:102B200001211920FFF752FE00211920FFF7F6FCC2
:102B300000211820FFF7F2FC00212D20FFF7EEFC0A
:102B40001420FEF764FD01212D20FFF7E7FC14207F
:102B5000FEF75DFD182207A16846FDF705FB172269
:102B600069462046FFF798FF2046FFF7A8FF06B00A
:102B700010BD0000AE00104081CFA1A6A83FD30039
:102B8000D580D9F1DA12DB408D14AF00F8B50E46CE
:102B90000446417C0127007D0025002910D0002833
:102BA00000D02575202E42D3E27C782A35D8A17C2E
:102BB0003346204600F06AF8E07C0830E0744CE0D0
:102BC000002800D02575202E0AD3E27C782A0AD866
:102BD000A17C3346204600F099F8E07C801DE0742B
:102BE0000A2E12D039E0A07C401CC0B2A074082884
:102BF00000D3A5742A46E574EAE7A17C2023204689
:102C000000F084F8E07C801DE074E27C782AF4D93E
:102C1000A07C401C1BE0A5741DE0A07C801CC0B201
:102C2000A074082800D3A5742A46E574BFE70A2ECD
:102C300008D012E0A17C2023204600F027F8E07C99
:102C40000830E074E27C782AF4D9A07C801CC0B201
:102C5000A0740828DFD2E57427750120F8BD8174BF
:102C6000C274704770B50D460646144601211820FF
:102C7000FFF754FC06E02978304600F06DF8641E3A
:102C8000E4B26D1C002CF6D170BD0000FFB581B020
:102C90000E46072900D907260398802801D98020ED
:102CA000039018462038622800D32E231C01FF3CD5
:102CB000FF3C3146023C039A0198FFF7C5FE012113
:102CC0001820FFF72BFC104F0025395D641C01987C
:102CD00000F042F86D1CEDB2082DF6D3761CF1B26F
:102CE000039A0198FFF7B0FE01211820FFF716FCA8
:102CF0000025395D641C019800F02EF86D1CEDB2C2
:102D0000082DF6D305B0F0BDC4340008F8B506466A
:102D1000072900D90721802A00D9802218462038A7
:102D2000622800D32E230620203B43431C46304616
:102D3000FFF78AFE01211820FFF7F0FB054F002561
:102D4000395D3046641C00F007F86D1CEDB2062DAD
:102D5000F6D3F8BD7832000870B50C46082500217E
:102D60002F20FFF7DBFB11E0200601D5012100E059
:102D700000212E20FFF7D2FB01212F20FFF7CEFBF1
:102D800000212F20FFF7CAFB6006040E28466D1EA7
:102D9000EDB20028E8D170BD002242607D22D20051
:102DA0008260024A0260017470470000683B0008BC
:102DB00070470000F0B51FB482B000200C9E15468D
:102DC0001C460090002A01D0012000E00020204392
:102DD000400041494008081AC00F01D03FA112E04D
:102DE00001210727600049057F07C84201D1002D56
:102DF00008D03A463A4B2846214600F009FA07D255
:102E000038A100E038A1029800F0B5F807B0F0BD95
:102E10003A46364B2846214600F0C8F9F0D3002246
:102E200013462846214600F0C1F907D22D21029809
:102E300000F087F800900120C007444000202C4992
:102E4000074605E000222B4BFDF7D0FC7F1CFFB2AC
:102E5000B742F7D32A462346FDF798FC0F460546AE
:102E6000FDF7E8FE0446FDF732FF2A463B46FDF734
:102E7000A5FC05460F460A222146029800F06FF88D
:102E800000994418002E1FD02E21029800F059F806
:102E9000041919E00022174B28463946FDF71AFF9E
:102EA00005460F46FDF7C6FE014600900A2202982D
:102EB00000F051F804190098FDF709FF3B462A4637
:102EC000FDF77CFC05460F463046761EF6B200281C
:102ED000E0D120469AE700000000F07F6E616E00AE
:102EE000FFFFEF416F766600696E6600FFFFEFC17E
:102EF0000000E03F0000244070B515468AB0064649
:102F00000A46002008A9087008AC022D00D20A2544
:102F100029461046FDF7BEF9C9B202460A2901D278
:102F2000303100E03731641E2170002AF0D1214693
:102F3000304600F020F80AB070BD10B500F01BF864
:102F400010BD02681268104708B50299C9B2009115
:102F5000FFF730FF08BD10B500F001F810BD10B547
:102F6000002A03D0D2B2FFF7C7FF10BD0268C9B272
:102F70001268904710BD70B505460C0009D0084690
:102F8000FDF766F9024628682146436828469847B7
:102F900070BD002070BDF8B514460D4607460026EA
:102FA00008E038682978026838466D1C9047002888
:102FB00002D0761C641EF4D23046F8BD70B50546CA
:102FC000FFF7BBFF0446284600F010F8001970BD5B
:102FD00038B50546049800902846FFF7B5FF04462B
:102FE000284600F003F8001938BD000010B502A112
:102FF000FFF7C1FF10BD00000D0A000010B507214A
:1030000000F030F8FDF78AFF10BD10B5062100F082
:1030100029F8FDF783FF10BD10B5FFF749FC10BD7F
:1030200070B50C46054600225A21FFF7C4FC214624
:103030002846FFF7D9FC01225A212846FFF720FC39
:1030400000212846FFF754FC044601212846FFF7DB
:103050004FFC0002001984B22846FFF794FC20467A
:1030600070BD000010B5FFF7DBFFFDF7ADFFFDF70A
:1030700055FF074A074BFDF72DFEFDF7CDF9FDF78C
:103080004DFF054A054BFDF78EFBFDF7C5F910BD59
:103090007B14AE47E17A943F6666666666127140BD
:1030A00010B500210548FFF777FE054A0549FDF7F1
:1030B000B9F805480549016010BD00004C0000202A
:1030C00000000008B12D0008080000204C3B00085B
:1030D00008B5FFF797FA01212948FFF70DFD29A14F
:1030E0002748FFF76BFF032202212A48FFF794FFCE
:1030F00001210820FFF76AFB00210820FFF70EFAE4
:10310000244C0225083C01210820FFF707FA21483A
:10311000FFF77BFFFDF780F920601E48FFF76EFF89
:10312000FDF77AF96060002204211548FFF797FD4A
:1031300019A11348FFF701FF2068FDF7EFFE0246D3
:103140000B460F480095FFF743FF002206210C486D
:10315000FFF785FD13A10A48FFF7EFFE6068FDF752
:10316000DDFE02460B4606480095FFF731FF0021C1
:103170000820FFF7D3F96420FEF749FAC3E70000FF
:103180004C0000204D4C5839303631342054657392
:103190007400000008000020416D6269656E743A99
:1031A000000000004F626A6563743A0070B5012543
:1031B0000C002D051C4310D4EC4206D4AC420AD4BA
:1031C000994200D070BD904270BDE94217D4EB42E5
:1031D00015D4994270BD894270BDEC4206D5AC420F
:1031E000F9D58B4200D070BD824270BD6D004C009D
:1031F000EC4204D25C00EC4201D28B4270BD034C25
:1032000030B4FDF785FF30BC70BD00BF1900160457
:1032100070B501251C002D050C4310D4EC4206D4DA
:10322000AC420AD48B4200D070BD824270BDEB42EA
:1032300017D4E94215D48B4270BD9B4270BDEC425D
:1032400006D5AC42F9D5994200D070BD904270BD10
:103250006D005C00EC4204D24C00EC4201D2994279
:1032600070BD0FB4034C0CBC03BC30B4FDF750FF71
:1032700030BC70BD19001604000000000000000002
:10328000FA00000000E000E0000028FE28FE280010
:103290002454FE544800C4C8102646006C926A04A8
:1032A0000A000010E0C000000038448200000082E4
:1032B000443800005438FE38540010107C101000C0
:1032C00000021C180000101010101000000006066C
:1032D00000000408102040007C8A92A27C0000427A
:1032E000FE02000042868A926200848292B2CC0082
:1032F000182848FE0800E4A2A2A29C003C52929228
:103300000C0082848890E0006C9292926C00609233
:10331000929478000000280000000000022C0000B9
:1033200000102844820028282828280000824428E9
:10333000100040808A9060007C82BA9A72003E48F9
:1033400088483E00FE9292926C007C828282440009
:10335000FE8282827C00FE9292928200FE90909089
:1033600080007C8292925E00FE101010FE000082AF
:10337000FE820000040282FC8000FE1028448200CD
:10338000FE0202020200FE403840FE00FE2010084D
:10339000FE007C8282827C00FE90909060007C82A5
:1033A0008A847A00FE9098946200649292924C0013
:1033B0008080FE808000FC020202FC00F80402040F
:1033C000F800FC021C02FC00C6281028C600C02021
:1033D0001E20C000868A92A2C20000FE8282820065
:1033E00040201008040000828282FE0020408040BD
:1033F000200001010101010000C0E0100000042ACA
:103400002A2A1E00FE1422221C001C222222140042
:103410001C222214FE001C2A2A2A180000107E906A
:103420004000182525253E00FE1020201E00002209
:10343000BE02000000040202BC0000FE08142200CC
:103440000082FE0200003E201E201E003E102020B2
:103450001E001C2222221C003F18242418001824BD
:1034600024183F003E1020201000122A2A2A24008F
:103470002020FC2224003C0202043E003804020406
:1034800038003C020C023C002214081422003209CD
:1034900009093E0022262A32220000106C82000018
:1034A0000000EE00000000826C1000004080402010
:1034B00040000060909060000000FE828282828264
:1034C00082FE00000000000000000000000000007C
:1034D0000000000000000E1F1F0E0000000000B0E2
:1034E000B0000000001C1C00001C1C0000000000BC
:1034F0000000000000041F1F041F1F040040F0F024
:1035000040F0F040000C1E73711808000020301CC1
:103510009CF06000183C243D1B060C000060C0B00D
:1035200078487830000D1F121E0C000000E0F010EB
:1035300090E0F0900000001C1C0000000000000063
:10354000000000000000030F1C1000000000E0F865
:103550001C0400000000101C0F0300000000041CED
:10356000F8E000000001050703070501000040C066
:1035700080C040000001010707010100000000C0F9
:10358000C000000000000000000000000000003447
:103590003C380000000101010101010000000000B1
:1035A00000000000000000000000000000000030EB
:1035B0003030000000000001071E1800001878E0FD
:1035C0008000000000000F1F10161F0F0000E0F029
:1035D000D010F0E00004040C1F1F000000000000E9
:1035E000F0F00000000C1C10111F0E00003070D015
:1035F00090101000000C1C11111F0E0000607010C4
:1036000010F0E00000001F1F0007070000C0C040CE
:1036100040F0F040001F1F11111110000010101099
:1036200030E0C0000003071E1A13010000E0F01094
:1036300010F0E00000101011171E1800000070F0CC
:1036400080000000000E1F13111F0E0000E0F0109C
:1036500090F0E000000F1F10101F0F00000090B04E
:10366000F0C08000000000060606000000000030E8
:1036700030300000000000060606000000000034A4
:103680003C380000000103060C181000000080C048
:1036900060301000000202020202020000808080FE
:1036A000808080000010180C0603010000103060BC
:1036B000C0800000000C1C11131E0C00000000B0A4
:1036C000B00000000F1F101113121F0FE0F0109038
:1036D000D050D0D000070F18180F070000F0F0806E
:1036E00080F0F000001F1F11111F0E0000F0F010FD
:1036F00010F0E000000F1F10101C0C0000E0F01094
:1037000010706000001F1F10180F070000F0F0106D
:1037100030E0C000001F1F111111100000F0F01068
:1037200010101000001F1F111111100000F0F00008
:1037300000000000000F1F10101C0C0000E0F01033
:1037400090F0F000001F1F01011F1F0000F0F000AB
:1037500000F0F0000000101F1F100000000010F02B
:10376000F010000000000000001F1F00006070103B
:1037700010F0E000001F1F01071E180000F0F0000D
:10378000C0F03000001F1F000000000000F0F0102B
:1037900010101000001F1F0403041F1F00F0F00092
:1037A0008000F0F0001F1F0603011F1F00F0F00053
:1037B0000080F0F0000F1F10101F0F0000E0F0104D
:1037C00010F0E000001F1F11111F0E0000F0F000AC
:1037D00000000000000F1F10101F0F0000E0F0108D
:1037E00018FCE400001F1F11111F0E0000F0F00074
:1037F00080F07000000C1E1311180800002030101B
:1038000090F060000010101F1F101000000000F06A
:10381000F0000000001F1F00001F1F0000E0F0105C
:1038200010F0E000001F1F00001F1F0000C0E0306C
:1038300030E0C000001F1F0003001F1F0080F07059
:103840008070F08000181C07031C18000070F00046
:1038500080F07000001E1F01011F1E00000000F01C
:10386000F000000000101011131E1C000070F090FA
:103870001010100000001F1F101000000000FEFEBE
:103880000202000000181E07010000000000008076
:10389000E0781800000010101F1F00000000020256
:1038A000FEFE0000001030606030100000000000DC
:1038B0000000000000000000000000000202020200
:1038C00002020202000040607010000000000000D0
:1038D0000000000000000404040703000060F090F2
:1038E00090F0F000001F1F040407030000F0F01028
:1038F00010F0E000000307040406020000E0F010EE
:103900001030200000030704041F1F0000E0F01027
:1039100010F0F000000307040407030000E0F0903B
:103920009090800000010F1F111111000000F0F0B5
:1039300000000000000307040407070000E2F21281
:1039400012FEFC00001F1F040407030000F0F0003B
:1039500000F0F0000004043737000000001010F001
:10396000F0101000000004043737000000020202CB
:10397000FEFC0000001F1F000107060000F0F080A1
:10398000C07030000010101F1F000000001010F069
:10399000F0101000000707040704070300F0F00010
:1039A000E000F0F0000707040407030000F0F00057
:1039B00000F0F000000307040407030000E0F0102B
:1039C00010F0E000000707040407030000FEFE10EB
:1039D00010F0E000000307040407070000E0F01007
:1039E00010FEFE00000707010206060000F0F000CE
:1039F000000000000003070404040400001090907D
:103A000090F0600000041F1F040404000000E0F0B8
:103A100010101000000707000007070000E0F0107A
:103A200010F0F000000707000007070000C0E030BA
:103A300030E0C000000707000300070700C0F030B7
:103A4000C030F0C00006070101070600003070C05A
:103A5000C0703000000707000007070002E2F216FE
:103A60001CF8E0000004040405070600003070D0D4
:103A7000901010000000010F1E1000000080C078A0
:103A80003C0400000000001F1F000000000000FEBA
:103A9000FE0000000000101E0F0100000000043CAA
:103AA00078C080000C1810180C040C1800000000DE
:103AB00000000000000000000000000001020304FC
:103AC0000607080980807F7E7D7C7B7A797877760F
:103AD00076757473727171706F6E6E6D6C6C6B6AEB
:103AE0006A69686867666665646463636261616089
:103AF000605F5F5E5E5D5D5C5C5B5B5A5A59595806
:103B0000585757565655555554545353525252516F
:103B1000515050504F4F4F4E4E4D4D4D4C4C4C4BC5
:103B20004B4B4A4A4A49494948484847474747460C
:103B30004646454545444444444343434342424248
:103B40004241414100000000000000000000000070
:103B50000000000000000000000000000000000065
:103B600000000000000000008D2B0008972F0008C7
:103B70000000000000000000000000000000000045
:103B800000000000A83B0008000000204C000000DE
:103B9000F8000008F43B00084C000020F408000086
:103BA00014010008FDF4FFFF000000000000000009
:103BB0000000000000000000000000000000000005
:103BC00000000000000000000000000000000000F5
:103BD00000000000000000000000000000000000E5
:103BE00000000000000000000000000000127A0049
:043BF00000000000D1
:04000005080000B53A
:00000001FF
