:020000040000FA
:10000000B8040020C1000000EB050000E905000075
:10001000FFFFFFFFFFFFFFFFFFFFFFFFFFFFFFFFF0
:10002000FFFFFFFFFFFFFFFFFFFFFFFFEF050000E8
:10003000FFFFFFFFFFFFFFFFED050000510600007F
:1000400003010000030100000301000003010000A0
:10005000090400001104000019040000030100005D
:1000600079020000FFFFFFFF030100000301000011
:10007000F90400000301000003010000FFFFFFFF7F
:10008000FFFFFFFF03010000030100000301000068
:1000900003010000030100000301000089080000C3
:1000A0002D0900000301000003010000030100000E
:1000B0000301000003010000030100000301000030
:1000C0001048804710488047104800471048016991
:1000D000002910D1416900290DD1816900290AD177
:1000E000C169002907D1BFF34F8F0A490A48C86088
:1000F000BFF34F8FFEE77047FEE7FEE7FEE7FEE740
:10010000FEE7FEE7CD000000710600001D010000C3
:100110000003084000ED00E00400FA0505488546AC
:1001200000F094F800F046F8004800475914000029
:1001300000F06AF8B804002030B50B4601460020F4
:100140002022012409E00D46D5409D4205D31D46DD
:100150009540491B2546954040191546521E002DD5
:10016000F1DC30BD10B5431A934209D283188818C8
:1001700003E0401E01785B1E1970521EF9D210BDBB
:1001800003460B439B0703D009E008C9121F08C0B0
:10019000042AFAD203E00B780370401C491C521E5B
:1001A000F9D210BD421C0178401C0029FBD1801AF5
:1001B0007047000070B5054C054D03E0206800193C
:1001C0008047241DAC42F9D170BD0000501F0000D3
:1001D000581F0000F8B5074615460E46102001F0DE
:1001E000BDF8040009D06760A660E56000F008F87B
:1001F0000168216004600020F8BD0120F8BD000006
:100200000048704790000020F8B50646FFF7F8FF59
:100210000090054615E0002E02D0E068B0420FD1F4
:10022000206828600098A1680768606888472046B1
:1002300001F062F800980068B84202D00098E8E740
:1002400025462C68002CE6D1F8BD0000064C01259F
:10025000064E05E0E36807CC2B430C3C984710346E
:10026000B442F7D3FFF75EFF301F0000501F0000BD
:1002700070478030C160704710B5084C012120469E
:10028000FFF7F7FF206B064900050978000D054AC6
:100290004900505204490120087010BD000001407F
:1002A000160000203801002017000020F0B5964607
:1002B0000A461349C000461800230025FF20984035
:1002C0002C46104216D00020012199408C46114640
:1002D000C1406746394206D087000F21B9400D431F
:1002E0007146B9400C43401C0828F0D33068A8433D
:1002F000204330600833361D082BDEDDF0BD0000E2
:100300002020024070B5184D0446686B4607760FF2
:1003100000F02EF815492060330000F0DFFF0814CC
:1003200005070714140E1114606000E06160296A6B
:100330006068052909D3400908E00120C003F3E7FC
:100340007D200002F0E70020EEE7C840A060A96A27
:100350004903490F072902D0C840E06070BD03215E
:10036000FFF7EAFEF9E700000080084000127A007B
:100370000C490868C869C20F4868400AC007C00F26
:100380000ED00948002A0BD18869C00D0007000F64
:1003900000D110208969044A4902890F5043C8409E
:1003A000704700000080084000127A001FB5410924
:1003B0000A4A89008A1800212E2800D10221C0068D
:1003C000C00E1268032383401A40C2405418684686
:1003D000FFF798FF029804B0E04010BD3880084055
:1003E000F0B5084F7C6AFD6A3E6B84438D439643AB
:1003F000002B02D004430D4316437C62FD623E6332
:10040000F0BD00000080084010B500F009F810BDF4
:1004100010B500F005F810BD10B500F001F810BDE2
:1004200070B500240B4D0C4E10E06000285A00F00F
:100430001FF8002808D00949A0000858804760002C
:10044000285A00F00DF870BD641CE4B23078844284
:10045000EBD370BD48010020180000205801002097
:100460000121814001484160816070474040024065
:100470000449496801228240114201D0012070479D
:100480000020704740400240002A026801D00A4321
:1004900000E08A4302607047002A426801D00A43A4
:1004A00000E08A4342607047002A026901D00A4393
:1004B00000E08A4302617047002A08D0012A09D06F
:1004C00082688A438260C2688A43C26070478268D9
:1004D0000A43F7E7C2680A43C26082688A438260BF
:1004E0007047C069084000D001207047002A01D041
:1004F0004162704781627047F8B501212F4800F0D2
:1005000039F9002859D02E4F3878401C3870002413
:100510002C4E2D4D3EE02D48005D39788842305DEF
:1005200018D8002806D0102808D020280AD0302853
:100530002ED10BE06000295A002217E06000295AF2
:10054000002218E06000295A002219E06000295AB0
:1005500000221AE0002806D0102809D020280CD04C
:10056000302815D10EE06000295A012218480DE00C
:100570006000295A0122174808E06000295A012228
:10058000154803E06000295A01221448FFF7AEFF26
:10059000641CE4B2124800788442BCD3074C0121A9
:1005A000204600F0D5F8204600F0E1F80D49098812
:1005B000401881B2204600F043F9F8BD00E0064043
:1005C0001000002034000020280100202C00002012
:1005D00000000B4000200B4000400B4000600B402F
:1005E0001400002028000020FEE770477047704785
:1005F000042204490428086902D090430861704726
:100600001043FBE700E000E00749002806D001287E
:10061000086906D0400840000861704700208861E2
:10062000704701221043F7E700E000E0044902228E
:100630000028086901D0104300E09043086170472A
:1006400000E000E0014948617047000000E000E080
:1006500005480168002902D00168491E016003486D
:100660000168491C016070471C0000202000002028
:10067000F0B532481027C760314901200860314881
:10068000016B4024214301632F498A68272AFCD14A
:10069000416A032292029143416241680122D202DF
:1006A000114341608168C908C907FBD04168C90886
:1006B000C900C91C4160416B4907490F0329FAD1A0
:1006C000224B1968C908C900491C19600025056238
:1006D000426859158A43426006684A10164306600C
:1006E000066BA643066304681443046003221206E3
:1006F000826142680A43426081684908C907FBD0A9
:100700001968C908C900891C196005624168C908CF
:10071000C900491C4160416B4907490F0129FAD1C1
:1007200019683943196019680122120311431960CD
:100730004168921091434160F0BD00000081084083
:10074000008308400080084000A1064000020840E5
:10075000C943C167BFF34F8F70470029016902D0B9
:100760000122114301E049084900016170478030CE
:1007700000697047C26F406F0A400840002A03D0EA
:10078000002801D00120704700207047002A426FE6
:1007900001D00A4300E08A4342677047F0B50C7805
:1007A000A200121815461346A032903594466206F0
:1007B0004033AE46120E03249440204DE443A84239
:1007C00002D001249440E4431C4E056D254005658C
:1007D000456D2540B0428E7902D1CF797F003E43EE
:1007E00096402E434665154FB84208D1C66E4D7AE5
:1007F00026400C7A6D002C4394403443C4661C6838
:10080000FF250835AC431C601C684D882C431C60D8
:100810004C8973461C608C8963461C60B84206D1C3
:100820000B79497949000B439340016D02E0036D58
:10083000097991400B430365F0BD000000C0024000
:10084000803001617047000010B502460B8880328D
:1008500093604B885360036803242404A34303601C
:10086000036801242406A343036003688C682343C0
:100870000360044B984201D10B79D3608989816769
:1008800010BD000000C0024070B520214C0620467B
:1008900000F0A6F8002819D0204600F0F1F8C3B205
:1008A0001C48026811881C4D491C2D6889062D883A
:1008B000890E8D4205D01588184A12685355006874
:1008C00001802021204600F087F870BD802120465D
:1008D00000F086F80028F8D0114D286800881149EA
:1008E0000968095C204600F0CEF829680888401C99
:1008F0008006800E08800C48026812880B889A4295
:10090000E3D100220A80006802800221204600F024
:10091000AFF870BD54000020580000206400002093
:1009200060000020680000205C00002070B5234EAD
:100930002021304600F054F800281AD0204D2868B5
:100940000088401C8406A40E304600F099F8C1B21D
:100950001C4800680088A04206D0286800881A4A0F
:1009600012681154286804802021304600F034F8C1
:1009700070BD80213446304600F032F80028F7D0B0
:10098000124D2868008812490968095C204600F069
:100990007AF829680888401C8006800E08800D4877
:1009A000026812880B889A42E2D100220A8000680D
:1009B00002800221204600F05BF870BD0000044078
:1009C0006C000020700000207C00002078000020D7
:1009D000800000207400002002690A400261704714
:1009E0000069084000D001207047000070B504463F
:1009F0000D46C8888988626808432989184B1A40BF
:100A000011430843698908436060012080078442DC
:100A100006D11820FFF7CAFC2968FFF78DFB60623A
:100A20001048844206D11A20FFF7C0FC2968FFF75E
:100A300083FB60620C48844206D11C20FFF7B6FCA1
:100A40002968FFF779FB60620848844206D11E20BE
:100A5000FFF7ACFC2968FFF76FFB606270BD000018
:100A6000FCE0FFFF000004400010004000100440C4
:100A7000002AC26801D00A4300E08A43C26070477E
:100A8000006880B270470160704710238B40416856
:100A9000002A01D0194300E09943416070470000EB
:100AA000010902070901120F012010B59040002929
:100AB00006D0102907D0202908D030290FD108E00E
:100AC00081B2084807E081B2074804E081B20748D4
:100AD00001E081B20648FFF704FD012800D00020A4
:100AE00010BD000000000B4000200B4000400B40F8
:100AF00000600B4070B5064600070122000F8240DF
:100B00001A481B4B1B4C1C4D01290CD03109090103
:100B100021D0102922D0202924D0302917D191B2F8
:100B20000022284611E03109090108D0102909D016
:100B300020290DD030290AD191B20122F1E791B2DA
:100B4000012202E091B201220AE0FFF7CFFC70BD62
:100B500091B2012208E091B20022F6E791B20022A0
:100B60001846F2E791B200222046EEE700000B4063
:100B700000200B4000400B4000600B40C106C90E36
:100B800001208840014908607047000000E100E052
:100B9000F0B500240F2589B02D04254E601FFFF706
:100BA00027FD244F7D2189013868FFF7C5FAFFF73B
:100BB00049FD0120FFF73AFDC32101233246090216
:100BC0002846FFF70DFC1C4D2C706C702C71601EBC
:100BD000694602940880194848803014184E88816C
:100BE0003046FFF731FE1748694628614988491C9D
:100BF00041433868FFF7A0FA0322694668614A82D8
:100C000001220A758C750C74488304A93046FFF7DD
:100C1000C5FD012211463046FFF7B8FD0C20FFF755
:100C2000ADFF01213046FFF798FD09B0F0BD00008F
:100C3000400100018400002014000020CF070000C4
:100C400000E006401027000010B504460020FFF722
:100C5000DBFC0120FFF7D8FC05498C608868002880
:100C6000FCD1801EFFF7D0FC0020FFF7CDFC10BDAB
:100C70001400002070B50C460207120F01219140AC
:100C80008EB20109090106D0102909D020291FD0F0
:100C900030290BD121E001222D4D3146002003E007
:100CA00001222C4D31461046FFF700FB042C44D0A6
:100CB00018DC002C29D0012C2ED0022C32D0032C91
:100CC00022D1002231462846FFF7DEFB01222FE029
:100CD0000122214D31460220E6E701221F4D314617
:100CE0000320E1E7052C28D0092C0DD0112C01D0D0
:100CF000122C09D1002231462846FFF7C5FB0122FC
:100D000031462846FFF7C8FB70BD00223146284611
:100D1000FFF7BAFB02220BE0012231462846FFF71B
:100D2000B3FB70BD002231462846FFF7ADFB002221
:100D300031462846FFF7C0FBE1E70122314628464D
:100D4000FFF7A2FB012231462846FFF7ADFBD6E7AD
:100D500000000B4000200B4000400B4000600B40A7
:100D6000FFB5044683B00020207520461630226966
:100D70000290801C871C061D01903E49801D25465F
:100D80005E3500908A4235D13B4802990160019955
:100D90008760C660416000994561016106220421B7
:100DA0000020FFF783FA062208210020FFF77EFAD1
:100DB000304804990160FF21013181800021C18008
:100DC00001814181014601208007FFF70FFE0122CA
:100DD00011469007FFF74CFE012200219007FFF714
:100DE00054FE012211469007FFF74FFE01212348D0
:100DF000C905016022482169814234D11E48029907
:100E00008161019907624662C1610099C562816290
:100E1000062210210020FFF749FA06222021002097
:100E2000FFF744FA164804990160002181800322EB
:100E3000C180D20202814181124D01462846FFF74E
:100E4000D5FD012211462846FFF712FE012200219E
:100E50002846FFF71AFE012211462846FFF715FE25
:100E60000648A90101600020A08360832083E082FE
:100E700007B0F0BD100100205400002000E100E0A8
:100E80001C0100200000044010B50446012020751C
:100E9000608B638B401C8006800E22465E32995424
:100EA000618BA28B6083914211D10A4920698842EB
:100EB00004D1022101224807FFF7DAFD0649206923
:100EC000884204D1012202210448FFF7D1FD01200C
:100ED00010BD0000100100201C0100200000044093
:100EE0000268C9B212681047002242607D22D20017
:100EF0008260024A0260016170470000F01E00003B
:100F00001CB5044610A00068019010A00068009075
:100F1000072900D90721802A00D980220720411AF9
:100F2000B02001436B461971212018705A707F2040
:100F30009870012201A9204600F00AF803226946B0
:100F4000204600F005F81CBDB000000021007F0025
:100F500070B50D460646144600212F20FFF7CAFD46
:100F600006E02978304600F053F9641EE4B26D1CA7
:100F7000002CF6D170BDF8B5002706463D46009717
:100F8000002229463046FFF7BBFF002401226946B4
:100F9000304600F0C3F8641CE4B2802CF6D36D1C1C
:100FA000EDB2082DECD3B774F7743775F8BD0000B7
:100FB00010B586B04174044601211620FFF75AFE91
:100FC00001212F20FFF756FE01211820FFF752FEC6
:100FD00001211720FFF74EFE01212E20FFF74AFEC8
:100FE00000212E20FFF786FD00212F20FFF782FD34
:100FF00000211620FFF77EFD1420FFF725FE0121BA
:101000001620FFF777FD1420FFF71EFE182207A118
:101010006846FFF7A7F8172269462046FFF798FFB2
:101020002046FFF7A8FF06B010BD0000AE0010403C
:1010300081CFA1A6A83FD300D580D9F1DA12DB4039
:101040008D14AF00F8B50F460446417C0126007DA3
:101050000025002910D0002800D02575202F42D36C
:10106000E27C782A35D8A17C3B46204600F06AF81D
:10107000E07C0830E0744CE0002800D02575202F7B
:101080000AD3E27C782A0AD8A17C3B46204600F0AD
:1010900099F8E07C801DE0740A2F12D039E0A07C22
:1010A000401CC0B2A074082800D3A5742A46E57479
:1010B000EAE7A17C2023204600F084F8E07C801D34
:1010C000E074E27C782AF4D9A07C401C1BE0A57473
:1010D0001DE0A07C801CC0B2A074082800D3A574B9
:1010E0002A46E574BFE70A2F08D012E0A17C20232E
:1010F000204600F027F8E07C0830E074E27C782A93
:10110000F4D9A07C801CC0B2A0740828DFD2E5749A
:1011100026750120F8BD8174C274704770B50D4604
:101120000646144601212F20FFF7E4FC06E029784B
:10113000304600F06DF8641EE4B26D1C002CF6D150
:1011400070BD0000FFB581B00F46072900D9072701
:101150000398802801D980200390184620386228FF
:1011600000D32E231C01FF3CFF3C3946023C039A6E
:101170000198FFF7C5FE01212F20FFF7BBFC104EA1
:101180000025315D641C019800F042F86D1CEDB241
:10119000082DF6D37F1CF9B2039A0198FFF7B0FE31
:1011A00001212F20FFF7A6FC0025315D641C01986A
:1011B00000F02EF86D1CEDB2082DF6D305B0F0BD91
:1011C000F8180000F8B50746072900D90721802A3A
:1011D00000D9802218462038622800D32E2306200A
:1011E000203B43431C463846FFF78AFE01212F204F
:1011F000FFF780FC054E0025315D3846641C00F089
:1012000007F86D1CEDB2062DF6D3F8BDAC16000044
:1012100070B50D46082400211820FFF76BFC11E083
:10122000280601D5012100E000211720FFF762FC0C
:1012300001211820FFF75EFC00211820FFF75AFC5F
:101240006806050E2046641EE4B20028E8D170BD91
:10125000002242607D22D2008260024A0260017454
:1012600070470000141F0000704710B500F001F82F
:1012700010BD70B505460C0009D00846FEF792FF78
:1012800002462868214643682846984770BD0020DA
:1012900070BDF8B515460C460746002608E03868CC
:1012A000217802683846641C9047002802D0761CDA
:1012B0006D1EF4D23046F8BD70B50546FFF7D5FF78
:1012C0000446284600F002F8001970BD10B502A1CE
:1012D000FFF7CFFF10BD00000D0A000030B47446C8
:1012E000641E2578641CAB4200D21D46635D5B0022
:1012F000E31830BC1847000030B5002805D0164C64
:10130000021F20680023014605E0084630BD9042D8
:1013100003D8034640680028F9D1002B00D0596853
:10132000002B0AD01C68D51AA54204D11268A41853
:101330001A461C6002E05A6000E02260002807D0D4
:101340001468851AA54203D10568641914604068C1
:101350005060184630BD000088000020F1B50E4CEA
:101360000F480C4E001B0D4FC508ED000022114622
:10137000009800F049F8002803D13068002801D017
:101380000020F8BD3C6000202560606001203060D6
:10139000ECE700008C000020BC0200208800002048
:1013A000B802002002E008C8121F08C1002AFAD1C2
:1013B00070477047002001E001C1121F002AFBD1D5
:1013C0007047000010B505490548FFF78DFD04483A
:1013D0000449A030FFF788FD10BD00001001002077
:1013E000780100201C01002010B500210348FFF700
:1013F0002FFF034A0349FEF7EDFE10BD94000020C5
:101400000000000069120000F8B50B30C608F600B5
:10141000104D19E02068B04215D3B0420BD9636873
:10142000871B201D0093FEF79DFEA019009B0760FF
:101430004360286004E060682860201DFEF792FE8B
:10144000201D2660F8BD251D2C68002CE2D100204F
:10145000F8BD000088000020FFF79AFB01217A48C0
:10146000FFF7A6FD7848FFF786FD78A17648FFF7DD
:1014700023FF02211220FFF7FDFB02211320FFF7BB
:10148000F9FB02211520FFF7F5FB02211420FFF7DD
:10149000F1FB02212020FFF7EDFB02212A20FFF7BC
:1014A000E9FB01211F20FFF7E5FB01212B20FFF7BE
:1014B000E1FB00212B20FFF71DFB00211F20FFF780
:1014C00019FB4B216548C90100230622FFF748FCA0
:1014D0000025634C01260120FFF7B6FB1220FFF721
:1014E000DFFA002813D066701320FFF7D9FA00281E
:1014F00034D0A6701520FFF7D3FA002855D0E67037
:101500001420FFF7CDFA002877D02671E3E7607842
:101510000128E9D1657003215048FFF7E1FC032160
:101520004E48FFF7DDFC04214C48FFF7D9FC4DA1E4
:101530004A48FFF79AFE002204214348FFF7EBFDDB
:101540004AA14148FFF791FE002204213E48FFF7DF
:10155000E2FD48A13C48FFF788FEC5E7A0780128D6
:10156000C8D1A57003213D48FFF7BAFC03213B48D1
:10157000FFF7B6FC04213948FFF7B2FC3FA137481A
:10158000FFF773FE002204212F48FFF7C4FD37A1A7
:101590002D48FFF76AFE002204212B48FFF7BBFD10
:1015A00038A12948FFF761FEA4E7E0780128A7D118
:1015B000E57003212948FFF793FC03212748FFF733
:1015C0008FFC04212548FFF78BFC30A12348FFF74F
:1015D0004CFE002204211C48FFF79DFD23A11A4860
:1015E000FFF743FE002204211748FFF794FD29A1CD
:1015F0001548FFF73AFE83E7FFE72079012885D1F8
:10160000257103211548FFF76BFC03211348FFF7F1
:1016100067FC04211148FFF763FC20A10F48FFF786
:1016200024FE002204210848FFF775FD0FA106489B
:10163000FFF71BFE002204210348FFF76CFD19A1F0
:101640000148FFF712FE46E7940000207A696762BE
:1016500065655F627574746F6E000000780100202C
:101660000000002042543A302A00000020202020B0
:1016700020200000537461727400000042543A311B
:101680002A000000436C65617200000042543A3445
:101690002A00000052657475726E000042543A339D
:1016A0002A00000053746F7000000000000000006A
:1016B00000000000FA00000000E000E0000028FE4A
:1016C00028FE28002454FE544800C4C810264600B2
:1016D0006C926A040A000010E0C0000000384482E6
:1016E00000000082443800005438FE3854001010C6
:1016F0007C10100000021C180000101010101000C8
:101700000000060600000408102040007C8A92A217
:101710007C000042FE02000042868A9262008482BF
:1017200092B2CC00182848FE0800E4A2A2A29C00B5
:101730003C5292920C0082848890E0006C929292CB
:101740006C00609292947800000028000000000075
:10175000022C000000102844820028282828280095
:1017600000824428100040808A9060007C82BA9AEF
:1017700072003E4888483E00FE9292926C007C8245
:1017800082824400FE8282827C00FE9292928200DB
:10179000FE90909080007C8292925E00FE1010106D
:1017A000FE000082FE820000040282FC8000FE1027
:1017B00028448200FE0202020200FE403840FE0081
:1017C000FE201008FE007C8282827C00FE909090B9
:1017D00060007C828A847A00FE9098946200649211
:1017E00092924C008080FE808000FC020202FC008D
:1017F000F8040204F800FC021C02FC00C6281028B1
:10180000C600C0201E20C000868A92A2C20000FE30
:101810008282820040201008040000828282FE0042
:1018200020408040200001010101010000C0E010C3
:101830000000042A2A2A1E00FE1422221C001C2258
:10184000222214001C222214FE001C2A2A2A18001C
:1018500000107E904000182525253E00FE10202017
:101860001E000022BE02000000040202BC0000FEB6
:10187000081422000082FE0200003E201E201E00EE
:101880003E1020201E001C2222221C003F1824246F
:101890001800182424183F003E1020201000122A9F
:1018A0002A2A24002020FC2224003C0202043E00BC
:1018B0003804020438003C020C023C0022140814D4
:1018C0002200320909093E0022262A322200001095
:1018D0006C8200000000EE00000000826C1000002E
:1018E0004080402040000060909060000000FE8238
:1018F0008282828282FE0000000000000000000060
:10190000000000000000000000000E1F1F0E00007D
:10191000000000B0B0000000001C1C00001C1C00F7
:10192000000000000000000000041F1F041F1F042F
:101930000040F0F040F0F040000C1E7371180800F9
:101940000020301C9CF06000183C243D1B060C005D
:101950000060C0B078487830000D1F121E0C0000E7
:1019600000E0F01090E0F0900000001C1C0000006F
:1019700000000000000000000000030F1C10000029
:101980000000E0F81C0400000000101C0F03000021
:101990000000041CF8E00000000105070307050132
:1019A000000040C080C040000001010707010100A5
:1019B000000000C0C00000000000000000000000A7
:1019C000000000343C380000000101010101010069
:1019D0000000000000000000000000000000000007
:1019E000000000303030000000000001071E180029
:1019F000001878E08000000000000F1F10161F0F75
:101A00000000E0F0D010F0E00004040C1F1F000004
:101A100000000000F0F00000000C1C10111F0E0070
:101A2000003070D090101000000C1C11111F0E001F
:101A30000060701010F0E00000001F1F000707009A
:101A400000C0C04040F0F040001F1F1111111000F5
:101A50000010101030E0C0000003071E1A13010030
:101A600000E0F01010F0E00000101011171E180038
:101A7000000070F080000000000E1F13111F0E0008
:101A800000E0F01090F0E000000F1F10101F0F009A
:101A9000000090B0F0C080000000000606060000C4
:101AA0000000003030300000000000060606000094
:101AB000000000343C380000000103060C18100040
:101AC000000080C06030100000020202020202002A
:101AD00000808080808080000010180C06030100C8
:101AE00000103060C0800000000C1C11131E0C00A0
:101AF000000000B0B00000000F1F101113121F0FE4
:101B0000E0F01090D050D0D000070F18180F070049
:101B100000F0F08080F0F000001F1F11111F0E0078
:101B200000F0F01010F0E000000F1F10101C0C006F
:101B300000E0F01010706000001F1F10180F070069
:101B400000F0F01030E0C000001F1F111111100054
:101B500000F0F01010101000001F1F1111111000E4
:101B600000F0F00000000000000F1F10101C0C001F
:101B700000E0F01090F0F000001F1F01011F1F0097
:101B800000F0F00000F0F0000000101F1F10000037
:101B9000000010F0F010000000000000001F1F0007
:101BA0000060701010F0E000001F1F01071E1800F9
:101BB00000F0F000C0F03000001F1F000000000027
:101BC00000F0F01010101000001F1F0403041F1F6E
:101BD00000F0F0008000F0F0001F1F0603011F1F3F
:101BE00000F0F0000080F0F0000F1F10101F0F0039
:101BF00000E0F01010F0E000001F1F11111F0E0098
:101C000000F0F00000000000000F1F10101F0F0078
:101C100000E0F01018FCE400001F1F11111F0E005F
:101C200000F0F00080F07000000C1E131118080086
:101C30000020301090F060000010101F1F101000E6
:101C4000000000F0F0000000001F1F00001F1F0038
:101C500000E0F01010F0E000001F1F00001F1F0048
:101C600000C0E03030E0C000001F1F0003001F1F55
:101C70000080F0708070F08000181C07031C1800B2
:101C80000070F00080F07000001E1F01011F1E0098
:101C9000000000F0F000000000101011131E1C00E6
:101CA0000070F0901010100000001F1F10100000B6
:101CB0000000FEFE0202000000181E0701000000E6
:101CC00000000080E0781800000010101F1F0000C6
:101CD00000000202FEFE00000010306060301000C4
:101CE00000000000000000000000000000000000F4
:101CF00002020202020202020000406070100000B4
:101D000000000000000000000000040404070300BD
:101D10000060F09090F0F000001F1F040407030023
:101D200000F0F01010F0E0000003070404060200C9
:101D300000E0F0101030200000030704041F1F0013
:101D400000E0F01010F0F0000003070404070300A7
:101D500000E0F0909090800000010F1F1111110021
:101D60000000F0F000000000000307040407070073
:101D700000E2F21212FEFC00001F1F040407030021
:101D800000F0F00000F0F00000040437370000001D
:101D9000001010F0F01010000000040437370000AD
:101DA00000020202FEFC0000001F1F0001070600E7
:101DB00000F0F080C07030000010101F1F00000005
:101DC000001010F0F01010000007070407040703CC
:101DD00000F0F000E000F0F0000707040407030043
:101DE00000F0F00000F0F000000307040407030017
:101DF00000E0F01010F0E000000707040407030003
:101E000000FEFE1010F0E0000003070404070700C6
:101E100000E0F01010FEFE000007070102060600B9
:101E200000F0F000000000000003070404040400B8
:101E30000010909090F0600000041F1F0404040044
:101E40000000E0F010101000000707000007070076
:101E500000E0F01010F0F000000707000007070096
:101E600000C0E03030E0C0000007070003000707B3
:101E700000C0F030C030F0C00006070101070600C6
:101E8000003070C0C0703000000707000007070076
:101E900002E2F2161CF8E000000404040507060044
:101EA000003070D0901010000000010F1E100000D4
:101EB0000080C0783C0400000000001F1F000000EC
:101EC000000000FEFE0000000000101E0F010000D8
:101ED0000000043C78C080000C1810180C040C188A
:101EE00000000000000000000000000000000000F2
:101EF000890E0000931200000000000000000000A6
:101F000000000000000000000000000000000000D1
:101F100000000000451000009312000000000000C7
:101F200000000000000000000000000000000000B1
:101F3000581F00000000002094000000A4130000BF
:101F4000EC1F00009400002024040000B4130000E3
:101F500099F4FFFF71F4FFFF000000000002303031
:101F60003041303031033635000000000000000001
:101F70000000000000000000000000000000000061
:101F80000000000000000000000000000000000051
:101F90000000000000000000000000000000000041
:101FA0000000000000000000000000000000000031
:101FB0000000000000000000000000000000000021
:101FC0000000000000000000000000000000000011
:101FD000000000000000000000000000006CDC02B7
:0C1FE000000000000000000000000000F5
:04000005000000C136
:00000001FF
