:020000040800F2
:10000000400B0020A1010008FF170008FD170008A1
:1000100000000000000000000000000000000000E0
:10002000000000000000000000000000AD0100081A
:100030000000000000000000AF01000845180008A3
:10004000B301000800000000B3010008B30100087C
:10005000B301000825080008B3010008B301000837
:1000600000000000B3010008B3010008B30100085C
:100070005D070008B3010008B3010008000000009C
:10008000B3010008AD18000800000000B30100082B
:10009000B3010008B3010008B3010008B301000870
:1000A000B3010008B3010008B3010008811C000877
:1000B000911C000800F002F800F047F80CA030C8CE
:1000C000083824182D18A246671EAB4654465D46D4
:1000D000AC4201D100F039F87E460F3E0FCCB64657
:1000E0000126334200D0FB1AA246AB4633431847E1
:1000F0000836000028360000103A02D378C878C1CC
:10010000FAD8520701D330C830C101D504680C6059
:10011000704700000023002400250026103A01D378
:1001200078C1FBD8520700D330C100D50B607047AF
:100130001FB50098019900F0E8F900F0B3F91FBD70
:1001400010B5002000F03FFA10BD00F095FA1146FE
:10015000FFF7EEFF02F08EFD00F0ADFA03B4FFF7FB
:10016000EFFF03BC00F082FA70B505460C46164658
:1001700002E00FCC0FC5103E102EFAD2082E02D38B
:1001800003CC03C5083E042E07D301CC01C5361F9E
:1001900003E021782970641C6D1C761EF9D270BDB5
:1001A0000748804707480047FEE7FEE7FEE7FEE70F
:1001B000FEE7FEE704480549054A064B7047000084
:1001C00051180008B500000840050020400B002031
:1001D000400700204007002070B50446051F00F0CE
:1001E00073F90068002C1AD0446801E02046646866
:1001F000002C01D0AC42F9D301680A18AA4204D1FC
:100200002A6805468918016000E0456028684119A0
:10021000A14205D16168696021684018286070BDFD
:100220006C6070BDF8B5074615460E46102000F00C
:1002300099F9040009D06760A660E56000F048F90C
:100240000168216004600020F8BD0120F8BD30B5D0
:1002500005460B462A461C781078521C5B1C002869
:1002600001D0A042F7D0002C03D0002802D06D1C92
:10027000EFE7284630BD000030B5441C03E00178AC
:10028000401C00290DD08107F9D10B4BDD0104C8BA
:10029000D11A91432940FAD0001B0A0603D0C01E90
:1002A00030BD001B30BD0A0401D0801E30BD0902E4
:1002B000FCD0401E30BD000001010101024670B5B6
:1002C0000A4392072AD11E4DEE0104C808C9541BE7
:1002D0009443344017D0D0B2D9B2401A210601431A
:1002E00010D190B299B2401A210401430AD11002F0
:1002F0001902000A090A401A2102014302D1100E14
:10030000190E401A70BD9A42DFD010BA19BA88424D
:1003100001D9012070BD0020C04370BD02780B7868
:10032000401C491C002A09D09A4207D102780B7858
:10033000401C491C002A01D09A42EFD0D01A70BD4F
:1003400001010101002203098B422CD3030A8B42D5
:1003500011D300239C464EE003460B433CD40022BD
:1003600043088B4231D303098B421CD3030A8B42CF
:1003700001D394463FE0C3098B4201D3CB01C01A9D
:10038000524183098B4201D38B01C01A5241430968
:100390008B4201D34B01C01A524103098B4201D356
:1003A0000B01C01A5241C3088B4201D3CB00C01AC3
:1003B000524183088B4201D38B00C01A524143083B
:1003C0008B4201D34B00C01A5241411A00D2014660
:1003D0005241104670475DE0CA0F00D049420310F9
:1003E00000D34042534000229C4603098B422DD348
:1003F000030A8B4212D3FC22890112BA030A8B42F0
:100400000CD3890192118B4208D3890192118B423E
:1004100004D389013AD0921100E08909C3098B42C3
:1004200001D3CB01C01A524183098B4201D38B0106
:10043000C01A524143098B4201D34B01C01A5241A9
:1004400003098B4201D30B01C01A5241C3088B42EE
:1004500001D3CB00C01A524183088B4201D38B00D9
:10046000C01A5241D9D243088B4201D34B00C01A63
:100470005241411A00D20146634652415B10104678
:1004800001D34042002B00D54942704763465B10C0
:1004900000D3404201B50020C046C04602BD7047AF
:1004A0007047704770B5064C7C44064D7D4403E0B0
:1004B000206800198047241DAC42F9D170BD0000AE
:1004C0006C3200007032000000487047E8040020E1
:1004D0000048704718050020704770477047704704
:1004E00038B504460A4600206946C046C046002882
:1004F00005D002462046009900F091F8012038BD51
:1005000010B5012000F0ABF810BDF8B5C046C046EC
:10051000054600200C461020C0460646A819A042F9
:100520000DD9324669460020C046C046070001D1B9
:1005300000F095F80098A04200D00546C419FFF7D6
:10054000C3FFF61D07460560F008C000461928469F
:1005500000F05EF8B44204D031463868A21B00F0C7
:100560005EF8F8BD70B50646FFF7AEFF0568304689
:100570000B30C408E400B44201D8002070BD6868A4
:100580002A46002818D00168A14211D30B46214603
:1005900008318B4208D3436801194B6003681B1B69
:1005A0000B605160046001E041685160001D70BD46
:1005B000024640680028E6D121462846FFF790FF12
:1005C0000028DCD170BDF8B50646FFF781FF00902A
:1005D000054615E0002E02D0E068B0420FD1206839
:1005E00028600098A1680768606888472046FFF780
:1005F000F3FD00980068B84202D00098E8E725466D
:100600002C68002CE6D1F8BD00487047E0040020BB
:10061000002101604160806070471020704710B574
:100620000346406801E003464068002801D0884244
:10063000F9D31868C3188B4206D0CB1CD808C00069
:10064000001D411A521A0146081D0A60FFF7C4FD39
:1006500010BD10B5002801D000F008F810BD10B58D
:1006600000F04CF8FFF7F5FF10BD0000014918201D
:10067000ABBEFEE7260002007546FFF7C5FFAE469B
:10068000050069465346C008C000854618B020B52D
:10069000FFF790FD60BC00274908B6460026C0C59C
:1006A000C0C5C0C5C0C5C0C5C0C5C0C5C0C5403D2A
:1006B00049008D46704710B50446C046C0462046E6
:1006C000FFF74CFD10BD70B505460C460A2000E052
:1006D0006D1C00F03BF8002D06D028780028F7D1DB
:1006E00002E0641C00F032F8002C02D020780028D0
:1006F000F7D10A2000F02AF870BD000010B50128DB
:1007000005D0002103A0FFF7DEFF012010BD09A1E5
:10071000F8E7000053494752544D454D3A204F7574
:1007200074206F662068656170206D656D6F7279E9
:10073000000000003A2048656170206D656D6F72A1
:100740007920636F727275707465640008B56946CC
:1007500008700320ABBE08BD7047000010B502480A
:1007600000F08AF810BD00002C01002070B504468E
:1007700000688168490720D581681026490700294B
:1007800005DA8168890702D481683143816000F00D
:1007900005FA05460DE000F001FA401B022808D9D1
:1007A000606C30436064A06C01210843A06408467B
:1007B00070BD206880684007EDD4002070BDF8B59A
:1007C0000446006881688907890F012928D10168DA
:1007D000C90702D1C168090422D5816805221140E8
:1007E0001025012601290FD1816802221143816061
:1007F00021680320086000F0D1F907460CE000F002
:10080000CDF9C01B022807D9606C28436064A06C36
:100810003043A0640120F8BD20688068C007EED195
:100820000020F8BD10B5074C6069C00702D0012058
:1008300000F0F8F86069800702D5022000F0F2F8B5
:1008400010BD00000004014010B500F012F8054C86
:10085000E178054A49005052044800F076F801203A
:10086000207110BD14000020680300202C0100201E
:1008700070470068006C704770B5044600680168F6
:10088000490702D54168490705D40168090730D5F1
:10089000416809072DD5616CC90604D4616C012239
:1008A000520211436164C1680C250905890F0029B2
:1008B0001AD1216A002917D10168090714D5816866
:1008C0004A070121002A08DB4268AA434260606CA3
:1008D0000A0290430843606406E0606C20221043E3
:1008E0006064A06C0843A0642046FFF7ADFF206859
:1008F00005602068016809060DD5406800060AD524
:10090000606C0121090408436064204600F01CF873
:1009100021688020086020680168C90613D54168F5
:10092000C90610D5616B1025012902D0C168C9071D
:1009300007D0A16C02221143A16405602046FFF795
:1009400097FF2068056070BD704770B50546044686
:1009500040352878012807D001262E702046FFF761
:1009600005FF002802D011E0022070BD2068416818
:100970001C22914341602046FFF721FF002805D14A
:10098000616CFF220132914331436164002129707F
:1009900070BD70B50024014620314A78022A03D088
:1009A00004218163012416E0026813680E25AB431D
:1009B0001360026813685B085B0013600122056C1A
:1009C0001346AB40C56B6B604A7000220A70416BE6
:1009D000002900D08847204670BD31B500F0DEF810
:1009E000044600F0DBF80099001B8842F9D338BDBB
:1009F000F1B50A4E002437461037094D09E0600072
:100A0000315A0098814202D1A00038588047641CB6
:100A1000E4B268798442F2D3F8BD00007803002084
:100A20001400002010B504494A69024202D048610E
:100A3000FFF7DEFF10BD000000040140F8B5002301
:100A40008DE001249C40A44622407DD04C68022CBD
:100A500001D0122C0CD1DC08A40027183C6A5D07D9
:100A6000ED0E0F26AE40B4430E69AE4026433E6203
:100A700005685E000324B4400F79A543BF07BF0F8C
:100A8000B7402F4307604D68012D05D0022D03D0DC
:100A9000112D01D0122D0ED18568CF68A543B74026
:100AA0002F43876047686546AF430D79ED06ED0F2C
:100AB0009D403D434560C568A5438C68B4402C43C8
:100AC000C4604C68E40049D5284CA569012635432B
:100AD000A561A4699D0834400094254CAD002F19F0
:100AE000BC689D072E0F0F25B540AC430925ED06C8
:100AF000A84201D100250FE01E4DA84201D10125D9
:100B00000AE01D4DA84201D1022505E01B4DA84277
:100B100001D1032500E00525B5402543BD60184CF3
:100B200025684E689543F60300D515432560656832
:100B30004E689543B60300D515436560A5684E68B9
:100B40009543F60202D500E008E01543A560E5688C
:100B50004E689543B60200D51543E5605B1C0A68F4
:100B60001446DC4000D06CE7F8BD000000100240E5
:100B7000000001400004004800080048000C004844
:100B8000000401400069084000D001207047002A9D
:100B900001D08161704781627047000001480068A0
:100BA000704700004800002002480168491C0160AD
:100BB000704700004800002010B5044600F026F9F8
:100BC0007D21C900FFF7BEFB00F02AFB0022214671
:100BD000501E00F00DF8002010BD0000C106C90E27
:100BE00001208840014908607047000000E100E0F2
:100BF00010B500F005FE10BDF8B505460068354C8F
:100C0000C00352D5E0690026C00007D4E169200482
:100C10000143E161E1690140012600912E4801682C
:100C2000C90510D40168821511430160FFF7B6FFB2
:100C3000074604E0FFF7B2FFC01B642824D826480B
:100C40000068C005F6D5206A03273F02384020D04F
:100C50006968394081421CD0206A226AB843012168
:100C600009040A432262226A8A4322622062C00780
:100C70000FD0FFF793FF009008E0FFF78FFF009978
:100C8000411A1648814201D90320F8BD206A800725
:100C9000F3D5206A6968B84308432062002E04D067
:100CA000E169012000078143E1612878C00705D090
:100CB000206BA9688008800008432063287880069C
:100CC00005D5206B10218843E96808432063002084
:100CD000F8BD0000001002400070004088130000C2
:100CE000F8B5054644480E460068C007C00FB0423C
:100CF0000AD241480168490849003143016000684F
:100D0000C007C00FB0425CD128783C4C800705D5A5
:100D10006068F0218843A968084360602878C007AC
:100D20003FD06868012813D02168022813D08907B2
:100D3000002946DA61688908890001436160FFF78C
:100D40002DFF6968074601290DD0022917D024E03C
:100D500021688903ECE78901EAE7FFF71FFFC11B60
:100D60002748814217D860680007800F0128F4D116
:100D700017E0FFF713FFC11B214881420BD86068C1
:100D80000007800F0228F4D10BE0FFF707FFC11B1B
:100D90001B48814201D90320F8BD60680007800F1D
:100DA000F3D115480168C907C90FB1420BD90168D1
:100DB00049084900314301600068C007C00FB042D4
:100DC00001D00120F8BD2878400706D560680721CA
:100DD00009028843E9680843606000F02DF8616803
:100DE000084A0906090F515CC840074908600020FD
:100DF000FFF7E2FE0020F8BD002002400010024094
:100E0000881300009836000844000020014800685C
:100E10007047000044000020044805490068496804
:100E2000044A4905490F515CC840704744000020FE
:100E300000100240A836000810B512A30FCB88B0EE
:100E40006C460FC413A30FCB0FC416494A680C207D
:100E5000134603401448042B0FD0082B0DD19302E6
:100E60001B0F6C46E45CC96A04AB0907090F595CA7
:100E7000D20304D5FFF766FA604308B010BD0B48F3
:100E80006043FAE702030405060708090A0B0C0D84
:100E90000E0F10100102030405060708090A0B0CC7
:100EA0000D0E0F100010024000127A0000093D00E4
:100EB000FEB504460078D04DC00747D068680007EB
:100EC000800F012807D068680007800F022809D129
:100ED0006868C00306D52868800337D56068002895
:100EE0007ED033E0012062680004012A11D0810025
:100EF000002A01D0052A10D02A6882432A60286877
:100F0000884328606068002814D0FFF747FE064633
:100F10000CE0296801432960F4E72A680A432A6043
:100F2000F7E7FFF73BFE801B64286FD82868800333
:100F3000F7D50BE0FFF732FE064604E0FFF72EFE82
:100F4000801B6428F1D828688003F7D42078012614
:100F5000800700283BDA68680007800F07D06868C0
:100F60000007800F022809D16868C00306D42868EA
:100F7000800715D5E068012832D111E0E06800282B
:100F8000286815D030432860FFF708FE074604E0C4
:100F9000FFF704FEC01B0228C7D828688007F7D5D2
:100FA0002868F82188432169C900084328600EE0B9
:100FB000400840002860FFF7F1FD074604E0FFF716
:100FC000EDFDC01B0228B0D828688007F7D4207830
:100FD000000724D5E0690028686A10D0304300E09B
:100FE00008E16862FFF7DAFD074604E0FFF7D6FD87
:100FF000C01B022899D8686A8007F7D50FE040081F
:1010000040006862FFF7CAFD074605E09DE0FFF774
:10101000C5FDC01B022888D8686A8007F7D42078ED
:1010200004274007002860DA00200190E869C0002A
:1010300008D4E969B8060143E961E9690140012082
:10104000009101906D480168C90511D401688215AD
:1010500011430160FFF7A2FD009005E0FFF79EFD40
:101060000099401A642870D864480068C005F5D516
:10107000A06801280AD0002801D0052810D0286ACD
:10108000400840002862286AB84301E0286A3043DB
:101090002862A068002812D0FFF780FD00900AE0C7
:1010A000286A38432862F1E7FFF778FD0099411A72
:1010B0005348814249D8286A8007F5D50DE0FFF7EB
:1010C0006DFD009006E0FFF769FD0099411A4C485C
:1010D00081423AD8286A8007F5D40198002804D0C4
:1010E000E969012000078143E9612078C00635D510
:1010F000606901280CD0401D686B23D038436863B9
:10110000686B400840006863FFF748FD064622E030
:10111000686B38436863686B30436863FFF73EFD74
:10112000064604E0FFF73AFD801B02285BD8686B97
:101130008007F7D5686BF8218843A169C900084387
:1011400068630BE0B8436863F4E74CE0FFF726FD03
:10115000801B022847D8686B8007F7D4206A0028D4
:1011600046D069680907890F022943D0012636064F
:101170000228286805D0B0432860FFF70FFD044619
:1011800033E0B0432860FFF709FD074604E0FFF7AE
:1011900005FDC01B022826D828688001F7D4E86A1C
:1011A000E16A000900010843E862616AA06A084335
:1011B00069683D22120491430843686028683043FF
:1011C0002860FFF7EBFC044604E0FFF7E7FC001B98
:1011D000022808D828688001F7D509E0FFF7DEFC6F
:1011E000001B022801D90320FEBD28688001F5D428
:1011F0000020FEBD0120FEBD001002400070004036
:1012000088130000042204490428086902D090438E
:10121000086170471043FBE700E000E07047000002
:10122000094910B5401E884201D9012010BD074C64
:1012300060610321081F00F0E3FA0020A06107208D
:101240002061002010BD0000FFFFFF0000E000E073
:1012500010B5FFF7E3FF10BD7047704770B504008D
:1012600005D025462035687F002802D006E0012001
:1012700070BD00202877204600F00AF80220687729
:10128000211D206800F01AFB01206877002070BD46
:1012900070470268D36801210B43D360006802687D
:1012A0000A43026000207047704770B5044600682A
:1012B00001690025C9438907002915DBC168C943B5
:1012C000890711D4E91E0161012020772068806917
:1012D0008007204602D0FFF7E7FF04E000F096F811
:1012E000204600F094F8257720680169C943490732
:1012F00017D4C168C943490713D40421C943016104
:1013000002202077206880698005800F204602D067
:10131000FFF7CAFF04E000F079F8204600F077F804
:10132000257720680169C943090716D4C168C943F4
:10133000090712D40821C9430161042020772068DD
:10134000C0698007204602D0FFF7AEFF04E000F03E
:101350005DF8204600F05BF8257720680169C943F5
:10136000C90617D4C168C943C90613D41021C9439B
:101370000161082020772068C0698005800F204621
:1013800002D0FFF791FF04E000F040F8204600F0A3
:101390003EF8257720680169C943C90708D1C168AB
:1013A000C943C90704D1891E0161204600F030F805
:1013B00020680169C943090609D4C168C9430906FF
:1013C00005D48021C94301612046FFF745FF20680D
:1013D0000169C943490609D4C168C943490605D40E
:1013E0004021C9430161204600F084F8206801696A
:1013F000C943890609D4C168C943890605D4202197
:10140000C94301612046FFF728FF70BD7047704750
:10141000F8B532490068096888425ED1304E3078AC
:10142000401C307037462D4D00240E37C03551E03A
:101430002B48801D005D31788842385D20D82028F7
:1014400012D004DC002807D0102841D108E0302851
:101450000ED050283CD10FE06000295A00221FE036
:101460006000295A002221E06000295A002222E06F
:101470006000295A002223E06000295A002224E05B
:10148000202815D004DC002807D0102820D10AE03D
:10149000302812D050281BD114E06000295A0122B4
:1014A0000920C00612E06000295A01220D480DE013
:1014B0006000295A01220C4808E06000295A0122E4
:1014C0000A4803E06000295A01220948FFF75FFB40
:1014D000641CE4B270788442AAD3F8BD980200205C
:1014E000140000200004004800080048000C0048D8
:1014F00000140048704770B5040019D0242120461C
:101500006030064641722068016849084900016060
:1015100020680025056020684560206885602046B9
:1015200000F0CAF8E5667572B5723572002070BDBC
:10153000012070BD70470000F8B503680446D96902
:1015400018680D072D0F07D18A0605D5820603D529
:10155000204600F08BFAF8BD9A68002D64D0D507BC
:10156000ED0FFF26213606402E435DD0CE0706D074
:10157000C60504D501261E62E36E3343E3668F077A
:1015800002230426002F06DAD70704D027683B621F
:10159000E76E3743E7664F0706D5D20704D02268C7
:1015A0001662E26E1A43E2660A0709D5202202405B
:1015B0002A4305D0236808221A62E36E1343E366C8
:1015C000E26E002AC7D0890604D5800602D52046DF
:1015D00000F04CFAE06E000703D4206880684006F3
:1015E0001CD5204600F026FA20688168490611D5EE
:1015F0008168402291438160606E00280AD01249C0
:101600004163606EFFF7C5F90028A4D0606E416B9E
:101610008847F8BD2046FFF78DFFF8BD2046FFF74D
:1016200089FF0020E066F8BD0A0605D5020603D54D
:10163000204600F0F1FAF8BD4906FCD54006FAD57F
:10164000204600F006FAF8BD211A000870B5040023
:1016500005D025466035687A002802D006E00120D2
:1016600070BD00202872204600F027F82420687200
:1016700020680168490849000160204600F034FAFA
:101680000128EDD0606A002802D0204600F05AF907
:10169000206841680122D20291434160206881683C
:1016A0000822914381602068016801221143016092
:1016B000204600F0ACF970BD7047704770B5034626
:1016C00060339C7A202C39D100290BD0002A09D014
:1016D000012584682D03AC4206D10669002E03D192
:1016E000CE0701D0012070BD1E7A012E26D0012622
:1016F0001E724165014640310A834A83FF22AC4293
:1017000004D10469002C07D10D4A05E0002C04D156
:101710000469002C00D07F228A830021C166222226
:101720009A72197201688A6832438A600068016897
:10173000FF22213211430160002070BD022070BDE4
:10174000FF01000010B5044600680749884202D135
:10175000064800F0A5FE06492068884203D10348E8
:101760009C3000F09DFE10BD00380140A803002011
:101770000044004030B5034660335C7A202C23D10E
:1017800000290BD0002A09D0012584682D03AC4222
:1017900006D10469002C03D1CC0701D0012030BD53
:1017A0001C7A012C10D0C164014640310A824A8261
:1017B0000021C16621225A721972006801688022D4
:1017C00011430160002030BD022030BD10B5044639
:1017D00000680749884202D1064800F091FE064998
:1017E0002068884203D103489C3000F089FE10BD78
:1017F00000380140A803002000440040FEE7704785
:101800008307FF22DB0E9A408907090E99400028C2
:101810000BDA0007000F0838830808489B001818E7
:10182000C36993430B43C3617047830804489B001B
:101830001B181868904308431860704700ED00E0DB
:1018400000E400E010B5FFF7AFF9FFF701FD10BDB0
:10185000134801680122114301604168114A114097
:1018600041600168104A1140016001680122920440
:101870009143016041683F22120491434160C16A73
:1018800009090901C162016BFF221432914301630E
:10189000416B4908490041630021816070470000A5
:1018A000001002400CB8FF08FFFFF6FE10B502481A
:1018B000FFF7FBFC10BD000098020020F0B50268A5
:1018C0001A4B1B4C984201D0A04203D17025AA4369
:1018D0004D682A43174D184E184F98420AD0A0421F
:1018E00008D0174CA04205D0A84203D0B04201D086
:1018F000B84205D11446032212029443CA68224317
:101900008024A2434C69224302608A68C2620A684A
:101910008262984205D0A84203D0B04201D0B842BA
:1019200001D10969016301214161F0BD002C014031
:1019300000040040004001400044014000480140D4
:101940000020004010B5818CC90707D001684A68A3
:1019500001235B049A43836A1A434A60818C890796
:1019600007D501684A6801231B049A43C36A1A43D6
:101970004A60818C490707D501684A6801239B04A6
:101980009A43036B1A434A60818C090707D50168A3
:101990004A680123DB039A43436B1A434A60818CF4
:1019A000C90607D50268916801231B039943836B1D
:1019B00019439160818C890607D501688A680123E3
:1019C0005B039A43C36B1A438A60818C490612D524
:1019D00003685A6801210905046C8A4322435A604E
:1019E000026C8A4207D10268516803235B05994360
:1019F000436C19435160818C090607D501684A6818
:101A00000123DB04806C9A4302434A6010BD00212D
:101A1000C1662022603042728272017208467047AD
:101A200010B5406A0022014640314A834A82FFF7DE
:101A300081FD10BD01680A68FF2321339A430A60C3
:101A400001688A68520852008A60202160308172E1
:101A5000704710B501680A6840239A430A60202243
:101A600069210A54FFF7B2FE002010BD70B502468E
:101A7000403203466033948B9D7A0168222D05D055
:101A80008869082210438861022070BD898C012674
:101A900085683603B54202D10569002D0BD021407F
:101AA000446D651C45652170518B491E0904090C64
:101AB000518307D015E0456D21402980416D891C77
:101AC0004165F1E701680A68FF242134A2430A60F6
:101AD00001688A68520852008A6020219972FFF7D3
:101AE00031FE002070BD0000F8B504462369A268ED
:101AF000E5691A43636910202B43002125681A43C6
:101B00002B680E463E4F3B4013432B6023685A68B8
:101B100003252D03AA43E5682A435A60236AA26974
:101B200025681A43AB680B273F02BB431343AB60E6
:101B3000344A2568954210D1334A126B9207920FAE
:101B40000ED0012A05D0022A05D0032A09D102208D
:101B500007E0042005E0082003E02C4A954200D16C
:101B600000200122E369D203934224D100280CD043
:101B700002280DD0042813D0082817D001260A09FE
:101B800012010807400F10432FE0FFF745F909E065
:101B900061681F4A48088018FEF7D4FB81B2EEE75F
:101BA000FFF74AF9616840004A08F4E761680122DA
:101BB00048081204EFE7002808D0022809D00428BA
:101BC0000BD0082814D001263046F8BDFFF724F9C1
:101BD00005E061680F4A48080CE0FFF72DF96168DD
:101BE0004A088018FEF7AEFB80B22168C860EBE7B8
:101BF000616848088018FEF7A5FB80B2E860E3E75B
:101C0000F369FFFF0038014000100240004400402B
:101C10000024F40000127A006921095C212901D016
:101C20000220704702464032518A002912D0012317
:101C300081681B03994202D10169002915D0C16C4A
:101C40004B1CC364006809780185508A401E50828D
:101C50000020704701680A6880239A430A60006880
:101C60000168402211430160F2E7C16C03680988F2
:101C7000C905C90D1985C16C891CC164E5E700005F
:101C800010B50248FFF758FC10BD00007801002095
:101C900010B50248FFF750FC10BD0000E80100201D
:101CA00070B5154E0025154C0DE0657001210B2017
:101CB00000F0A0F8124800F055FC21787054632918
:101CC00001D2491C21700E4800F038FD0028ECDCE0
:101CD0006078411C617014280BD36570207800284F
:101CE00007D0355400210B2000F084F82570012026
:101CF00070BD002070BD00006400002000000020C6
:101D0000A8030020020901071201090F012010B5E4
:101D10008840202A11D004DC002A07D0102A18D1CC
:101D200008E0302A0CD0502A13D10CE081B20920EF
:101D3000C0060AE081B2084807E081B2074804E023
:101D400081B2074801E081B20648FEF71BFF012877
:101D500000D0002010BD000000040048000800482A
:101D6000000C00480014004870B50D4606461446A5
:101D7000AA211F4800F0DEFCC7211D4800F0DAFC54
:101D8000BB211B4800F0D6FC1E20FEF726FEAA2130
:101D9000174800F0CFFCC721154800F0CBFC5A21B2
:101DA000134800F0C7FC3146114800F091FC290AA5
:101DB0000F4800F0BFFCE9B20D4800F0BBFC210A5F
:101DC0000B4800F0B7FCE1B2094800F0B3FCBB21BE
:101DD000074800F0AFFC3220FEF7FFFD02E00448A8
:101DE00000F0C0FB024800F0A9FC0028F7DC70BD41
:101DF000A8030020F8B5030701221B0F9A4009230E
:101E00000009DB06214C224D224E234F00010129FF
:101E10000AD0202831D024DC00282AD0102819D15B
:101E200091B20022204613E0202814D006DC0028BE
:101E30000BD010280ED191B20122F3E730280DD03B
:101E4000502807D191B2012211E091B2012212E093
:101E5000FEF79DFEF8BD91B2012210E091B2012281
:101E600011E030280DD05028F4D191B2002238462C
:101E7000EEE791B200221846EAE791B20022284626
:101E8000E6E791B200223046E2E700000004004895
:101E900000080048000C00480014004870B512A06B
:101EA00000F0ACF83220FEF798FDFF250024F53550
:101EB00000F0B8FA012807D00120FEF78EFD641C5F
:101EC000AC42F5DB002070BD0AA10D4800F0ACFE6D
:101ED000002801D0022070BD0AA1094800F0A4FE2C
:101EE0000028F8D0012070BD41542B4D515354416E
:101EF000545553004D51545420434C4F53454400C6
:101F0000C80000204D51545420434F4E4E45435479
:101F10004544000010B510A1124800F0F3FD12A1D5
:101F2000104800F0EFFD12A10E4800F0EBFD11A1EA
:101F30000C4800F0E7FD12A10A4800F045FE6420BD
:101F4000FEF74BFD02E0074800F00CFB054800F0EF
:101F5000F5FB0028F7DC10BD41542B43574A415094
:101F60003D22000044040020687573746B6974009E
:101F7000222C22003132333435363738000000004D
:101F8000220000003EB516A000F038F83220FEF71F
:101F900024FDFF250024F53500F044FA012807D080
:101FA0000120FEF71AFD641CAC42F5DB00203EBDAB
:101FB0000EA10F4800F038FE0028F8D000216A4634
:101FC00043181B795354491C0729F9DB002050544E
:101FD00008A11046FEF772F90028E8D001203EBDA6
:101FE00041542B4349505354413F000069703A001B
:101FF000C8000020302E302E302E300010B50146A3
:10200000014800F0E1FD10BD4404002010B511A10D
:10201000144800F077FD14A1124800F073FD15A1DB
:10202000104800F06FFD0A2213490E4800F0E0FD51
:10203000FF20F530FEF7D1FC02E00A4800F092FAEA
:10204000084800F07BFB0028F7DC0CA1054800F0F5
:10205000BBFD10BD41542B4D514950504F52543D82
:1020600022000000440400206C69616E74772E63C6
:102070006F6D0000222C00005B07000041542B4DC7
:10208000515354415254000070B50C46054614A1FA
:10209000174800F037FD2946154800F033FD15A11B
:1020A000134800F02FFD2046FEF7E6F801460A220D
:1020B0000F4800F0A7FD3C20FEF78FFC21460C489E
:1020C00000F020FDC820FEF788FC02E0084800F080
:1020D00049FA074800F032FB0028F7DC70BD000029
:1020E00041542B4D515055424C4953483D2200001C
:1020F00044040020222C000010B50BA10C4800F075
:1021000093FD00280DD00BA100F08EFD002808D013
:102110000BA100F089FD002803D00A4908610120C5
:1021200010BD002010BD00002B4D51443A000000AE
:10213000C8000020485553544B4954330000000058
:102140007B22000000000020F0B5644C95B0A0692F
:1021500001210843A061A06908401490604800680C
:1021600010255F4928430860022601200896039045
:1021700004950020099005200096C0040A900020D4
:102180000B906846FEF794FE07200C9000200E90FE
:102190000F900D9601210CA8FEF7A2FD01201090D2
:1021A0000320129010A8FEF727FDFEF72FFE7D21D9
:1021B000C900FEF7C7F8FFF733F80420FFF722F84D
:1021C00000221146501EFEF713FD60696F0338436D
:1021D00060616069384014906169A80301436161DE
:1021E0006169014014916169400001436161616965
:1021F00001401491616940000143616161690140DE
:102200001491616980000143616161690140149129
:10221000344800214170817041713449324808606E
:10222000334870310860E0692843E061E0690022CA
:102230002840149011461120FEF7DAFC1120FEF719
:10224000CDFC2D4E2B48306000207060B0602C48D3
:102250002A490068FEF776F8401EF06035460020F7
:102260004035286170613046FEF7F8FF3046FFF7D1
:1022700010F8E169A0150143E161E1692F260140F1
:102280002048149141C5002028601F486860002044
:10229000A860E86028460838083DFEF7DFFF296897
:1022A0000020486228680168012211430160A0698A
:1022B0003843A061A0691549384014902846403041
:1022C00042C0002101601049416000218160C1606D
:1022D0000838FEF7C3FF15B0F0BD00000010024043
:1022E0000020024014000020003801407801002046
:1022F0000044004000100040980200209C63000051
:102300004400002000200040FFFF00000044014086
:1023100070B50D4604460FA1134800F0F3FB2146AB
:10232000114800F0EFFB11A10F4800F0EBFB0A226F
:1023300029460D4800F052FCFF202D30FEF74DFBE2
:1023400002E0094800F00EF9074800F0F7F900280C
:10235000F7DC70BD41542B4D515355425343524904
:1023600042453D220000000044040020222C0000D1
:1023700030B5002211250324012385B004291BD088
:1023800008DC00290FD001290FD002292BD0032906
:1023900016D10DE0052911D0092922D0112922D00A
:1023A00012290DD11FE0019200E00193029207E093
:1023B00002210192029103E00195F7E70195029352
:1023C0000107090F8B4000090001039400932028A6
:1023D00019D00ADC002812D010280ED169460D4809
:1023E00009E00194E2E70192E9E730280ED0502895
:1023F00003D169460848FEF721FB05B030BD09202E
:102400006946C006F7E769460448F4E769460448A8
:10241000F1E70000000400480014004800080048EC
:10242000000C004870B51B4E00251B4C0DE0E570FC
:1024300001210B20FFF7DEFC184800F093F8A1788B
:102440007054632901D2491CA170144800F076F938
:102450000028ECDCE078411CE170142817D3E5700B
:10246000A078002813D03554A068022808D0094865
:102470007C3800F0B0F9074908467C3800F0A4FB2E
:10248000A57000210B20FFF7B5FC012070BD0020D6
:1024900070BD0000C800002000000020440400209F
:1024A00070B50446407D401C85062069AD0E00686D
:1024B00021460F4A99310E46904203D101220D4820
:1024C000FFF7FCF8206900680B49884204D101221B
:1024D00031460A48FFF7F2F8A07DA84206D09920BD
:1024E000015D627D204619301154657570BD000094
:1024F000003801407801002000440040E80100203D
:1025000038B50446007E401C8006800E2076E07DB3
:10251000217E884203D100202076E07538BD217EDF
:1025200020465930085C69460870206900680949EE
:10253000884204D1012269460748FFF71BF9206948
:10254000006806498842E9D1012269460448FFF73C
:1025500011F938BD003801407801002000440040E6
:10256000E8010020417D827D914202D10020C043DC
:102570007047827D01461931515C827D521C920662
:10258000920E82750846704710B50023062200F0AF
:1025900001F810BDF0B587B0002405460475006948
:1025A0001E4602680F4628464449993005908A42E3
:1025B0003CD143488269012189030A4382618069D1
:1025C0000840069003204002009002200190012163
:1025D000032003900291049109206946C006FEF78A
:1025E0002DFA002211461B20FEF702FB1B20FEF7EE
:1025F000F5FA344831498460C460046182C00C211A
:102600000461C1600838002E04D00821416209032A
:10261000416300E044622B48FEF76DFF2948FFF755
:1026200015F8012227480599FFF748F8286901683D
:10263000254881423BD12248C269012149040A430D
:10264000C261C069084006900C20009002200190F1
:102650000121032003900291049109206946C006DC
:10266000FEF7ECF9002211461C20FEF7C1FA1C20EF
:10267000FEF7B4FA154814498460C460046182C04E
:102680000C210461C1600838002E04D00821416289
:102690000903416300E044620C48FEF72CFF0B483D
:1026A000FEF7D4FF012209480599FFF707F82C76B9
:1026B000EC75AC756C7507B0F0BD000000380140DA
:1026C000001002407801002000440040E801002092
:1026D00013B5044601202075E07D6946401C800644
:1026E0000A79E37D800E214659315A54E17D227EDC
:1026F000E075914213D1206900680A49884204D1EB
:10270000012201A90848FFF735F820690068074948
:10271000884204D1012201A90548FFF72BF80120C6
:102720001CBD00000038014078010020004400403A
:10273000E80100200268C9B212681047417D807D1F
:10274000081A8006800E7047002242607D22D20067
:102750008260024A0260016170470000B8360008DA
:102760001CB5044610A00068019010A000680090FD
:10277000072900D90721802A00D980220720411A81
:10278000B0200143684601712121017042707F2110
:102790008170012201A9204600F00AF8032269464F
:1027A000204600F005F81CBDB000000021007F00AD
:1027B00070B50D460646144600211820FFF71AFB97
:1027C00006E02978304600F04FF9641EE4B26D1C33
:1027D000002CF6D170BDF8B50026074634460096A9
:1027E000002221463846FFF7BBFF0025012269463B
:1027F000384600F0C0F86D1CEDB2802DF6D3641C95
:10280000E4B2082CECD3BE74FE743E75F8BD000033
:1028100010B586B04174044601212D20FFF7A8FDB4
:1028200001211820FFF7A4FD01212F20FFF7A0FDB3
:1028300001212E20FFF79CFD01211920FFF798FDB3
:1028400000211920FFF7D6FA00211820FFF7D2FA4D
:1028500000212D20FFF7CEFA1420FEF7BEF801214B
:102860002D20FFF7C7FA1420FEF7B7F8182207A1AA
:102870006846FDF779FC172269462046FFF798FF66
:102880002046FFF7A8FF06B010BD0000AE001040C4
:1028900081CFA1A6A83FD300D580D9F1DA12DB40C1
:1028A0008D14AF00F8B50E460446417C0127007D2B
:1028B0000025002910D0002800D02575202E42D3F5
:1028C000E27C782A35D8A17C3346204600F066F8B1
:1028D000E07C0830E0744CE0002800D02575202E04
:1028E0000AD3E27C782A0AD8A17C3346204600F03D
:1028F00095F8E07C801DE0740A2E12D039E0A07CAF
:10290000401CC0B2A074082800D3A5742A46E57400
:10291000EAE7A17C2023204600F080F8E07C801DBF
:10292000E074E27C782AF4D9A07C401C1BE0A574FA
:102930001DE0A07C801CC0B2A074082800D3A57440
:102940002A46E574BFE70A2E08D012E0A17C2023B6
:10295000204600F023F8E07C0830E074E27C782A1E
:10296000F4D9A07C801CC0B2A0740828DFD2E57422
:1029700027750120F8BD70B50D46064614460121A5
:102980001820FFF737FA06E02978304600F06CF897
:10299000641EE4B26D1C002CF6D170BDFFB581B091
:1029A0000E46072900D907260398802801D98020E0
:1029B000039018462038622800D32E231C01FF3CC8
:1029C000FF3C3146023C039A0198FFF7C9FE012102
:1029D0001820FFF70FFA104F0025395D641C01988D
:1029E00000F042F86D1CEDB2082DF6D3761CF1B262
:1029F000039A0198FFF7B4FE01211820FFF7FAF9B6
:102A00000025395D641C019800F02EF86D1CEDB2B4
:102A1000082DF6D305B0F0BDA8300008F8B506467D
:102A2000072900D90721802A00D98022184620389A
:102A3000622800D32E230620203B43431C46304609
:102A4000FFF78EFE01211820FFF7D4F9054F00256E
:102A5000395D3046641C00F007F86D1CEDB2062DA0
:102A6000F6D3F8BD5C2E000870B50C460825002191
:102A70002F20FFF7BFF911E0200601D5012100E06A
:102A800000212E20FFF7B6F901212F20FFF7B2F920
:102A900000212F20FFF7AEF96006040E28466D1EB8
:102AA000EDB20028E8D170BD002242607D22D20044
:102AB0008260024A0260017470470000DC36000840
:102AC000704770B515468AB006460A46002008A928
:102AD000087008AC022D00D20A2529461046FDF7E1
:102AE00031FCC9B202460A2901D2303100E0373147
:102AF000641E2170002AF0D12146304600F041F8D2
:102B00000AB070BD10B500F03CF810BD0268126844
:102B1000104710B500F029F810BD10B500F005F809
:102B200010BD10B500F021F810BD70B50C4605467B
:102B3000002A03D00A2A07D0D2B213E02868C9B20B
:102B400002682846904770BD002C0ADA2D21FFF755
:102B5000DDFF064661420A222846FFF7B2FF8019D0
:102B600070BD0A22FFF7ADFF70BD10B5002A03D07B
:102B7000D2B2FFF7A6FF10BD0268C9B21268904733
:102B800010BD70B505460C0009D00846FDF774FB72
:102B900002462868214643682846984770BD0020B1
:102BA00070BDF8B514460D460746002608E03868A3
:102BB0002978026838466D1C9047002802D0761CA0
:102BC000641EF4D23046F8BD70B50546FFF79AFF93
:102BD0000446284600F020F8001970BD70B505467F
:102BE000FFF797FF0446284600F016F8001970BD5D
:102BF00070B50546FFF791FF0446284600F00CF833
:102C0000001970BD70B50546FFF78BFF04462846D6
:102C100000F002F8001970BD10B502A1FFF7B1FF76
:102C200010BD00000D0A000010B5FDF710FB10BD2F
:102C300010B505490548FFF787FD044804499C3055
:102C4000FFF782FD10BD000078010020A8030020DE
:102C5000E801002010B500210348FFF725FF034AD3
:102C60000349FDF7DFFA10BD4C000020000000080A
:102C7000C12A0008FFF768FA02215020FFF778FB0D
:102C800002215120FFF774FB01210820FFF770FBA0
:102C900001210B20FFF76CFB00210B20FFF7AAF8A6
:102CA00001210820FFF7A6F801215848FFF7B0FDE1
:102CB00057A15648FFF788FF4B24E40121465848A6
:102CC000FFF762FC574A58491620FFF74DF8214696
:102CD0005648FFF759FC564C0025A570A560FFF734
:102CE00019F90126FF27F5375020FFF70BF80028C8
:102CF00013D026715120FFF705F800281DD066710A
:102D00000120FDF76AFEA068002826D0012832D0F5
:102D1000FFF788FB01284AD05FE020790128E9D13C
:102D2000257101210B20FFF765F86420FDF755FEA2
:102D300000210B20FFF75EF8DCE760790128DFD186
:102D4000657101210B20FFF755F86420FDF745FE62
:102D500000210B20FFF74EF8D2E7E068401CE0604E
:102D6000B842C1DDE560FFF70DF90128BCD1A660CE
:102D7000FFF74CF9B8E7E068401CE060B842B3DD0B
:102D8000E560FFF78BF802280BD00128ACD1C820F2
:102D9000FDF723FE012127A0FFF7BAFA0220A06069
:102DA000A2E7C820FDF719FE25A120482BE0FFF778
:102DB000A3F9012811D11A482169FFF7A3FE206960
:102DC000203085761148FFF706FD20A10F48FFF758
:102DD00099FE0E482169FFF7F7FEFEF761FF012813
:102DE00082D10A4913A01831FFF74EF9074838304D
:102DF00085763838FFF7EFFC16A10448FFF782FE0E
:102E0000024902481831FFF7DFFE6DE74C00002051
:102E1000485553544B495433204D515454000000ED
:102E2000A8030020333300002222000044040020C5
:102E300000000020485553544B4954330000000013
:102E400041542B4D51535441525400005A42205486
:102E5000583A00005A422052583A00000000000040
:102E600000000000FA00000000E000E0000028FE82
:102E700028FE28002454FE544800C4C810264600EA
:102E80006C926A040A000010E0C00000003844821E
:102E900000000082443800005438FE3854001010FE
:102EA0007C10100000021C18000010101010100000
:102EB0000000060600000408102040007C8A92A250
:102EC0007C000042FE02000042868A9262008482F8
:102ED00092B2CC00182848FE0800E4A2A2A29C00EE
:102EE0003C5292920C0082848890E0006C92929204
:102EF0006C006092929478000000280000000000AE
:102F0000022C0000001028448200282828282800CD
:102F100000824428100040808A9060007C82BA9A27
:102F200072003E4888483E00FE9292926C007C827D
:102F300082824400FE8282827C00FE929292820013
:102F4000FE90909080007C8292925E00FE101010A5
:102F5000FE000082FE820000040282FC8000FE105F
:102F600028448200FE0202020200FE403840FE00B9
:102F7000FE201008FE007C8282827C00FE909090F1
:102F800060007C828A847A00FE9098946200649249
:102F900092924C008080FE808000FC020202FC00C5
:102FA000F8040204F800FC021C02FC00C6281028E9
:102FB000C600C0201E20C000868A92A2C20000FE69
:102FC0008282820040201008040000828282FE007B
:102FD00020408040200001010101010000C0E010FC
:102FE0000000042A2A2A1E00FE1422221C001C2291
:102FF000222214001C222214FE001C2A2A2A180055
:1030000000107E904000182525253E00FE1020204F
:103010001E000022BE02000000040202BC0000FEEE
:10302000081422000082FE0200003E201E201E0026
:103030003E1020201E001C2222221C003F182424A7
:103040001800182424183F003E1020201000122AD7
:103050002A2A24002020FC2224003C0202043E00F4
:103060003804020438003C020C023C00221408140C
:103070002200320909093E0022262A3222000010CD
:103080006C8200000000EE00000000826C10000066
:103090004080402040000060909060000000FE8270
:1030A0008282828282FE0000000000000000000098
:1030B000000000000000000000000E1F1F0E0000B6
:1030C000000000B0B0000000001C1C00001C1C0030
:1030D000000000000000000000041F1F041F1F0468
:1030E0000040F0F040F0F040000C1E737118080032
:1030F0000020301C9CF06000183C243D1B060C0096
:103100000060C0B078487830000D1F121E0C00001F
:1031100000E0F01090E0F0900000001C1C000000A7
:1031200000000000000000000000030F1C10000061
:103130000000E0F81C0400000000101C0F03000059
:103140000000041CF8E0000000010507030705016A
:10315000000040C080C040000001010707010100DD
:10316000000000C0C00000000000000000000000DF
:10317000000000343C3800000001010101010100A1
:10318000000000000000000000000000000000003F
:10319000000000303030000000000001071E180061
:1031A000001878E08000000000000F1F10161F0FAD
:1031B0000000E0F0D010F0E00004040C1F1F00003D
:1031C00000000000F0F00000000C1C10111F0E00A9
:1031D000003070D090101000000C1C11111F0E0058
:1031E0000060701010F0E00000001F1F00070700D3
:1031F00000C0C04040F0F040001F1F11111110002E
:103200000010101030E0C0000003071E1A13010068
:1032100000E0F01010F0E00000101011171E180070
:10322000000070F080000000000E1F13111F0E0040
:1032300000E0F01090F0E000000F1F10101F0F00D2
:10324000000090B0F0C080000000000606060000FC
:1032500000000030303000000000000606060000CC
:10326000000000343C380000000103060C18100078
:10327000000080C060301000000202020202020062
:1032800000808080808080000010180C0603010000
:1032900000103060C0800000000C1C11131E0C00D8
:1032A000000000B0B00000000F1F101113121F0F1C
:1032B000E0F01090D050D0D000070F18180F070082
:1032C00000F0F08080F0F000001F1F11111F0E00B1
:1032D00000F0F01010F0E000000F1F10101C0C00A8
:1032E00000E0F01010706000001F1F10180F0700A2
:1032F00000F0F01030E0C000001F1F11111110008D
:1033000000F0F01010101000001F1F11111110001C
:1033100000F0F00000000000000F1F10101C0C0057
:1033200000E0F01090F0F000001F1F01011F1F00CF
:1033300000F0F00000F0F0000000101F1F1000006F
:10334000000010F0F010000000000000001F1F003F
:103350000060701010F0E000001F1F01071E180031
:1033600000F0F000C0F03000001F1F00000000005F
:1033700000F0F01010101000001F1F0403041F1FA6
:1033800000F0F0008000F0F0001F1F0603011F1F77
:1033900000F0F0000080F0F0000F1F10101F0F0071
:1033A00000E0F01010F0E000001F1F11111F0E00D0
:1033B00000F0F00000000000000F1F10101F0F00B1
:1033C00000E0F01018FCE400001F1F11111F0E0098
:1033D00000F0F00080F07000000C1E1311180800BF
:1033E0000020301090F060000010101F1F1010001F
:1033F000000000F0F0000000001F1F00001F1F0071
:1034000000E0F01010F0E000001F1F00001F1F0080
:1034100000C0E03030E0C000001F1F0003001F1F8D
:103420000080F0708070F08000181C07031C1800EA
:103430000070F00080F07000001E1F01011F1E00D0
:10344000000000F0F000000000101011131E1C001E
:103450000070F0901010100000001F1F10100000EE
:103460000000FEFE0202000000181E07010000001E
:1034700000000080E0781800000010101F1F0000FE
:1034800000000202FEFE00000010306060301000FC
:10349000000000000000000000000000000000002C
:1034A00002020202020202020000406070100000EC
:1034B00000000000000000000000040404070300F6
:1034C0000060F09090F0F000001F1F04040703005C
:1034D00000F0F01010F0E000000307040406020002
:1034E00000E0F0101030200000030704041F1F004C
:1034F00000E0F01010F0F0000003070404070300E0
:1035000000E0F0909090800000010F1F1111110059
:103510000000F0F0000000000003070404070700AB
:1035200000E2F21212FEFC00001F1F040407030059
:1035300000F0F00000F0F000000404373700000055
:10354000001010F0F01010000000040437370000E5
:1035500000020202FEFC0000001F1F00010706001F
:1035600000F0F080C07030000010101F1F0000003D
:10357000001010F0F0101000000707040704070304
:1035800000F0F000E000F0F000070704040703007B
:1035900000F0F00000F0F00000030704040703004F
:1035A00000E0F01010F0E00000070704040703003B
:1035B00000FEFE1010F0E0000003070404070700FF
:1035C00000E0F01010FEFE000007070102060600F2
:1035D00000F0F000000000000003070404040400F1
:1035E0000010909090F0600000041F1F040404007D
:1035F0000000E0F0101010000007070000070700AF
:1036000000E0F01010F0F0000007070000070700CE
:1036100000C0E03030E0C0000007070003000707EB
:1036200000C0F030C030F0C00006070101070600FE
:10363000003070C0C07030000007070000070700AE
:1036400002E2F2161CF8E00000040404050706007C
:10365000003070D0901010000000010F1E1000000C
:103660000080C0783C0400000000001F1F00000024
:10367000000000FEFE0000000000101E0F01000010
:103680000000043C78C080000C1810180C040C18C2
:10369000000000000000000000000000000000002A
:1036A00001020304060708090000000001020304E8
:1036B0000000000000000000D1260008A32B000835
:1036C00000000000000000003D27000865250008FC
:1036D000000000000000000000000000A528000815
:1036E000A32B000800000000000000000000000004
:1036F000000000000000000020370008000000204B
:103700004C000000F80000086C3700084C00002056
:10371000F40A0000140100083DF5FFFF15F5FFFF56
:103720000000000000000000000000000000000099
:103730000000000000000000000000000000000089
:103740000000000000000000000000000000000079
:103750000000000000000000000000000000000069
:0C3760000000000000127A0000000000D1
:04000005080000B53A
:00000001FF
